:020000040800F2
:1000000038370020CD010008D1250008D32500088D
:10001000D7250008DB250008DF25000800000000C8
:10002000000000000000000000000000E3250008C0
:10003000E525000800000000E7250008E925000884
:10004000E7010008E7010008E7010008E7010008F0
:10005000E7010008E7010008E7010008E7010008E0
:10006000E7010008E7010008E7010008E7010008D0
:10007000E7010008E7010008E7010008E7010008C0
:10008000E7010008E7010008E7010008E7010008B0
:10009000E7010008E7010008E7010008E7010008A0
:1000A000E7010008E7010008E7010008E701000890
:1000B000E70100088D300008E7010008E7010008AB
:1000C000E7010008E7010008E7010008E701000870
:1000D000E7010008E7010008832C0008E701000899
:1000E000E7010008E7010008E7010008E701000850
:1000F000E7010008E7010008E7010008E701000840
:10010000E7010008E7010008E7010008E70100082F
:10011000E7010008E7010008E7010008E70100081F
:10012000E7010008E7010008E7010008E70100080F
:1001300000F002F800F03AF80AA090E8000C8244BF
:100140008344AAF10107DA4501D100F02FF8AFF29C
:10015000090EBAE80F0013F0010F18BFFB1A43F0A5
:10016000010318473C4200005C420000103A24BFE3
:1001700078C878C1FAD8520724BF30C830C144BF0C
:1001800004680C607047000000230024002500264E
:10019000103A28BF78C1FBD8520728BF30C148BFEA
:1001A0000B6070471FB51FBD10B510BD04F0ACF853
:1001B0001146FFF7F7FF02F0C7F904F0CAF803B4DD
:1001C000FFF7F2FF03BC04F0D1F8000009488047B4
:1001D00009480047FEE7FEE7FEE7FEE7FEE7FEE729
:1001E000FEE7FEE7FEE7FEE704480549054A064B41
:1001F00070470000EB020008310100083831002090
:100200003837002038330020383300200CB5002068
:10021000019000906C48006840F480306A490860A2
:1002200000BF6948006800F4003000900198401C4D
:100230000190009818B90198B0F5A06FF1D162480B
:10024000006800F4003010B10120009001E00020AF
:1002500000900098012843D15C48006840F01000ED
:100260005A4908600846006820F003000860084604
:10027000006840F0020008605348406852494860F6
:100280000846406848600846406840F4806048601E
:100290000846406820F47C1048600846406840F4F6
:1002A000E81048600846006840F08070086000BFB1
:1002B0004548006800F000700028F9D042484068C6
:1002C00020F00300404948600846406840F00200C2
:1002D000486000BF3C48406800F00C000828F9D195
:1002E0000CBD10B5FFF792FF10BD10B53648006881
:1002F00040F001003449086008464068344908402D
:100300003149486008460068324908402E49086073
:100310000846006820F4802008600846406820F401
:10032000FE0048604FF41F008860FFF7DAFF4FF0CF
:1003300000602949086010BD10B50021002000228E
:10034000214B5B6803F00C0121B1042906D0082978
:1003500028D107E0214B224C236027E01F4B204C83
:10036000236023E0184B5B6803F47010164B5B6846
:1003700003F48032022303EB904022B9194B43432C
:10038000174C23600DE0104B5B6803F4003323B17E
:10039000144B4343124C236003E0104B4343104C77
:1003A000236003E00D4B0E4C236000BF00BF064BE3
:1003B0005B68C3F303130C4CE15C094B1B68CB4037
:1003C000074C236010BD00000010024000200240D6
:1003D0000000FFF8FFFFF6FE08ED00E000127A00D3
:1003E0000000002000093D000400002031490143C5
:1003F000314A1160704770B5002100230F22C47884
:1004000004B32D4C246804F4E064C4F5E064210ACC
:10041000C1F10403CA40447804FA03F1847814401B
:1004200021430901254C0678A155047804F01F05E5
:100430000124AC4005786D11AD0005F1E025C5F84B
:10044000004109E0047804F01F050124AC401C4D74
:100450000678761145F8264070BD1A4A0A400243D4
:10046000154B1B1F1A60704739B1134A121D1268D1
:100470000243114B1B1D1A6006E00F4A121D126841
:1004800082430D4B1B1D1A607047042808D14FF0A2
:10049000E021096941F004014FF0E022116107E019
:1004A0004FF0E021096921F004014FF0E0221161D1
:1004B000704700000000FA050CED00E000E400E0E9
:1004C00080E100E080FFFF1F10B50446FA48844237
:1004D00008D10121401500F055FD0021601500F004
:1004E00051FD17E0F548844208D10121001500F0C4
:1004F00049FD0021201500F045FD0BE0F048844245
:1005000008D10121C80300F03DFD00214FF4004057
:1005100000F038FD10BD30B50246002000235068C1
:10052000E84C20400D790C6844EA052420435060D3
:100530009068E54C2040D1E902542C434D7944EABF
:10054000450420439060D06A20F470000C7C641E47
:10055000E4B2234340EA0350D06230BD0021016081
:10056000017141718160C16001210174704721B145
:10057000826842F00102826003E0826822F0010298
:100580008260704721B1826842F48072826003E029
:10059000826822F480728260704710B50023CBB26B
:1005A0001AB144681C43446002E044689C434460C0
:1005B00010BD816841F0080181607047014600204C
:1005C0008A6802F008020AB1012000E000207047AA
:1005D000816841F0040181607047014600208A680B
:1005E00002F004020AB1012000E00020704721B1AE
:1005F000826842F4A002826003E0826822F4A002D2
:1006000082607047014600208A6802F480020AB1C5
:10061000012000E00020704710B50A4600210023A9
:10062000416821F46041531E41EA4331416010BDED
:1006300021B1426842F40062426003E0426822F461
:10064000006242607047F0B504460D46002000216C
:10065000092D11DDE068A5F10A0606EB460707261D
:1006600006FA07F18843A5F10A0606EB460603FAE7
:1006700006F10843E0600CE0206905EB450707261A
:1006800006FA07F1884305EB450603FA06F108432D
:100690002061072A0FDA606B561E06EB86071F26BD
:1006A00006FA07F18843561E06EB860605FA06F1A0
:1006B0000843606322E00D2A0FDA206BD61F06EB99
:1006C00086071F2606FA07F18843D61F06EB860623
:1006D00005FA06F10843206310E0E06AA2F10D0676
:1006E00006EB86071F2606FA07F18843A2F10D06DE
:1006F00006EB860605FA06F10843E062F0BD21B17B
:10070000826842F48012826003E0826822F48012E0
:10071000826070470146C86C80B2704766484C30B2
:100720000068704721B1426842F48062426003E091
:10073000426822F480624260704721B1426842F40C
:100740008052426003E0426822F480524260704767
:100750000A460021816821F4E0411143816070471D
:1007600021B1826842F40042826003E0826822F490
:1007700000428260704721B1826842F402128260B6
:1007800003E0826822F40212826070470146002072
:100790008A6802F400120AB1012000E000207047CC
:1007A000F0B504461546002000220026092911DD77
:1007B000E068A1F10A0707EB470C072707FA0CF2DC
:1007C0009043A1F10A0707EB470703FA07F210432A
:1007D000E0600CE0206901EB410C072707FA0CF2FE
:1007E000904301EB410703FA07F210432061A06B2D
:1007F000C0F30156EF1C06F1010CA7EB0C0707EB49
:10080000870C1F2707FA0CF29043EF1C06F1010C2E
:10081000A7EB0C0707EB870701FA07F21043A06369
:10082000F0BD10B50A4600210023816B21F4401170
:10083000531E41EA0351816310BD08B500230093A4
:100840000090009B0B440093009B1A6008BD08B504
:10085000024600200090009201F12800009B1844FD
:1008600000900098006880B208BD0A4600214168E7
:10087000164B1940114341607047416282627047D4
:100880000A460021416821F01F0111434160704771
:1008900040B109490831096841F40001064A0832AB
:1008A000116007E004490831096821F40001024A97
:1008B0000832116070470000002401400028014008
:1008C000003C0140FFFEF0FFFDF7F1FFFFFD3FFFA1
:1008D0000246002013680B400BB1012000E000200D
:1008E0007047CA430260704770B50246002000237B
:1008F00000240B125568CEB205EA060415681D40A7
:1009000015B10CB1012000E0002070BD00220A12D8
:10091000D34303607047000010B50446CC488442BE
:1009200008D10121042000F02DFB0021042000F05B
:1009300029FB46E0C748844208D10121082000F085
:1009400021FB0021082000F01DFB3AE0C248844250
:1009500008D10121102000F015FB0021102000F02B
:1009600011FB2EE0BD48844208D10121202000F077
:1009700009FB0021202000F005FB22E0B84884425A
:1009800008D10121402000F0FDFA0021402000F0B4
:10099000F9FA16E0B348844208D10121802000F022
:1009A000F1FA0021802000F0EDFA0AE0AE4884421E
:1009B00007D10121801500F0E5FA0021A01500F013
:1009C000E1FA10BD10B50121084600F0DBFA002164
:1009D000012000F0D7FA10BD2DE9F04102460025B4
:1009E0000026002000230024002791F803C00CF00B
:1009F0000F0591F803C00CF0100CBCF1000F03D0F0
:100A000091F802C04CEA050591F800C0BCF1000F56
:100A100031D0146800202BE04FF0010C0CFA00F3E9
:100A2000B1F800C00CEA03069E4220D183004FF0CB
:100A30000F0C0CFA03F7BC4305FA03FC4CEA040460
:100A400091F803C0BCF1280F06D14FF0010C0CFA4D
:100A500000FCC2F814C00AE091F803C0BCF1480FD2
:100A600005D14FF0010C0CFA00FCC2F810C0401C7C
:100A70000828D1D31460B1F800C0BCF1FF0F34DDF9
:100A8000546800202EE000F1080C4FF0010808FA2D
:100A90000CF3B1F800C00CEA03069E4221D183009A
:100AA0004FF00F0C0CFA03F7BC4305FA03FC4CEAB9
:100AB000040491F803C0BCF1280F05D100F1080C23
:100AC00008FA0CF8C2F8148091F803C0BCF1480F82
:100AD00007D100F1080C4FF0010808FA0CF8C2F831
:100AE0001080401C0828CED35460BDE8F0814FF63A
:100AF000FF710180022181700421C170704702469C
:100B0000002093680B400BB1012000E000207047EB
:100B10000146886880B2704702460020D3680B40C7
:100B20000BB1012000E0002070470146C86880B288
:100B3000704701617047416170470AB1016100E08F
:100B400041617047C16070474FF480320A4382614F
:100B50008161826182698269704702460020434B4D
:100B600018684FF68073184040EA021008433F4B64
:100B7000186070473E49C8617047F0B50A460023C7
:100B800000240021002500F00046B6F1004F02D1FC
:100B9000364EF16901E0354E7168C0F3034583B20A
:100BA00000F44016B6F5401F08D121F070612F4EB9
:100BB000766826F070662D4F7E6012E000F4801695
:100BC000B6F5801F06D1032606FA05F4A14341F0CD
:100BD000706106E0460D360103FA06F6B14341F0B6
:100BE000706122B1460D360103FA06F6314300F07A
:100BF0000046B6F1004F02D11C4EF16101E01B4EE0
:100C00007160F0BD30B500228B071C0F0F2303FA73
:100C100004F2164B08338C1053F824309343134CD2
:100C200008348D1044F8253023468C1053F82430B6
:100C30008C07240F00FA04F423430C4C08348D1065
:100C400044F8253030BD0A49DC31086070470000A7
:100C500000080140000C0140001001400014014058
:100C600000180140001C014000200140000001402C
:100C700000002042DF48006840F00100DD490860C4
:100C800008464068DC490840DA4948600846006880
:100C9000DA490840D74908600846006820F48020F7
:100CA00008600846406820F4FE0048604FF41F00CA
:100CB00088607047CF49096821F48031CD4A1160BE
:100CC0001146096821F480211160B0F5803F03D0FE
:100CD000B0F5802F0ED106E0C649096841F4803195
:100CE000C44A116007E0C349096841F4A021C14A20
:100CF000116000E000BF00BF704710B50146002240
:100D0000002300204A11012A02D1BA4C236806E0D0
:100D1000022A02D1B74C236A01E0B64C636A01F0A3
:100D20001F02012494401C400CB1012000E000206F
:100D300010BD38B5002000900024002500BF3120F0
:100D4000FFF7DBFF05460098401C00900098B0F5C7
:100D5000A06F01D0002DF2D03120FFF7CEFF08B1F7
:100D6000012400E00024204638BD01460020A14AAD
:100D7000106820F0F80040EAC10010607047A049F8
:100D800008607047024600209A4B586820F47C1097
:100D900042EA01031843974B586070479849086628
:100DA000704701460020934A506820F00300084332
:100DB000506070478F48406800F00C007047014653
:100DC00000208C4A506820F0F000084350607047C3
:100DD00001460020874A506820F4E06008435060D4
:100DE000704701460020834A506820F4605040EA72
:100DF000C1005060704729B17E4A527A02437D4B50
:100E00005A7204E07B4A527A82437A4B5A72704794
:100E10007B49D8310860704701460020754A506808
:100E200020F440400843506070470021714A20324E
:100E30001170704A82F82010012802D004280AD1CB
:100E400004E001216B4A2032117005E00521694A56
:100E50002032117000E000BF00BF70476949086090
:100E600070476449096A0143624A116270476549E3
:100E700044390860704730B5002100220024002367
:100E80005C4D6D6805F00C0121B1042905D00829DD
:100E900023D105E05C4D056022E05B4D05601FE05D
:100EA000544D6D6805F47012524D6D6805F4803430
:100EB000022505EB92421CB9544D554305600BE0E9
:100EC0004C4D6D6805F400351DB1504D554305601E
:100ED00002E04D4D5543056002E04B4D056000BFFB
:100EE00000BF444D6D6805F0F0010909484D6B5C89
:100EF0000568DD4045603F4D6D6805F4E061090A15
:100F0000434D6B5C4568DD4085603A4D6D6805F486
:100F10006051C90A3E4D6B5C4568DD40C560354D8A
:100F20006D6805F44041890B3A4D6B5CC568B5FBB3
:100F3000F3F5056130BD29B12E4A526902432D4BAC
:100F40005A6104E02B4A526982432A4B5A61704726
:100F500029B1284A92690243264B9A6104E0254A46
:100F600092698243234B9A61704729B1214AD26921
:100F70000243204BDA6104E01E4AD26982431D4BD2
:100F8000DA61704729B11B4AD2680243194BDA6013
:100F900004E0184AD2688243164BDA60704729B1E0
:100FA000144A12690243134B1A6104E0114A126990
:100FB0008243104B1A6170471249403908607047EC
:100FC0000F49C86470470B49C87170470948406AA7
:100FD00040F0807007494862704701460020054A8A
:100FE00092680A400AB1012000E0002070470149E0
:100FF00088727047001002400000FFF8FFFFF6FE05
:10100000000042428004424200127A0000093D0082
:10101000140000202400002010B50446BE4884427D
:1010200008D101218014FFF7ADFF0021A014FFF7C4
:10103000A9FF16E0B948844208D101210014FFF746
:10104000AEFF00212014FFF7AAFF0AE0B448844253
:1010500007D10121C013FFF7A2FF0021E013FFF722
:101060009EFF10BD10B50022028802F441520B8889
:101070004C8823438C882343CC8823430C89234307
:101080004C8923438C892343CC8923431A43028010
:10109000838B4FF2FF74234083830B8A038210BD3E
:1010A0002DE9F04F85B005460C464FF000090227A8
:1010B0004FF000084FF0010B0026B246A88B4FF20C
:1010C00040010840A88302202884B5F81C90A0683D
:1010D000022801D100BF38E0A08810B94FF0010B01
:1010E00001E04FF0020B8D48854200D100E000BFC7
:1010F0006846FFF7C0FEDDF800A0E088B0F5007F8D
:101100000AD14FEA1A2000EB80004000A168B0FB32
:10111000F1F0401D86B20BE04FEA4B10BAFBF0F045
:1011200000EB80004000A168B0FBF1F0401D86B2EA
:101130000A20B6FBF0F606F00108A6EB0800C0F3A3
:101140004F074FF6FF7000EA0828022F01DBFF2F40
:1011500002DD02274FF00008E08840EA080038432B
:101160002884A088A189084361880843218808430E
:1011700040F4006040EA0909A5F81C9005B0BDE8FC
:10118000F08F0021018041808180C18001814181F7
:101190008181C18107210182704700210180418046
:1011A0008180C1800221816000218181704721B14D
:1011B000028842F04002028004E002884FF6BF73CA
:1011C0001A400280704721B1828B42F48062828390
:1011D00004E0828B4FF6FF331A408283704730B5AC
:1011E000002400230C110125A540ABB21AB185885B
:1011F0001D43858002E085889D43858030BD1AB1FE
:1012000083880B43838002E083888B43838070470D
:10121000818170470146888970474FF6FF6291428D
:1012200004D0028842F48072028004E002884FF603
:10123000FF631A400280704721B1828842F00402A5
:10124000828004E082884FF6FB731A4082807047E8
:1012500002884FF2FF731A40028002880A4302801C
:101260007047018841F480510180704721B10288A4
:1012700042F40052028004E002884DF6FF731A40E7
:101280000280704702460020012901D0108B00E047
:10129000908A70470146088A7047B1F5804F04D1A3
:1012A000028842F48042028004E002884BF6FF7319
:1012B0001A40028070470246002013890B400BB190
:1012C000012000E000207047CA4302817047F0B55A
:1012D0000246002000240023002501F00F0701260C
:1012E000BE40B4B20B1101269E40B3B2968806EA06
:1012F00003051689264016B10DB1012000E000203B
:10130000F0BD10B5002201F00F040123A3409AB2F2
:10131000D343038110BD000000300140003800407D
:10132000003C004010B50446FE48844208D101212B
:10133000C014FFF727FE0021E014FFF723FEC4E0EE
:10134000B4F1804F08D101210846FFF728FE0021A3
:101350000120FFF724FEB8E0F348844208D10121C0
:101360000220FFF71CFE00210220FFF718FEACE070
:10137000EE48844208D101210420FFF710FE00212D
:101380000420FFF70CFEA0E0E948844208D10121C7
:101390000820FFF704FE00210820FFF700FE94E07C
:1013A000E448844208D101211020FFF7F8FD002114
:1013B0001020FFF7F4FD88E0DF48844208D10121C6
:1013C0002020FFF7ECFD00212020FFF7E8FD7CE066
:1013D000DA48844208D101214014FFF7D3FD0021EF
:1013E0006014FFF7CFFD70E0D548844209D1012198
:1013F000C804FFF7C7FD00214FF40020FFF7C2FD2E
:1014000063E0D048844209D101210805FFF7BAFD05
:1014100000214FF48010FFF7B5FD56E0CA48844222
:1014200009D101214805FFF7ADFD00214FF400105F
:10143000FFF7A8FD49E0C548844208D101214020BA
:10144000FFF7ADFD00214020FFF7A9FD3DE0C048BA
:10145000844208D101218020FFF7A1FD00218020D6
:10146000FFF79DFD31E0BB48844208D10121801582
:10147000FFF795FD0021A015FFF791FD25E0B64887
:10148000844209D101210804FFF77CFD00214FF4BB
:101490008030FFF777FD18E0B048844209D1012180
:1014A0004804FFF76FFD00214FF40030FFF76AFD9D
:1014B0000BE0AB48844208D101218804FFF762FDAC
:1014C00000214FF48020FFF75DFD10BD002202884F
:1014D000944B98420ED0994B98420BD0B0F1804F6C
:1014E00008D0914B984205D0904B984202D0904B37
:1014F000984204D14FF68F731A404B881A438D4B94
:10150000984207D08C4B984204D04FF6FF431A40C4
:10151000CB881A4302808B8883850B880385814B97
:1015200098420BD0854B984208D08B4B984205D0FF
:101530008A4B984202D08A4B984201D10B7A03869B
:1015400001238382704770B5002400220023058C9C
:101550004FF6FE7635400584028C8388048B4FF667
:101560008F752C40B51E2C400D882C43751E2A40CB
:101570000D892A434D882A436A4DA8420BD06F4DEE
:10158000A84208D0744DA84205D0744DA84202D09C
:10159000734DA84213D14FF6F7752A404D892A435F
:1015A0004FF6FB752A408D882A434FF6FF652B4086
:1015B0004FF6FF552B408D892B43CD892B438380DC
:1015C0000483CD888586028470BD70B50024002216
:1015D0000023058C4FF6EF7635400584028C838816
:1015E000048B48F6FF752C404FF6FF452C400D88C4
:1015F0004FF6FF7606EA05252C434FF6DF752A40A5
:101600000D8906EA05152A434D8806EA05152A4381
:10161000444DA84202D0494DA8421DD14FF67F75D6
:101620002A404D894FF6FF7606EA05152A434FF604
:10163000BF752A408D8806EA05152A434FF6FF3507
:101640002B404FF2FF752B408D8906EA85052B4311
:10165000CD8906EA85052B4383800483CD880587E1
:10166000028470BD70B5002400220023058C4FF663
:10167000FF6635400584028C8388848B4FF68F7516
:101680002C404FF6FC752C400D882C434FF6FF552F
:101690002A400D894FF6FF7606EA05252A434D8834
:1016A00006EA05252A431F4DA84202D0234DA84231
:1016B0001DD14FF2FF752A404D894FF6FF7606EA9D
:1016C00005252A434FF6FF352A408D8806EA052571
:1016D0002A434EF6FF752B404DF6FF752B408D8942
:1016E00006EA05152B43CD8906EA05152B438380B1
:1016F0008483CD888587028470BD70B50022002365
:101700000024058C4EF6FF7635400584038C8488D2
:10171000828B48F6FF752A404FF6FF452A400D8818
:1017200020E00000002C01400004004000080040C0
:10173000000C004000100040001400400034014044
:10174000004C01400050014000540140001800408E
:10175000001C0040002000400040014000440140C7
:10176000004801404FF6FF7606EA05252A434DF66C
:10177000FF752B400D8906EA05352B434D8806EA97
:1017800005352B43FA4DA84202D0FA4DA84208D1A4
:101790004BF6FF752C408D894FF6FF7606EA8515CE
:1017A0002C4384808283CD88A0F84050038470BD90
:1017B000828B4FF2FF331A408283828B4FF6FF7386
:1017C00003EA01231A4382837047F0B50C4615469D
:1017D000002200210026078C4EF6FF7C07EA0C074A
:1017E0000784828B018C4FF6FF7707EA043640F6B8
:1017F000FF473A404FF6FF7707EA05273A434FF68F
:10180000FF7707EA03373A43D94FB8420ED0D94F92
:10181000B8420BD0B0F1804F08D0D74FB84205D0B6
:10182000D64FB84202D0D64FB84206D14DF6FF7718
:10183000394046F48057394305E047F6FF573940B1
:1018400044F48057394382830184F0BD828B4FF684
:10185000F3731A408283828B0A4382837047F0B508
:101860000C461546002200210026078C4FF6FF6C1F
:1018700007EA0C070784828B018C4FF6FF7707EA93
:1018800004264FF60C773A404FF6FF7707EA031726
:101890002F433A43B64FB8420ED0B64FB8420BD0A2
:1018A000B0F1804F08D0B44FB84205D0B34FB84222
:1018B00002D0B34FB84206D14FF6FF57394046F435
:1018C0008077394305E04FF2FF57394044F4807781
:1018D000394382830184F0BD028B4FF2FF331A40FB
:1018E0000283028B4FF6FF7303EA01231A4302833C
:1018F0007047F0B50C461546002200210026078CE3
:101900004FF6EF7C07EA0C070784028B018C4FF639
:10191000FF7707EA041640F6FF473A404FF6FF7795
:1019200007EA03373A434FF6FF7707EA05273A43BA
:101930008F4FB8420ED08F4FB8420BD0B0F1804FCE
:1019400008D08D4FB84205D08C4FB84202D08C4F92
:10195000B84206D14FF6DF77394046F010073943D9
:1019600005E04FF65F77394044F0100739430283B2
:101970000184F0BD028B4FF6F3731A400283028B91
:101980000A4302837047F0B50C4615460022002139
:10199000068C4FF6FE773E400684028B018C4FF694
:1019A0000C7632407E1C06EA03162E433243704EFC
:1019B000B0420ED06F4EB0420BD0B0F1804F08D085
:1019C0006D4EB04205D06D4EB04202D06C4EB0426A
:1019D00006D14FF6FD76314044F00106314305E073
:1019E0004FF6F576314044F001063143028301841D
:1019F000F0BD70B505460C465D4885420ED05D4889
:101A000085420BD0B5F1804F08D05B48854205D0A8
:101A10005A48854202D05A48854200D100E000BFB2
:101A2000208850B92389A28861882846FFF7ABFF38
:101A3000E1882846FFF79EFF25E0208804280AD188
:101A40002389A28861882846FFF753FFE18828464A
:101A5000FFF742FF17E0208808280AD12389A288CF
:101A600061882846FFF7FBFEE1882846FFF7EEFE77
:101A700009E02389A28861882846FFF7A6FEE1884D
:101A80002846FFF795FE70BD2DE9F04105460C464E
:101A900000260127608808B9022600E00026A088F9
:101AA000012801D1022700E001272088A0B923895D
:101AB000A28861882846FFF766FFE1882846FFF77D
:101AC00059FF23893A4631462846FFF712FFE1883D
:101AD0002846FFF701FF13E02389A2886188284682
:101AE000FFF707FFE1882846FFF7F6FE23893A460D
:101AF00031462846FFF747FFE1882846FFF73AFFBF
:101B0000BDE8F0810A884B881A438B881A43CB883A
:101B10001A430B891A434B891A438B891A43A0F83D
:101B2000442070474FF6FF71818000210180C18001
:101B30004180017270470021018041808180C18015
:101B4000018141818181C1817047002101804180F3
:101B5000012181800021C180018170470021018025
:101B600041808180C1800181418181817047000075
:101B7000002C0140003401400004004000080040F7
:101B8000000C004021B1028842F00102028004E012
:101B900002884FF6FE731A400280704731B1B0F8E8
:101BA000442042F40042A0F8442005E0B0F844206C
:101BB000C2F30E02A0F8442070471AB183890B4388
:101BC000838102E083898B438381704781827047E0
:101BD00041EA0203A0F8483070471AB183890B43E9
:101BE000838102E083898B438381704701894FF6AB
:101BF000F8721140018170470A46002101894FF6B1
:101C00008F73194011430181704730B504460D466A
:101C100029462046FFF7F0FF208940F00700208189
:101C200030BD2DE9F04104460D4616461F46602D95
:101C300006D13B46012231462046FFF75AFE05E019
:101C40003B46012231462046FFF79DFE29462046AD
:101C5000FFF7D2FF208940F007002081BDE8F08126
:101C600030B50C4600210189C9B24FF6FF7505EA6F
:101C70000325154325432943018130BD2DE9F0415A
:101C800005460E4617469846002443463A463146D6
:101C90002846FFF7E5FF2C894FF6F870044044F022
:101CA00007044FF68F70044044F070042C81BDE8A7
:101CB000F081F0B504460D4616461F463B463246B7
:101CC00029462046FFF7CCFF208940F48040208140
:101CD000F0BD0185828270470A46002101884FF6D7
:101CE0008F731940114301807047F0B50C461546BB
:101CF0001E460021002200230189028B038C4FF62F
:101D0000F877394021434FF6FC473A4040F201173B
:101D10003A434FF6DD773B404FF6FF7707EA061769
:101D20002F433B43018102830384F0BD0A46002117
:101D3000018B4FF68F7319401143018370470A4698
:101D40000021018B48F6FF7319404FF6FF7303EA39
:101D500002231943018370470A460021818B4FF605
:101D60008F7319401143818370470A460021818B8C
:101D700048F6FF7319404FF6FF7303EA0223194335
:101D80008183704721B1028842F08002028004E022
:101D900002884FF67F731A400280704721B1828813
:101DA00042F00402828004E082884FF6FB731A40FE
:101DB0008280704721B1828842F00802828004E06C
:101DC00082884FF6F7731A408280704721B182886B
:101DD00042F00102828004E082884FF6FE731A40CE
:101DE000828070470A460021018B4FF6F773194035
:101DF0001143018370470A460021018B4FF2FF73A4
:101E000019404FF6FF7303EA022319430183704719
:101E10000A460021818B4FF6F773194011438183E5
:101E200070470A460021818B4FF2FF7319404FF62D
:101E3000FF7303EA02231943818370470A46002196
:101E4000018B4FF6FB7319401143018370470A461B
:101E50000021018B4FF6FF3319404FF6FF7303EA61
:101E600002231943018370470A460021818B4FF6F4
:101E7000FB7319401143818370470A460021818B0F
:101E80004FF6FF3319404FF6FF7303EA022319435D
:101E9000818370470A460021018B4FF67F731940FA
:101EA0001143018370470A460021018BC1F30E01E3
:101EB0004FF6FF7303EA02231943018370470A4672
:101EC0000021818B4FF67F73194011438183704746
:101ED0000A460021818BC1F30E014FF6FF7303EA1E
:101EE00002231943818370470A460021018C4FF673
:101EF000FD7319401143018470470A460021018C8B
:101F00004FF6F77319401143018470470A460021C8
:101F1000018C4FF6DF7319404FF6FF7303EA02138B
:101F20001943018470470A460021018C4FF67F73E4
:101F300019404FF6FF7303EA0213194301847047F7
:101F40000A460021018C4FF6FF5319404FF6FF73EC
:101F500003EA02231943018470470A460021018CD9
:101F60004FF2FF7319404FF6FF7303EA0223194340
:101F7000018470470A460021018C4DF6FF73194019
:101F80004FF6FF7303EA023319430184704730B5FB
:101F9000002301248C40A3B2048C9C430484048C51
:101FA00002FA01F5ADB22C43048430BD30B50023F4
:101FB00004248C40A3B2048C9C430484048C02FA55
:101FC00001F5ADB22C43048430BD70B5034600204A
:101FD00000241846183001258D40ACB21D8CA54355
:101FE0001D8409B1082909D100EB6100056825F0BD
:101FF000700505600568154305600EE00D1FC5F30B
:102000004E052844056825F4E045056005684FF64F
:10201000FF7606EA02263543056070BD21B10288CD
:1020200042F00202028004E002884FF6FD731A407B
:102030000280704721B1028842F00402028004E06D
:1020400002884FF6FB731A400280704721B18288E4
:1020500042F08002828004E082884FF67F731A404B
:102060008280704702884FF6F7731A400280028818
:102070000A430280704782884FF68F731A4082802D
:1020800082880A438280704702894FF6F8731A40AB
:10209000028102890A430281704702894FF67F73E9
:1020A0001A40028102890A43028170478184704785
:1020B00081857047818670470187704781877047A7
:1020C000A0F84010704702884FF6FF431A40028084
:1020D00002880A43028070470146888E7047014695
:1020E000088F70470146888F70470146B1F840005D
:1020F00070470146888C70470146088D704702463C
:102100000020138A0B400BB1012000E00020704733
:10211000CA430282704730B50246002000230024E3
:10212000158A05EA0103958905EA010413B10CB18A
:10213000012000E0002030BDCA4302827047000049
:1021400010B50446FB48844209D101218803FEF7FB
:1021500019FF00214FF48040FEF714FF32E0F648EB
:10216000844209D101214804FEF719FF00214FF4F0
:102170000030FEF714FF25E0F048844209D1012128
:102180008804FEF70CFF00214FF48020FEF707FFC4
:1021900018E0EB48844209D10121C804FEF7FFFE94
:1021A00000214FF40020FEF7FAFE0BE0E5488442E0
:1021B00008D101210805FEF7F2FE00214FF480103E
:1021C000FEF7EDFE10BD2DE9F04786B005460E4640
:1021D0000024A24600BFA1460027B08900B100BF7D
:1021E0002F462C8A4CF6FF700440F08804432C8262
:1021F000AC894EF6F3100440B088318908437189E8
:1022000008430443AC81AC8A4FF6FF400440B089D8
:102210000443AC8201A8FEF72EFEC648874202D1D5
:10222000DDF810A001E0DDF80CA0A88900F4004062
:1022300040B10AEBCA0000EB0A1031684900B0FB5C
:10224000F1F807E00AEBCA0000EB0A1031688900D8
:10225000B0FBF1F86420B8FBF0F004012009642120
:1022600001FB1089A88900F4004040B1322000EB46
:10227000C900B0FBF1F000F00700044308E0322091
:1022800000EB09106421B0FBF1F000F00F000443F3
:102290002C8106B0BDE8F0874FF416510160002193
:1022A0008180C18001810C214181002181817047A1
:1022B00010B502460020108A4FF2FF0318400B8829
:1022C0004C8823438C882343CC88234318431082B3
:1022D00010BD0021018041808180C180704721B103
:1022E000828942F40052828104E082894DF6FF73B4
:1022F0001A4082817047F0B503460024002600256D
:10230000002040F66A17B94200D100BF1846C1F359
:10231000421401F01F06012707FA06F5012C01D12E
:102320000C3004E0022C01D1103000E014301AB15E
:1023300007682F43076002E00768AF430760F0BDFE
:102340001AB1838A0B43838202E0838A8B438382A0
:102350007047028A4FF6F0731A400282028A0A43DB
:102360000282704782894FF2FF731A40828182890C
:102370000A438281704721B1828942F00202828140
:1023800004E082894FF6FD731A4082817047028A09
:102390004FF6DF731A400282028A0A4302827047B4
:1023A00021B1028A42F48042028204E0028A4BF6A2
:1023B000FF731A4002827047C1F30802828070479F
:1023C00001468888C0F308007047818941F0010107
:1023D00081817047028BD2B20283028B42EA0122D2
:1023E00002837047028B02F47F420283028B0A430E
:1023F0000283704721B1828A42F02002828204E087
:10240000828A4FF6DF731A408282704721B1828A36
:1024100042F01002828204E0828A4FF6EF731A4083
:102420008282704721B1828A42F00802828204E0EF
:10243000828A4FF6F7731A408282704721B18289EF
:1024400042F40042828103E08289C2F30E0282815B
:10245000704721B1828A42F40062828204E0828A5B
:102460004FF2FF731A4082827047828A4FF6FB73E5
:102470001A408282828A0A438282704721B1828A0C
:1024800042F00202828204E0828A4FF6FD731A4013
:102490008282704702460020B1F5007F00D100BF64
:1024A00013880B400BB1012000E00020704701F4BD
:1024B0000072B2F5007F00D100BFCA4302807047AE
:1024C00070B50246002400230025002040F66A165D
:1024D000B14200D100BFC1F3421501F01F03012634
:1024E00006FA03F3012D02D19689334006E0022D4E
:1024F00002D1168A334001E0968A33400C1201263D
:1025000006FA04F41688344013B10CB1012000E03F
:10251000002070BD10B50022002340F66A14A142CD
:1025200000D100BF0A1201249440A3B2DC4304800E
:1025300010BD000000380140004400400048004049
:10254000004C00400050004000F01EF801F042FE38
:1025500016E00C48007810B101280FD108E001F016
:1025600014FE01F088FC10B101200649087006E055
:1025700001F0BAFC00200349087000E000BF00BF72
:10258000E7E700002800002010B500F02FF800F069
:102590001CFB00F089FE00F093F800F0A9FB01F0AD
:1025A0004CFA00F019FC01F0A9FB002001F0B0FB8F
:1025B00000F026FD4FF4E13000F00EFB00F0C3FF09
:1025C0000021084601F0ACFA002001F006FB10BD26
:1025D000704700BFFEE700BFFEE700BFFEE700BF99
:1025E000FEE77047704770477047000010B56FF006
:1025F0000400FDF74AFF2E4800682E49B0FBF1F0B9
:102600002D4908700846007800EB4001C1EBC0106E
:102610004FF6FF7101EAC0002849088010BD01464D
:10262000254A12784A434FF0E0235A6100229A610A
:102630001A46126942F001021A6100BF4FF0E0220F
:10264000106900F001021AB100F48032002AF5D0BE
:102650004FF0E022126922F001024FF0E0231A61EC
:1026600000229A6170470146144A12884A434FF08B
:10267000E0235A6100229A611A46126942F001026F
:102680001A6100BF4FF0E022106900F001021AB198
:1026900000F48032002AF5D04FF0E022126922F0D7
:1026A00001024FF0E0231A6100229A617047000096
:1026B0000000002000127A002A0000202C000020D8
:1026C00008B501210820FEF743FC4FF44060ADF847
:1026D000000010208DF8030003208DF802006946E9
:1026E000FE48FEF779F94FF44061FD48FEF721FA04
:1026F00008BD10B5FA48001D006820F47040F84984
:10270000091D08600846006840F440500860012038
:10271000F4490860F449C1F8A8016420FFF77FFF7D
:102720000020F04908606420FFF779FF0020EE499F
:10273000C1F8A80110BD10B5E948001D006820F4DB
:102740007040E749091D08600846006840F44050A1
:1027500008600020E349091F0860E349C1F8AC01A3
:102760006420FFF75CFF0120DE49091F0860DE4995
:10277000C1F8AC016420FFF752FF10BD10B5002472
:10278000D748001D006820F47040D549091D086035
:102790000846006840F4004008600120D149086004
:1027A0006420FFF73CFF0120CF49C1F8A801642055
:1027B000FFF735FF07E0601CC4B2FA2C03DDFFF71A
:1027C000BAFF012010BDC748803800680028F2D148
:1027D000C449091F086000BFF4E710B50020C149D3
:1027E000091F0860BE48001D006820F47040BC4905
:1027F000091D08600846006840F440500860002049
:10280000B949C1F8AC016420FFF709FF0120B549BF
:10281000091F08606420FFF702FF0020B249C1F8D9
:10282000A80110BD10B50020AE49091F0860AC48D2
:10283000001D006820F47040A949091D0860084681
:10284000006840F4405008600120A749C1F8AC017D
:102850006420FFF7E4FE0120A249091F08606420FC
:10286000FFF7DDFE0020A049C1F8A80110BD70B53A
:1028700004469B48001D006820F470409849091DDB
:1028800008600846006840F4405008600020954900
:10289000091F086000251DE0E00918B101209149D9
:1028A000086002E000208F4908606006040E0A20DC
:1028B000FFF7B5FE01208B49091F08600A20FFF7CA
:1028C000AEFE00208849C1F8A8010A20FFF7A7FE44
:1028D000681CC5B2082DDFDB70BD70B5054600244D
:1028E0007F48001D006820F470407D49091D086084
:1028F0000846006840F400400860002617E0002009
:102900007849091F08603220FFF789FE01207649C7
:10291000C1F8A8016006040E72488038006808B14A
:10292000601CC4B23220FFF77AFE701CC6B2082EBB
:10293000E5DB15B9FFF776FF01E0FFF74EFF204614
:1029400070BD70B504460D460026FFF7D2FE204646
:10295000FFF78DFFFFF712FF2846FFF788FFFFF70D
:102960000DFFFFF7C6FE611CC8B2FFF780FFFFF73F
:1029700005FF0020FFF7B1FF0646FFF7DCFE3046FB
:1029800070BD2DE9F04106460C460027FFF7B1FE69
:102990003046FFF76CFFFFF7F1FE2012FFF767FFED
:1029A000FFF7ECFE2546E11704EB11610912A4EBD9
:1029B0000121C8B2FFF75BFFFFF7E0FEFFF799FECA
:1029C000711CC8B2FFF753FFFFF7D8FE0020FFF7D6
:1029D00084FF0746FFF7AFFE3846BDE8F08170B5CB
:1029E00005460C46FFF785FE2846FFF740FFFFF738
:1029F000C5FE2046FFF73BFFFFF7C0FEFFF79BFE3B
:102A00000A20FFF730FE70BD70B506460C4615462D
:102A1000FFF76FFE3046FFF72AFFFFF7AFFE2046B5
:102A2000FFF725FFFFF7AAFE2846FFF720FFFFF775
:102A3000A5FEFFF780FE0A20FFF715FE70BD2DE909
:102A4000F04107460C461646FFF753FE3846FFF79F
:102A50000EFFFFF793FE2012FFF709FFFFF78EFE30
:102A60002546E11704EB11610912A4EB0121C8B25C
:102A7000FFF7FDFEFFF782FE3046FFF7F8FEFFF797
:102A80007DFEFFF758FE0A20FFF7EDFDBDE8F0815F
:102A90002DE9F05F80460C4616461F46DDE90BAB7C
:102AA000DDF82890FFF725FE4046FFF7E0FEFFF730
:102AB00065FE2012FFF7DBFEFFF760FE2546E117FB
:102AC00004EB11610912A4EB0121C8B2FFF7CFFE9C
:102AD000FFF754FE3046FFF7CAFE07E0000C014046
:102AE00000140140AC81224200802242FFF746FEE2
:102AF0003846FFF7BCFEFFF741FE4846FFF7B7FE3A
:102B0000FFF73CFE5046FFF7B2FEFFF737FE584690
:102B1000FFF7ADFEFFF732FE0D98FFF7A8FEFFF7B7
:102B20002DFEFFF708FE0A20FFF79DFDBDE8F09F90
:102B30002DE9F04104460D4600260027FFF7D9FD98
:102B40002046FFF794FEFFF719FEE8B2FFF78FFE6D
:102B5000FFF714FEFFF7CDFD611CC8B2FFF787FE3B
:102B6000FFF70CFE0A20FFF77EFD0020FFF7B5FE01
:102B70000646FFF7E0FDFFF7BCFD2046FFF777FEB6
:102B8000FFF7FCFD691CC8B2FFF771FEFFF7F6FD09
:102B9000FFF7AFFD611CC8B2FFF769FEFFF7EEFD5E
:102BA0000A20FFF760FD0020FFF797FE07464FF66B
:102BB000FF7000EA0727FFF7BEFDF01986B20A2072
:102BC000FFF751FD3046BDE8F08110B54FF4A0602D
:102BD000FDF70CFC10BD000010B586B004461E22A7
:102BE0003F49404800F0EBF901211020FEF7B0F911
:102BF0000121C804FEF7B9F94FF48060ADF8140064
:102C000003208DF8160018208DF8170005A9364806
:102C1000FDF7E2FE4FF40060ADF8140004208DF8DB
:102C2000170005A93048FDF7D7FE34208DF80000C5
:102C300003208DF8010000208DF8020001208DF89E
:102C400003006846FDF7D7FB01940020ADF80800AB
:102C5000ADF80A00ADF80C00ADF810000C20ADF88E
:102C60000E0001A92148FFF7AEFA012240F22551DA
:102C70001E48FFF740FB01211C48FFF730FB06B060
:102C800010BD10B540F225511848FFF719FC78B176
:102C900040F225511548FFF73DFC1448FFF790FB23
:102CA000C4B21048214602699047032000F0FFF9A2
:102CB00010BD70B506460C4615460BE014F8011B16
:102CC0003046FFF779FB00BF40213046FFF7E2FBBB
:102CD0000028F9D0281EA5F101018DB2EED170BDFA
:102CE000BC0000209800002000100140004C004073
:102CF00000B587B001214FF40470FEF729F94FF4B5
:102D00000040FEF789F80F20ADF8040000208DF890
:102D1000070001A92E48FDF75FFE2E48FDF7D4FB02
:102D2000002002908DF80C008DF80D004FF460200B
:102D300004900020059001208DF8180002A9254874
:102D4000FDF7E9FB01212348FDF711FC2148FDF7C0
:102D500030FC00BF1F48FDF731FC0028FAD11D48A8
:102D6000FDF736FC00BF1B48FDF737FC0028FAD101
:102D700007B000BD10B504460723012221461548BF
:102D8000FDF761FC01211348FDF731FC00BF022172
:102D90001048FDF79DFD0028F9D00E48FDF7BAFC5C
:102DA00010BD2DE9F04107460C460025002608E03D
:102DB0003846FFF7DFFF05440120FFF754FC701C85
:102DC000C6B2A642F4DBB5FBF4F080B2BDE8F081F8
:102DD000001001400024014000B585B00121C80366
:102DE000FEF7C3F80020ADF800004FF48270ADF894
:102DF00002000020ADF804000220ADF8060001201A
:102E0000ADF808004002ADF80A003820ADF80C001B
:102E10000020ADF80E000720ADF8100069461848F4
:102E2000FEF720F901211648FEF7C1F905B000BDF3
:102E300070B50546002405E0601CC4B2C82C01DD55
:102E4000002070BD02210E48FEF735FA0028F3D0AD
:102E500029460B48FEF7DCF9002405E0601CC4B2EB
:102E6000C82C01DD0020ECE701210548FEF723FA1C
:102E70000028F3D00248FEF7CDF9C0B2E1E7000028
:102E8000003C00400A68C3689A4203D20A68521C98
:102E90000A6001E082680A60704770B504460D461A
:102EA000606818B9A068606020600BE0211D2046B2
:102EB000FFF7E8FFD4E90010884203D121462046FD
:102EC000FFF7E0FF6068057070BD2DE9F041044632
:102ED0000F4615464FF000082046216A8847A84251
:102EE00019DB002614E0206802784046411C0FFAE6
:102EF00081F83A54D4E90001884203D100202060CF
:102F0000606007E021462046FFF7BCFF701C06B258
:102F1000AE42E8DB00BF4046BDE8F08170B5044634
:102F20000E462046216A8847B04203DA2046A1694E
:102F300088471AE0A0882189401A401C85B2B54212
:102F400006DB6168491B481C294601F091F90BE03A
:102F50002946A06801F08CF9701B85B2E168491B15
:102F6000481C294601F084F900BF70BD10B5014628
:102F70000A680AB9002012E0D1E900329A4205D36A
:102F80008A880B88D21A521C90B208E08A890B8971
:102F9000D21A0B888C881B1BD21A921C90B210BDBF
:102FA00070B50446A0892189401A401C85B2294683
:102FB000A06801F05DF900202060606070BD30B550
:102FC00081608B185B1EC360002303604360002494
:102FD000531E8568EC54AFF23D130361044B43610B
:102FE000044B8361044BC361044B036230BD00009A
:102FF000CB2E0008A12F00081D2F00086D2F000800
:103000001FB501210220FDF7B0FF40F2F310ADF82B
:10301000080041F61F40ADF804000020ADF80A009A
:10302000ADF8060001A92D48FEF750FA1D208DF8D5
:10303000000006208DF8010000208DF8020001201C
:103040008DF803006846FDF7D6F901212348FFF704
:1030500073F8012211462148FEF7AFFD1FBD02287B
:1030600007D10021420791844107098821F001011D
:103070001180032809D10021184A243211801749F0
:10308000098821F00101154A1180704710B501210E
:103090001248FFF740F848B101211048FFF74CF8FB
:1030A0000320FFF7DCFF01200D49087010BD022846
:1030B00007D10021420791844107098841F00101AD
:1030C0001180032809D10021044A243211800349C8
:1030D000098841F00101014A118070470004004055
:1030E0002E00002070B505460E466E48845D002D0A
:1030F00067D184B90021012000F0BAFA0021032031
:1031000000F0B6FA0021052000F0B2FA00210720F5
:1031100000F0AEFAC5E0002C12DD202C10DC2146B8
:10312000012000F0A5FA0021032000F0A1FA0021FF
:10313000052000F09DFA0021072000F099FAB0E088
:10314000202C14DD402C12DC0021012000F090FA2C
:10315000A4F1200081B2032000F08AFA00210520AA
:1031600000F086FA0021072000F082FA99E0402C56
:1031700014DD602C12DC0021012000F079FA00211E
:10318000032000F075FAA4F1400081B2052000F0A0
:103190006FFA0021072000F06BFA82E00021012085
:1031A00000F066FA0021032000F062FA00210520F9
:1031B00000F05EFAA4F1600081B2072000F058FA36
:1031C0006FE0012D67D184B90021022000F050FA90
:1031D0000021042000F04CFA0021062000F048FAFB
:1031E0000021082000F044FA5BE0002C12DD202CC6
:1031F00010DC2146022000F03BFA0021042000F000
:1032000037FA0021062000F033FA0021082000F0F0
:103210002FFA46E0202C14DD402C12DC0021022085
:1032200000F026FAA4F1200081B2042000F020FA78
:103230000021062000F01CFA0021082000F018FAF6
:103240002FE0402C14DD602C12DC0021022000F065
:103250000FFA0021042000F00BFAA4F1400081B223
:10326000062000F005FA0021082000F001FA18E01D
:103270000021022000F0FCF90021042000F0F8F900
:103280000021062000F0F4F9A4F1600081B20820CA
:1032900000F0EEF905E0022D03D102210A2000F032
:1032A000E7F970BD2F00002008B501217D20FDF752
:1032B0004FFE01215D48FDF760FC48F21F00ADF8AC
:1032C000000010208DF8030003208DF802006946ED
:1032D0005748FDF781FB48F21F015548FDF72BFCCD
:1032E0004FF48070ADF8000004208DF803006946AB
:1032F0004F48FDF771FB40F64470ADF80000102018
:103300008DF8030003208DF8020069464948FDF757
:1033100063FB40F644714748FDF70DFC0320ADF810
:10332000000004208DF8030069464248FDF754FB75
:103330008020ADF8000048208DF8030069463D4824
:10334000FDF74AFB80213B48FDF7F3FB3820ADF841
:10335000000018208DF8030003208DF80200694654
:103360003448FDF739FB38213248FDF7E2FB4FF4D2
:103370007040ADF8000010208DF8030003208DF898
:10338000020069462C48FDF727FB4FF470412A489C
:10339000FDF7D1FB4FF47C70ADF8000004208DF8F0
:1033A000030069462448FDF717FB41F67F40ADF85E
:1033B000000010208DF8030003208DF802006946FC
:1033C0001E48FDF709FB41F67F411C48FDF7B3FBA2
:1033D0004FF46040ADF8000004208DF8030069460A
:1033E0001648FDF7F9FA8020ADF8000048208DF866
:1033F000030069461148FDF7EFFA80210F48FDF7F9
:1034000098FB4FF6FF70ADF8000010208DF8030018
:1034100003208DF8020069460948FDF7DDFA4FF6F2
:10342000FF710748FDF787FB08BD00000002300070
:1034300000080140000C0140001001400014014050
:103440000018014070B50446002524E0202185487D
:10345000FDF771FB04F0800020B140218148FDF7A9
:1034600068FB03E040217F48FDF765FB6006040E22
:103470000A20FFF7D4F820217A48FDF75AFB0A20EA
:10348000FFF7CDF820217748FDF755FB0A20FFF71D
:10349000C6F8681CC5B2082DD8DB70BD10B504464F
:1034A00080217048FDF745FB0120FFF7DCF8F8208C
:1034B000FFF7C8FF04F0F000FFF7C4FFF02101EAB6
:1034C0000410FFF7BFFF80216648FDF734FB0220A0
:1034D000FFF7C9F810BD10B5044680216148FDF71B
:1034E00028FB0120FFF7BFF8FA20FFF7ABFF04F03D
:1034F000F000FFF7A7FFF02101EA0410FFF7A2FF99
:1035000080215848FDF717FB0220FFF7ACF810BDEB
:1035100008B501210820FDF71BFDE820ADF80000EB
:1035200010208DF8030003208DF8020069464D48F5
:10353000FDF752FAE8214C48FDF7FDFA0821494809
:10354000FDF7F7FA08BD10B56420FFF78CF8FFF718
:10355000DFFF3020FFF7A2FF0C20FFF79FFF0120C5
:10356000FFF79CFF1420FFF77EF80620FFF796FF79
:1035700010BD10B500243020FFF790FF8020FFF72A
:103580008DFF00BF04E02020FFF7A5FF601CC4B240
:10359000402CF8DB10BD70B5044600250026302015
:1035A000FFF77CFF34B1012C06D0022C06D0032C8F
:1035B00008D105E0802605E0902603E0882601E09A
:1035C000982600BF00BF3046FFF768FF002504E0E3
:1035D0002020FFF780FF681CC5B2102DF8DB70BDFE
:1035E00070B505460E4614463020FFF757FF0821F8
:1035F00001FB05611D4A505CFFF750FF18E0082EE3
:1036000002D10026681CC5B2042D00D10025082176
:1036100001FB0561154A505CFFF740FF2078FFF77A
:103620005AFF641C2078FFF756FF641C701CC6B25A
:1036300020780028E3D170BD30B502460020002379
:1036400000BF0A24B1FBF4F504FB1513B1FBF4F140
:1036500003F1300402F8014B441CE0B20029F0D120
:1036600030BD000000080140000C01407A43000812
:1036700070B506460D46012E2CD1C5F1200085B24D
:10368000002419E0AC4205D14FF48071FC48FDF7ED
:1036900052FA04E04FF48071F948FDF74AFA8021AC
:1036A000F748FDF748FA2820FEF7B9FF8021F448D3
:1036B000FDF73FFA601CC4B2202CE3DB0421F14883
:1036C000FDF739FA2820FEF7AAFF0421ED48FDF79F
:1036D00030FAB1E1022E30D1C5F1200085B20024CC
:1036E0001BE0AC4205D14FF40061E548FDF723FA39
:1036F00004E04FF40061E248FDF71BFA4FF48061EB
:10370000DF48FDF718FA2820FEF789FF4FF48061A3
:10371000DB48FDF70EFA601CC4B2202CE1DB4FF44D
:103720000071D748FDF707FA2820FEF778FF4FF41D
:103730000071D348FDF7FDF97EE1032E2CD1C5F1D0
:10374000200085B2002417E0AC4204D10221CE480B
:10375000FDF7F1F903E00221CB48FDF7EAF9012179
:10376000C948FDF7E8F92820FEF759FF0121C648AE
:10377000FDF7DFF9601CC4B2202CE5DB4FF480516B
:10378000C248FDF7D8F92820FEF749FF4FF48051D1
:10379000BE48FDF7CEF94FE1042E2AD1C5F1200035
:1037A00085B2002417E0AC4204D11021B648FDF7E1
:1037B000C2F903E01021B448FDF7BBF90821B24873
:1037C000FDF7B9F92820FEF72AFF0821AE48FDF7DA
:1037D000B0F9601CC4B2202CE5DB0421AA48FDF737
:1037E000AAF92820FEF71BFF0421A748FDF7A1F93D
:1037F00022E1052E2ED1C5F1200085B200241BE068
:10380000AC4205D14FF400719E48FDF794F904E0F5
:103810004FF400719B48FDF78CF94FF48071994883
:10382000FDF789F92820FEF7FAFE4FF480719548DC
:10383000FDF77FF9601CC4B2202CE1DB2021924807
:10384000FDF779F92820FEF7EAFE20218E48FDF7E2
:1038500070F9F1E0062E2AD1C5F1200085B20024CE
:1038600017E0AC4204D104218548FDF764F903E078
:1038700004218348FDF75DF902218148FDF75BF9DA
:103880002820FEF7CCFE02217D48FDF752F9601C8E
:10389000C4B2202CE5DB01217948FDF74CF9282042
:1038A000FEF7BDFE01217648FDF743F9C4E0072E7F
:1038B00030D1C5F1200085B200241BE0AC4205D117
:1038C0004FF400417148FDF736F904E04FF4004130
:1038D0006E48FDF72EF94FF480416C48FDF72BF947
:1038E0002820FEF79CFE4FF480416848FDF721F93F
:1038F000601CC4B2202CE1DB4FF400516348FDF79B
:103900001AF92820FEF78BFE4FF400515F48FDF7AF
:1039100010F991E0082E2AD1C5F1200085B20024CB
:1039200017E0AC4204D104215948FDF704F903E043
:1039300004215748FDF7FDF802215548FDF7FBF833
:103940002820FEF76CFE02215148FDF7F2F8601CBA
:10395000C4B2202CE5DB01214D48FDF7ECF828200E
:10396000FEF75DFE01214A48FDF7E3F864E0092E09
:1039700030D100241EE005FA04F000F0800028B1E8
:103980004FF400413E48FDF7D4F804E04FF4004105
:103990003B48FDF7D0F84FF400613A48FDF7CBF80B
:1039A0002820FEF73CFE4FF400613648FDF7C1F8D1
:1039B000601CC4B2082CDEDB4FF480613148FDF797
:1039C000BAF82820FEF72BFE4FF480612D48FDF752
:1039D000B0F831E00A2E2FD100241EE005FA04F0E1
:1039E00000F0800028B14FF480612748FDF7A3F86C
:1039F00004E04FF480612448FDF79BF84FF48051B8
:103A00002148FDF798F82820FEF709FE4FF4805171
:103A10001D48FDF78EF8601CC4B2082CDEDB4FF4A5
:103A200000611948FDF787F82820FEF7F8FD4FF4EC
:103A300000611548FDF77DF870BD10B5002101202B
:103A4000FFF716FE00210220FFF712FE00210320DF
:103A5000FFF70EFE00210420FFF70AFE00210520DB
:103A6000FFF706FE00210620FFF702FE00210720D7
:103A7000FFF7FEFD00210820FFF7FAFD10BD000052
:103A800000180140000C01400014014000100140EA
:103A90000008014010B504462CB94FF400511D48F0
:103AA000FDF72DF810BD012C04D1A1031948FDF735
:103AB00026F8F7E7022C04D1A1031648FDF71FF8FA
:103AC000F0E7032C04D140211348FDF718F8E9E78B
:103AD000042C04D180211048FDF711F8E2E7052CF1
:103AE00005D14FF480710C48FDF709F8DAE7062C90
:103AF00005D14FF400710848FDF701F8D2E7072C13
:103B000005D14FF480710548FCF7F9FFCAE700BF03
:103B1000C8E7000000140140001001400008014007
:103B200070B504460D46012D05D17148007820433B
:103B30006F49087004E06E48007820406C490870B6
:103B40006B4801780920FFF793FD70BD10B504465E
:103B500021460A20FFF78CFD10BD10B50446012C4C
:103B600004D101036348FCF7E4FF35E0042C04D1E1
:103B7000A1026048FCF7DFFF2EE0022C04D12103F4
:103B80005C48FCF7D6FF27E0052C05D14FF4005127
:103B90005848FCF7D0FF1FE0032C05D14FF48041BB
:103BA0005448FCF7C6FF17E0062C05D14FF48041BE
:103BB0005048FCF7C0FF0FE074B94FF480514D48F6
:103BC000FCF7B9FF4FF400514A48FCF7B4FF4FF43B
:103BD00080414848FCF7AFFF10BD10B50446012CEA
:103BE00014D108214348FCF7A4FF10214148FCF7F9
:103BF000A2FF20213F48FCF79EFF40213D48FCF7F3
:103C00009AFF10213C48FCF796FF70E0022C14D17B
:103C100010213848FCF78DFF08213648FCF78BFF50
:103C200020213448FCF787FF40213248FCF783FF0E
:103C300010213148FCF77FFF59E0032C14D12021DB
:103C40002C48FCF776FF08212A48FCF774FF102166
:103C50002848FCF770FF40212648FCF76CFF102134
:103C60002548FCF768FF42E0042C14D1402121488C
:103C7000FCF75FFF08211F48FCF75DFF10211D487E
:103C8000FCF759FF20211B48FCF755FF10211A486B
:103C9000FCF751FF2BE0052C14D110211648FCF73E
:103CA00048FF08211348FCF746FF10211148FCF794
:103CB00042FF20210F48FCF73EFF40210D48FCF752
:103CC0003AFF14E09CB908210A48FCF734FF1021A0
:103CD0000848FCF730FF20210648FCF72CFF402164
:103CE0000448FCF728FF10210348FCF724FF10BD0F
:103CF00090000020001801400008014010B540214C
:103D00005348FCF716FF40215248FCF712FF10BD44
:103D100070B50446002524B940214D48FCF70BFF3F
:103D200003E040214B48FCF706FF0120FEF79BFC17
:103D3000002507E0FF20FFF77BF86420FEF76FFC0B
:103D4000681CC5B2642DF5DB0120FEF78CFC202039
:103D5000FFF76EF84FF49670FEF761FC0C20FFF74A
:103D600067F84FF49670FEF75AFC1020FFF760F8E2
:103D70004FF49670FEF753FC4020FFF759F84FF4CC
:103D80009670FEF74CFC2120FFF752F84FF4967026
:103D9000FEF745FC0C20FFF74BF84FF49670FEF74A
:103DA0003EFC1120FFF744F84FF49670FEF737FC05
:103DB0004020FFF73DF84FF49670FEF730FC24B931
:103DC00040212348FCF7B5FE03E040212148FCF7E1
:103DD000B0FE70BD70B505460E46002400BF8021C0
:103DE0001B48FCF78CFE0028F9D10120FEF73BFCB4
:103DF00025B940211648FCF79EFE03E040211548F6
:103E0000FCF799FE0120FEF72EFC1EB93820FFF7C3
:103E10000FF802E03920FFF70BF86420FEF723FCCF
:103E2000FF20FFF705F804434FF6FF7000EA042473
:103E3000FF20FEF7FDFF044325B940210448FCF7AD
:103E400078FE03E040210348FCF773FE204670BD76
:103E500000140140000C014030B503460C46002020
:103E6000002105E0655C9D4200D101204D1CE9B2B6
:103E70009142F7DB30BD10B50020FFF70BFE40B1DB
:103E80000A20FEF7F0FB0020FFF704FE08B1102027
:103E900010BD0020FCE7704770472DE9F041054652
:103EA0000024002600270320FFF797FE012413E0DB
:103EB00021460020FFF716F90B2000F0CBF907464A
:103EC000B7F5FA7F03D205F8014B701CC6B2642027
:103ED000FEF7A5FB601CC4B2612CE9DB0020FFF7F4
:103EE0007CFE3046BDE8F08170B50025002400F06E
:103EF0007BF901212020FFF713FE01211020FFF79D
:103F00000FFE1DE00220FFF7C5FD00B119E0032000
:103F1000FFF7C0FD50B100F05DF90021DF20FFF791
:103F2000FFFD0021EF20FFF7FBFD70BD2846691C57
:103F30008DB2B0F5FA6F00DD03E00120FEF793FBD0
:103F4000E0E700BF01210820FFF7EAFD0020184943
:103F5000087018490880FFF79EFFFFF79DFF0021BA
:103F6000F720FFF7DDFD6420FEF77DFB0021EF2049
:103F7000FFF7D6FD6420FEF776FB0021DF20FFF778
:103F8000CFFD00240AE00C4800EBC400807818B193
:103F900001200749087005E0601C84B205480088CC
:103FA0008442F0DB00BF00F07CF800BFBDE70000FA
:103FB00092000020940000209411002010B50024ED
:103FC0000120FFF767FD012815D10A20FEF74BFB02
:103FD00004E0601C84B20120FEF745FB0120FFF7DE
:103FE00059FD0128F5D040F2DC50844201DD31203A
:103FF00010BD3020FCE70020FAE71CB50446002085
:1040000000900190FFF7C7FA0120FFF7C4FA0220E1
:10401000FFF7C1FA79A200210846FFF7E1FA0A2169
:104020006846FFF709FB6A4603210020FFF7D8FA2C
:1040300000200090019073A200210120FFF7D0FA28
:1040400021216846FFF7F8FA6A4603210120FFF7AD
:10405000C7FA0020009001906CA200210220FFF717
:10406000BFFA40F221216846FFF7E6FA6A460321CB
:104070000220FFF7B5FA1CBD704710B50120FFF70D
:104080008AFA64A203210120FFF7AAFA10BD10B535
:104090000120FFF780FA61A203210120FFF7A0FAB7
:1040A00010BD10B55F480078FF2802D1FFF7EFFF81
:1040B00001E0FFF7E2FF00205B49087010BD2DE929
:1040C000F043A3B04FF0000800260024A1460027CB
:1040D000002558210DA800F0EDF800200C902C21AF
:1040E00001A800F0E7F8514800680090FFF741FA96
:1040F0004FA200210846FFF773FA41E00DA8FFF731
:10410000CCFE81469DF83400002832D000261FE006
:104110000DA8815D0CA8FFF78FFA0746002409E07F
:104120002819C5B2381B401E0CA9085C0DF8050003
:10413000601CC4B2BC42F3DB2021681CC0B205463F
:104140000DF80010681CC5B200200C90701CC6B29F
:104150004E45DDDB6A4600210120FFF741FA0025CC
:1041600020223021684600F07BF858210DA800F08D
:10417000A1F8FFF723FF8046B8F1300F00D100E02F
:10418000BCE700BF23B0BDE8F08310B50024FFF703
:1041900015FF0446302C02D0312C18D114E02148F0
:1041A000007880B120480078FFF727FF1E4801788B
:1041B0000078401C1C4A10701F480088814202DDB4
:1041C00000201146087003E0FFF779FF00E000BF10
:1041D00000BF10BD10B50120FFF7DDF917A20221C5
:1041E0000120FFF7FDF910BD10B50120FFF7D3F94D
:1041F00015A202210120FFF7F3F910BD5450313A06
:10420000000000005450323A000000004461746124
:104210003A0000004661696C000000005061737351
:104220000000000092000020960000209C4300083F
:10423000D5D2B5E3A3BA000094000020D7BCB1B832
:10424000B2E2CAD400000000B2E2CAD4D6D02E2E08
:104250000000000010B504462046FEF78BFD10BD9F
:1042600002F0FF0343EA032242EA024200F002B8EE
:104270004FF000020429C0F0128010F0030C00F08F
:104280001B80CCF1040CBCF1020F18BF00F8012B0D
:10429000A8BF20F8022BA1EB0C0100F00DB85FEADB
:1042A000C17C24BF00F8012B00F8012B48BF00F8A7
:1042B000012B70474FF0000200B513469446964616
:1042C000203922BFA0E80C50A0E80C50B1F1200129
:1042D000BFF4F7AF090728BFA0E80C5048BF0CC0D7
:1042E0005DF804EB890028BF40F8042B08BF704735
:1042F00048BF20F8022B11F0804F18BF00F8012BA7
:104300007047704770477047754600F02BF8AE460F
:1043100005006946534620F00700854618B020B5D1
:10432000FBF762FFBDE820404FF000064FF00007AA
:104330004FF000084FF0000B21F00701AC46ACE84D
:10434000C009ACE8C009ACE8C009ACE8C0098D46BA
:10435000704710B50446AFF300802046BDE810401A
:10436000FBF72DBF00487047D430002001491820CA
:10437000ABBEFEE726000200704780818283848501
:104380008687909192939495969788898A8B8C8D45
:104390008E8F98999A9B9C9D9E9F00002000000004
:1043A000C043000800000020980000006C010008D5
:1043B0005844000898000020A0360000880100083A
:1043C00000A24A04000000000000000001020304F3
:1043D00006070809000000000102030401020304AB
:1043E000060708090204060800000000000000009B
:1043F0000102030405060708090A0B0C0D0E0F1035
:104400001112131415161718191A1B1C1D1E1F2024
:104410002122232425262728292A2B2C2D2E2F3014
:104420003132333435363738393A3B3C3D3E3F4004
:104430004142434445464748494A4B4C4D4E4F50F4
:104440005152535455565758595A5B5C5D5E5F60E4
:08445000000000000000000064
:0400000508000131BD
:00000001FF
