:020000040800F2
:1000000048380020CD01000881140008831400083E
:10001000871400088B1400088F14000800000000EB
:100020000000000000000000000000009314000821
:1000300095140008000000009714000899140008A7
:10004000E7010008E7010008E7010008E7010008F0
:10005000E7010008E7010008E7010008E7010008E0
:10006000E7010008E7010008E7010008E7010008D0
:10007000E7010008E7010008E7010008E7010008C0
:10008000E7010008E7010008E7010008E7010008B0
:10009000E7010008E7010008E7010008E7010008A0
:1000A000E7010008E7010008E7010008E701000890
:1000B000E7010008E7010008E7010008E701000880
:1000C000E7010008E7010008E7010008E701000870
:1000D000E7010008AF1B0008E7010008E70100087E
:1000E000E7010008E7010008E7010008E701000850
:1000F000E7010008E7010008E7010008E701000840
:10010000E7010008E7010008E7010008E70100082F
:10011000E7010008E7010008E7010008E70100081F
:10012000E7010008E7010008E7010008E70100080F
:1001300000F002F800F03AF80AA090E8000C8244BF
:100140008344AAF10107DA4501D100F02FF8AFF29C
:10015000090EBAE80F0013F0010F18BFFB1A43F0A5
:1001600001031847DC290000FC290000103A24BFD5
:1001700078C878C1FAD8520724BF30C830C144BF0C
:1001800004680C607047000000230024002500264E
:10019000103A28BF78C1FBD8520728BF30C148BFEA
:1001A0000B6070471FB51FBD10B510BD02F07DFC80
:1001B0001146FFF7F7FF01F033F902F09BFC03B49F
:1001C000FFF7F2FF03BC02F0A3FC000009488047E0
:1001D00009480047FEE7FEE7FEE7FEE7FEE7FEE729
:1001E000FEE7FEE7FEE7FEE704480549054A064B41
:1001F00070470000EB02000831010008483200207F
:100200004838002048340020483400200CB5002035
:10021000019000906C48006840F480306A490860A2
:1002200000BF6948006800F4003000900198401C4D
:100230000190009818B90198B0F5A06FF1D162480B
:10024000006800F4003010B10120009001E00020AF
:1002500000900098012843D15C48006840F01000ED
:100260005A4908600846006820F003000860084604
:10027000006840F0020008605348406852494860F6
:100280000846406848600846406840F4806048601E
:100290000846406820F47C1048600846406840F4F6
:1002A000E81048600846006840F08070086000BFB1
:1002B0004548006800F000700028F9D042484068C6
:1002C00020F00300404948600846406840F00200C2
:1002D000486000BF3C48406800F00C000828F9D195
:1002E0000CBD10B5FFF792FF10BD10B53648006881
:1002F00040F001003449086008464068344908402D
:100300003149486008460068324908402E49086073
:100310000846006820F4802008600846406820F401
:10032000FE0048604FF41F008860FFF7DAFF4FF0CF
:1003300000602949086010BD10B50021002000228E
:10034000214B5B6803F00C0121B1042906D0082978
:1003500028D107E0214B224C236027E01F4B204C83
:10036000236023E0184B5B6803F47010164B5B6846
:1003700003F48032022303EB904022B9194B43432C
:10038000174C23600DE0104B5B6803F4003323B17E
:10039000144B4343124C236003E0104B4343104C77
:1003A000236003E00D4B0E4C236000BF00BF064BE3
:1003B0005B68C3F303130C4CE15C094B1B68CB4037
:1003C000074C236010BD00000010024000200240D6
:1003D0000000FFF8FFFFF6FE08ED00E000127A00D3
:1003E0000000002000093D000400002031490143C5
:1003F000314A1160704770B5002100230F22C47884
:1004000004B32D4C246804F4E064C4F5E064210ACC
:10041000C1F10403CA40447804FA03F1847814401B
:1004200021430901254C0678A155047804F01F05E5
:100430000124AC4005786D11AD0005F1E025C5F84B
:10044000004109E0047804F01F050124AC401C4D74
:100450000678761145F8264070BD1A4A0A400243D4
:10046000154B1B1F1A60704739B1134A121D1268D1
:100470000243114B1B1D1A6006E00F4A121D126841
:1004800082430D4B1B1D1A607047042808D14FF0A2
:10049000E021096941F004014FF0E022116107E019
:1004A0004FF0E021096921F004014FF0E0221161D1
:1004B000704700000000FA050CED00E000E400E0E9
:1004C00080E100E080FFFF1F10B50446FA48844237
:1004D00008D10121401500F055FD0021601500F004
:1004E00051FD17E0F548844208D10121001500F0C4
:1004F00049FD0021201500F045FD0BE0F048844245
:1005000008D10121C80300F03DFD00214FF4004057
:1005100000F038FD10BD30B50246002000235068C1
:10052000E84C20400D790C6844EA052420435060D3
:100530009068E54C2040D1E902542C434D7944EABF
:10054000450420439060D06A20F470000C7C641E47
:10055000E4B2234340EA0350D06230BD0021016081
:10056000017141718160C16001210174704721B145
:10057000826842F00102826003E0826822F0010298
:100580008260704721B1826842F48072826003E029
:10059000826822F480728260704710B50023CBB26B
:1005A0001AB144681C43446002E044689C434460C0
:1005B00010BD816841F0080181607047014600204C
:1005C0008A6802F008020AB1012000E000207047AA
:1005D000816841F0040181607047014600208A680B
:1005E00002F004020AB1012000E00020704721B1AE
:1005F000826842F4A002826003E0826822F4A002D2
:1006000082607047014600208A6802F480020AB1C5
:10061000012000E00020704710B50A4600210023A9
:10062000416821F46041531E41EA4331416010BDED
:1006300021B1426842F40062426003E0426822F461
:10064000006242607047F0B504460D46002000216C
:10065000092D11DDE068A5F10A0606EB460707261D
:1006600006FA07F18843A5F10A0606EB460603FAE7
:1006700006F10843E0600CE0206905EB450707261A
:1006800006FA07F1884305EB450603FA06F108432D
:100690002061072A0FDA606B561E06EB86071F26BD
:1006A00006FA07F18843561E06EB860605FA06F1A0
:1006B0000843606322E00D2A0FDA206BD61F06EB99
:1006C00086071F2606FA07F18843D61F06EB860623
:1006D00005FA06F10843206310E0E06AA2F10D0676
:1006E00006EB86071F2606FA07F18843A2F10D06DE
:1006F00006EB860605FA06F10843E062F0BD21B17B
:10070000826842F48012826003E0826822F48012E0
:10071000826070470146C86C80B2704766484C30B2
:100720000068704721B1426842F48062426003E091
:10073000426822F480624260704721B1426842F40C
:100740008052426003E0426822F480524260704767
:100750000A460021816821F4E0411143816070471D
:1007600021B1826842F40042826003E0826822F490
:1007700000428260704721B1826842F402128260B6
:1007800003E0826822F40212826070470146002072
:100790008A6802F400120AB1012000E000207047CC
:1007A000F0B504461546002000220026092911DD77
:1007B000E068A1F10A0707EB470C072707FA0CF2DC
:1007C0009043A1F10A0707EB470703FA07F210432A
:1007D000E0600CE0206901EB410C072707FA0CF2FE
:1007E000904301EB410703FA07F210432061A06B2D
:1007F000C0F30156EF1C06F1010CA7EB0C0707EB49
:10080000870C1F2707FA0CF29043EF1C06F1010C2E
:10081000A7EB0C0707EB870701FA07F21043A06369
:10082000F0BD10B50A4600210023816B21F4401170
:10083000531E41EA0351816310BD08B500230093A4
:100840000090009B0B440093009B1A6008BD08B504
:10085000024600200090009201F12800009B1844FD
:1008600000900098006880B208BD0A4600214168E7
:10087000164B1940114341607047416282627047D4
:100880000A460021416821F01F0111434160704771
:1008900040B109490831096841F40001064A0832AB
:1008A000116007E004490831096821F40001024A97
:1008B0000832116070470000002401400028014008
:1008C000003C0140FFFEF0FFFDF7F1FFFFFD3FFFA1
:1008D0000246002013680B400BB1012000E000200D
:1008E0007047CA430260704770B50246002000237B
:1008F00000240B125568CEB205EA060415681D40A7
:1009000015B10CB1012000E0002070BD00220A12D8
:10091000D34303607047000010B50446CC488442BE
:1009200008D10121042000F02DFB0021042000F05B
:1009300029FB46E0C748844208D10121082000F085
:1009400021FB0021082000F01DFB3AE0C248844250
:1009500008D10121102000F015FB0021102000F02B
:1009600011FB2EE0BD48844208D10121202000F077
:1009700009FB0021202000F005FB22E0B84884425A
:1009800008D10121402000F0FDFA0021402000F0B4
:10099000F9FA16E0B348844208D10121802000F022
:1009A000F1FA0021802000F0EDFA0AE0AE4884421E
:1009B00007D10121801500F0E5FA0021A01500F013
:1009C000E1FA10BD10B50121084600F0DBFA002164
:1009D000012000F0D7FA10BD2DE9F04102460025B4
:1009E0000026002000230024002791F803C00CF00B
:1009F0000F0591F803C00CF0100CBCF1000F03D0F0
:100A000091F802C04CEA050591F800C0BCF1000F56
:100A100031D0146800202BE04FF0010C0CFA00F3E9
:100A2000B1F800C00CEA03069E4220D183004FF0CB
:100A30000F0C0CFA03F7BC4305FA03FC4CEA040460
:100A400091F803C0BCF1280F06D14FF0010C0CFA4D
:100A500000FCC2F814C00AE091F803C0BCF1480FD2
:100A600005D14FF0010C0CFA00FCC2F810C0401C7C
:100A70000828D1D31460B1F800C0BCF1FF0F34DDF9
:100A8000546800202EE000F1080C4FF0010808FA2D
:100A90000CF3B1F800C00CEA03069E4221D183009A
:100AA0004FF00F0C0CFA03F7BC4305FA03FC4CEAB9
:100AB000040491F803C0BCF1280F05D100F1080C23
:100AC00008FA0CF8C2F8148091F803C0BCF1480F82
:100AD00007D100F1080C4FF0010808FA0CF8C2F831
:100AE0001080401C0828CED35460BDE8F0814FF63A
:100AF000FF710180022181700421C170704702469C
:100B0000002093680B400BB1012000E000207047EB
:100B10000146886880B2704702460020D3680B40C7
:100B20000BB1012000E0002070470146C86880B288
:100B3000704701617047416170470AB1016100E08F
:100B400041617047C16070474FF480320A4382614F
:100B50008161826182698269704702460020434B4D
:100B600018684FF68073184040EA021008433F4B64
:100B7000186070473E49C8617047F0B50A460023C7
:100B800000240021002500F00046B6F1004F02D1FC
:100B9000364EF16901E0354E7168C0F3034583B20A
:100BA00000F44016B6F5401F08D121F070612F4EB9
:100BB000766826F070662D4F7E6012E000F4801695
:100BC000B6F5801F06D1032606FA05F4A14341F0CD
:100BD000706106E0460D360103FA06F6B14341F0B6
:100BE000706122B1460D360103FA06F6314300F07A
:100BF0000046B6F1004F02D11C4EF16101E01B4EE0
:100C00007160F0BD30B500228B071C0F0F2303FA73
:100C100004F2164B08338C1053F824309343134CD2
:100C200008348D1044F8253023468C1053F82430B6
:100C30008C07240F00FA04F423430C4C08348D1065
:100C400044F8253030BD0A49DC31086070470000A7
:100C500000080140000C0140001001400014014058
:100C600000180140001C014000200140000001402C
:100C700000002042DF48006840F00100DD490860C4
:100C800008464068DC490840DA4948600846006880
:100C9000DA490840D74908600846006820F48020F7
:100CA00008600846406820F4FE0048604FF41F00CA
:100CB00088607047CF49096821F48031CD4A1160BE
:100CC0001146096821F480211160B0F5803F03D0FE
:100CD000B0F5802F0ED106E0C649096841F4803195
:100CE000C44A116007E0C349096841F4A021C14A20
:100CF000116000E000BF00BF704710B50146002240
:100D0000002300204A11012A02D1BA4C236806E0D0
:100D1000022A02D1B74C236A01E0B64C636A01F0A3
:100D20001F02012494401C400CB1012000E000206F
:100D300010BD38B5002000900024002500BF3120F0
:100D4000FFF7DBFF05460098401C00900098B0F5C7
:100D5000A06F01D0002DF2D03120FFF7CEFF08B1F7
:100D6000012400E00024204638BD01460020A14AAD
:100D7000106820F0F80040EAC10010607047A049F8
:100D800008607047024600209A4B586820F47C1097
:100D900042EA01031843974B586070479849086628
:100DA000704701460020934A506820F00300084332
:100DB000506070478F48406800F00C007047014653
:100DC00000208C4A506820F0F000084350607047C3
:100DD00001460020874A506820F4E06008435060D4
:100DE000704701460020834A506820F4605040EA72
:100DF000C1005060704729B17E4A527A02437D4B50
:100E00005A7204E07B4A527A82437A4B5A72704794
:100E10007B49D8310860704701460020754A506808
:100E200020F440400843506070470021714A20324E
:100E30001170704A82F82010012802D004280AD1CB
:100E400004E001216B4A2032117005E00521694A56
:100E50002032117000E000BF00BF70476949086090
:100E600070476449096A0143624A116270476549E3
:100E700044390860704730B5002100220024002367
:100E80005C4D6D6805F00C0121B1042905D00829DD
:100E900023D105E05C4D056022E05B4D05601FE05D
:100EA000544D6D6805F47012524D6D6805F4803430
:100EB000022505EB92421CB9544D554305600BE0E9
:100EC0004C4D6D6805F400351DB1504D554305601E
:100ED00002E04D4D5543056002E04B4D056000BFFB
:100EE00000BF444D6D6805F0F0010909484D6B5C89
:100EF0000568DD4045603F4D6D6805F4E061090A15
:100F0000434D6B5C4568DD4085603A4D6D6805F486
:100F10006051C90A3E4D6B5C4568DD40C560354D8A
:100F20006D6805F44041890B3A4D6B5CC568B5FBB3
:100F3000F3F5056130BD29B12E4A526902432D4BAC
:100F40005A6104E02B4A526982432A4B5A61704726
:100F500029B1284A92690243264B9A6104E0254A46
:100F600092698243234B9A61704729B1214AD26921
:100F70000243204BDA6104E01E4AD26982431D4BD2
:100F8000DA61704729B11B4AD2680243194BDA6013
:100F900004E0184AD2688243164BDA60704729B1E0
:100FA000144A12690243134B1A6104E0114A126990
:100FB0008243104B1A6170471249403908607047EC
:100FC0000F49C86470470B49C87170470948406AA7
:100FD00040F0807007494862704701460020054A8A
:100FE00092680A400AB1012000E0002070470149E0
:100FF00088727047001002400000FFF8FFFFF6FE05
:10100000000042428004424200127A0000093D0082
:10101000140000202400002010B50446FB48844240
:1010200009D101218803FFF7ADFF00214FF4804073
:10103000FFF7A8FF32E0F648844209D101214804B5
:10104000FFF7ADFF00214FF40030FFF7A8FF25E0C8
:10105000F048844209D101218804FFF7A0FF002154
:101060004FF48020FFF79BFF18E0EB48844209D142
:101070000121C804FFF793FF00214FF40020FFF780
:101080008EFF0BE0E548844208D101210805FFF7F7
:1010900086FF00214FF48010FFF781FF10BD2DE97E
:1010A000F04786B005460E460024A24600BFA14682
:1010B0000027B08900B100BF2F462C8A4CF6FF7084
:1010C0000440F08804432C82AC894EF6F3100440AF
:1010D000B08831890843718908430443AC81AC8AE4
:1010E0004FF6FF400440B0890443AC8201A8FFF7EB
:1010F000C2FEC648874202D1DDF810A001E0DDF84B
:101100000CA0A88900F4004040B10AEBCA0000EB33
:101110000A1031684900B0FBF1F807E00AEBCA0099
:1011200000EB0A1031688900B0FBF1F86420B8FBCD
:10113000F0F004012009642101FB1089A88900F462
:10114000004040B1322000EBC900B0FBF1F000F0EC
:101150000700044308E0322000EB09106421B0FBD3
:10116000F1F000F00F0004432C8106B0BDE8F087D9
:101170004FF41651016000218180C18001810C2152
:10118000418100218181704710B502460020108AFC
:101190004FF2FF0318400B884C8823438C8823436D
:1011A000CC8823431843108210BD00210180418068
:1011B0008180C180704721B1828942F400528281CE
:1011C00004E082894DF6FF731A4082817047F0B5C2
:1011D0000346002400260025002040F66A17B94285
:1011E00000D100BF1846C1F3421401F01F060127C9
:1011F00007FA06F5012C01D10C3004E0022C01D1D4
:10120000103000E014301AB107682F43076002E085
:101210000768AF430760F0BD1AB1838A0B4383822E
:1012200002E0838A8B4383827047028A4FF6F07311
:101230001A400282028A0A430282704782894FF270
:10124000FF731A40828182890A438281704721B1EB
:10125000828942F00202828104E082894FF6FD73A6
:101260001A4082817047028A4FF6DF731A40028269
:10127000028A0A430282704721B1028A42F4804204
:10128000028204E0028A4BF6FF731A400282704722
:10129000C1F308028280704701468888C0F30800C5
:1012A0007047818941F0010181817047028BD2B280
:1012B0000283028B42EA012202837047028B02F40E
:1012C0007F420283028B0A430283704721B1828AE4
:1012D00042F02002828204E0828A4FF6DF731A40D5
:1012E0008282704721B1828A42F01002828204E039
:1012F000828A4FF6EF731A408282704721B1828A48
:1013000042F00802828204E0828A4FF6F7731A40A4
:101310008282704721B1828942F40042828103E0D7
:101320008289C2F30E028281704721B1828A42F41F
:101330000062828204E0828A4FF2FF731A40828246
:101340007047828A4FF6FB731A408282828A0A4370
:101350008282704721B1828A42F00202828204E0D6
:10136000828A4FF6FD731A4082827047024600203F
:10137000B1F5007F00D100BF13880B400BB10120F5
:1013800000E00020704701F40072B2F5007F00D148
:1013900000BFCA430280704770B502460024002394
:1013A0000025002040F66A16B14200D100BFC1F30B
:1013B000421501F01F03012606FA03F3012D02D1A5
:1013C0009689334006E0022D02D1168A334001E0AF
:1013D000968A33400C12012606FA04F4168834402B
:1013E00013B10CB1012000E0002070BD10B5002247
:1013F000002340F66A14A14200D100BF0A12012462
:101400009440A3B2DC43048010BD000000380140CA
:101410000044004000480040004C004000500040A4
:1014200000F01EF801F05FFA16E00C48007810B1E9
:1014300001280FD108E001F031FA00F04CFF10B1A3
:1014400001200649087006E001F0D0F801200349A8
:10145000087000E000BF00BFE7E7000028000020A0
:1014600010B500F01BF800F008FB00F08DFD00F057
:101470007FF800F0BBFB00F05BFC00F07AFE10BDD3
:10148000704700BFFEE700BFFEE700BFFEE700BFFA
:10149000FEE77047704770477047000010B56FF067
:1014A0000400FEF7F2FF2E4800682E49B0FBF1F071
:1014B0002D4908700846007800EB4001C1EBC010D0
:1014C0004FF6FF7101EAC0002849088010BD0146AF
:1014D000254A12784A434FF0E0235A6100229A616C
:1014E0001A46126942F001021A6100BF4FF0E02271
:1014F000106900F001021AB100F48032002AF5D020
:101500004FF0E022126922F001024FF0E0231A614D
:1015100000229A6170470146144A12884A434FF0EC
:10152000E0235A6100229A611A46126942F00102D0
:101530001A6100BF4FF0E022106900F001021AB1F9
:1015400000F48032002AF5D04FF0E022126922F038
:1015500001024FF0E0231A6100229A6170470000F7
:101560000000002000127A002A0000202C00002039
:1015700008B501210820FFF7EBFC4FF44060ADF8FF
:10158000000010208DF8030003208DF8020069464A
:10159000FE48FFF721FA4FF44061FD48FFF7C9FA12
:1015A00008BD10B5FA48001D006820F47040F849E5
:1015B000091D08600846006840F44050086001209A
:1015C000F4490860F449C1F8A8016420FFF77FFFDF
:1015D0000020F04908606420FFF779FF0020EE4901
:1015E000C1F8A80110BD10B5E948001D006820F43D
:1015F0007040E749091D08600846006840F4405003
:1016000008600020E349091F0860E349C1F8AC0104
:101610006420FFF75CFF0120DE49091F0860DE49F6
:10162000C1F8AC016420FFF752FF10BD10B50024D3
:10163000D748001D006820F47040D549091D086096
:101640000846006840F4004008600120D149086065
:101650006420FFF73CFF0120CF49C1F8A8016420B6
:10166000FFF735FF07E0601CC4B2FA2C03DDFFF77B
:10167000BAFF012010BDC748803800680028F2D1A9
:10168000C449091F086000BFF4E710B50020C14934
:10169000091F0860BE48001D006820F47040BC4966
:1016A000091D08600846006840F4405008600020AA
:1016B000B949C1F8AC016420FFF709FF0120B54921
:1016C000091F08606420FFF702FF0020B249C1F83B
:1016D000A80110BD10B50020AE49091F0860AC4834
:1016E000001D006820F47040A949091D08600846E3
:1016F000006840F4405008600120A749C1F8AC01DF
:101700006420FFF7E4FE0120A249091F086064205D
:10171000FFF7DDFE0020A049C1F8A80110BD70B59B
:1017200004469B48001D006820F470409849091D3C
:1017300008600846006840F4405008600020954961
:10174000091F086000251DE0E00918B1012091493A
:10175000086002E000208F4908606006040E0A203D
:10176000FFF7B5FE01208B49091F08600A20FFF72B
:10177000AEFE00208849C1F8A8010A20FFF7A7FEA5
:10178000681CC5B2082DDFDB70BD70B505460024AE
:101790007F48001D006820F470407D49091D0860E5
:1017A0000846006840F400400860002617E000206A
:1017B0007849091F08603220FFF789FE0120764929
:1017C000C1F8A8016006040E72488038006808B1AC
:1017D000601CC4B23220FFF77AFE701CC6B2082E1D
:1017E000E5DB15B9FFF776FF01E0FFF74EFF204676
:1017F00070BD70B504460D460026FFF7D2FE2046A8
:10180000FFF78DFFFFF712FF2846FFF788FFFFF76E
:101810000DFFFFF7C6FE611CC8B2FFF780FFFFF7A0
:1018200005FF0020FFF7B1FF0646FFF7DCFE30465C
:1018300070BD2DE9F04106460C460027FFF7B1FECA
:101840003046FFF76CFFFFF7F1FE2012FFF767FF4E
:10185000FFF7ECFE2546E11704EB11610912A4EB3A
:101860000121C8B2FFF75BFFFFF7E0FEFFF799FE2B
:10187000711CC8B2FFF753FFFFF7D8FE0020FFF737
:1018800084FF0746FFF7AFFE3846BDE8F08170B52C
:1018900005460C46FFF785FE2846FFF740FFFFF799
:1018A000C5FE2046FFF73BFFFFF7C0FEFFF79BFE9C
:1018B0000A20FFF730FE70BD70B506460C4615468F
:1018C000FFF76FFE3046FFF72AFFFFF7AFFE204617
:1018D000FFF725FFFFF7AAFE2846FFF720FFFFF7D7
:1018E000A5FEFFF780FE0A20FFF715FE70BD2DE96B
:1018F000F04107460C461646FFF753FE3846FFF701
:101900000EFFFFF793FE2012FFF709FFFFF78EFE91
:101910002546E11704EB11610912A4EB0121C8B2BD
:10192000FFF7FDFEFFF782FE3046FFF7F8FEFFF7F8
:101930007DFEFFF758FE0A20FFF7EDFDBDE8F081C0
:101940002DE9F05F80460C4616461F46DDE90BABDD
:10195000DDF82890FFF725FE4046FFF7E0FEFFF791
:1019600065FE2012FFF7DBFEFFF760FE2546E1175C
:1019700004EB11610912A4EB0121C8B2FFF7CFFEFD
:10198000FFF754FE3046FFF7CAFE07E0000C0140A7
:1019900000140140AC81224200802242FFF746FE43
:1019A0003846FFF7BCFEFFF741FE4846FFF7B7FE9B
:1019B000FFF73CFE5046FFF7B2FEFFF737FE5846F2
:1019C000FFF7ADFEFFF732FE0D98FFF7A8FEFFF719
:1019D0002DFEFFF708FE0A20FFF79DFDBDE8F09FF2
:1019E0002DE9F04104460D4600260027FFF7D9FDFA
:1019F0002046FFF794FEFFF719FEE8B2FFF78FFECF
:101A0000FFF714FEFFF7CDFD611CC8B2FFF787FE9C
:101A1000FFF70CFE0A20FFF77EFD0020FFF7B5FE62
:101A20000646FFF7E0FDFFF7BCFD2046FFF777FE17
:101A3000FFF7FCFD691CC8B2FFF771FEFFF7F6FD6A
:101A4000FFF7AFFD611CC8B2FFF769FEFFF7EEFDBF
:101A50000A20FFF760FD0020FFF797FE07464FF6CC
:101A6000FF7000EA0727FFF7BEFDF01986B20A20D3
:101A7000FFF751FD3046BDE8F08110B54FF4A0608E
:101A8000FEF7B4FC10BD000010B586B0044601217D
:101A900044F20400FFF75CFA5048FFF7BDFA4FF438
:101AA0000070ADF8140003208DF8160018208DF892
:101AB000170005A94A48FEF78FFF4FF48060ADF884
:101AC000140004208DF8170005A94548FEF784FF8F
:101AD00025208DF8000003208DF801008DF802000C
:101AE00001208DF803006846FEF785FC0194002074
:101AF000ADF80800ADF80A00ADF80C00ADF8100024
:101B00000C20ADF80E0001A93448FFF7C8FA0122F5
:101B100040F225513148FFF75AFB01212F48FFF7CA
:101B20004AFB06B010BD70B5044621122B48FFF7E2
:101B3000AFFB00BF40212948FFF718FC0128F9D16D
:101B40002546E01704EB10600012A4EB002081B2E0
:101B50002248FFF79DFB00BF40212048FFF706FC0D
:101B60000128F9D170BD10B5044621461B48FFF786
:101B70008FFB00BF40211948FFF7F8FB0128F9D17E
:101B800010BD70B505460E46002400BF0CE0295D6F
:101B90001248FFF77DFB00BF40211048FFF7E6FB2E
:101BA0000128F9D1601CC4B2B442F0DB70BD10B59D
:101BB00040F225510948FFF7EFFB70B10748FFF7E6
:101BC0006BFBC4B207480088C0F30D0006490C54F3
:101BD00004480088401C0349088010BD00380140BB
:101BE000000801402E0000202001002000B587B031
:101BF00001214FF40470FFF7ABF94FF40040FFF7F9
:101C00000BF90320ADF8040000208DF8070001A9AE
:101C10002E48FEF7E1FE2E48FEF756FC002002900B
:101C20008DF80C008DF80D004FF46020049000201A
:101C3000059001208DF8180002A92548FEF76BFCDD
:101C400001212348FEF793FC2148FEF7B2FC00BFB8
:101C50001F48FEF7B3FC0028FAD11D48FEF7B8FC78
:101C600000BF1B48FEF7B9FC0028FAD107B000BD41
:101C700010B504460723012221461548FEF7E3FC70
:101C800001211348FEF7B3FC00BF02211048FEF704
:101C90001FFE0028F9D00E48FEF73CFD10BD2DE9CF
:101CA000F04107460C460025002608E03846FFF7BD
:101CB000DFFF05440120FFF72EFC701CC6B2A642D0
:101CC000F4DBB5FBF4F080B2BDE8F0810008014020
:101CD00000240140002000BF11E09A4901EBC0013F
:101CE0008988984A52F830205161974901EBC00128
:101CF0008988954A52F830205161411CC8B20428A5
:101D0000EBDB002011E0914901EBC0018988904A8A
:101D100052F8302051618D4901EBC00189888B4A0E
:101D200052F830205161411CC8B20528EBDB7047E6
:101D300008B50121F420FFF70BF9C020ADF8000031
:101D400010208DF8030003208DF8020069468148B9
:101D5000FEF742FE3820ADF8000010208DF8030099
:101D600003208DF8020069467B48FEF735FE082106
:101D70007948FEF7E0FE3C20ADF8000010208DF819
:101D8000030003208DF8020069467248FEF724FE26
:101D90001F20ADF8000010208DF8030003208DF8FF
:101DA000020069466D48FEF717FE0320ADF80000FB
:101DB00010208DF8030003208DF802006946654865
:101DC000FEF70AFE4FF48050ADF8000010208DF8A9
:101DD000030003208DF8020069466148FEF7FCFD10
:101DE0004FF40040ADF8000010208DF803000320F0
:101DF0008DF8020069465B48FEF7EEFDFFF76AFFCB
:101E000008BD10B50246002000BF17E041FA00F3FC
:101E100003F0010343B14E4B03EBC0039B884C4CD2
:101E200054F83040236107E0494B03EBC0039B8823
:101E3000474C54F830406361431CD8B20528E5DBB9
:101E4000002014E0904208D13E4B03EBC0039B8876
:101E50003C4C54F83040236107E03A4B03EBC0039D
:101E60009B88384C54F830406361431CD8B2042836
:101E7000E8DB10BD10B50246002000BF17E041FAB4
:101E800000F303F0010343B1304B03EBC0039B8825
:101E90002E4C54F83040236107E02C4B03EBC00379
:101EA0009B882A4C54F830406361431CD8B2052803
:101EB000E5DB002014E0904208D1234B03EBC00384
:101EC0009B88214C54F83040236107E01E4B03EB04
:101ED000C0039B881C4C54F830406361431CD8B24B
:101EE0000428E8DB10BDF0B50646701E1E490C5CE8
:101EF0002046E11704EBD1614F112546E01704EBB2
:101F0000D0604011A4EB4010401EC1B23846FFF72C
:101F100078FFF0BDF0B50646701E13490C5C2046F4
:101F2000E11704EBD1614F112546E01704EBD060B7
:101F30004011A4EB4010401EC1B23846FFF761FFCC
:101F4000F0BD0000B0000020F8000020D00000200C
:101F50008800002000140140000C014000180140DE
:101F600000100140000801403000002010B50C2096
:101F7000FFF77EFE0446204610BD10B50D20FFF78A
:101F800077FE0446204610BD08B501217C20FEF7EF
:101F9000DFFF4FF46040ADF8000048208DF80300EB
:101FA00003208DF8020069462C48FEF715FD4FF41A
:101FB0008060ADF8000048208DF80300694628488D
:101FC000FEF70AFD4FF46040ADF8000028208DF8C0
:101FD000030069462348FEF7FFFC4FF47070ADF82C
:101FE000000028208DF8030069461F48FEF7F4FC26
:101FF0004FF48070ADF8000028208DF8030069468A
:102000001A48FEF7E9FC0620ADF8000010208DF814
:10201000030069461248FEF7DFFC4FF4FC50ADF8B0
:10202000000010208DF8030069460C48FEF7D4FC30
:102030004FF40040ADF8000010208DF80300694611
:102040000948FEF7C9FC0720ADF8000010208DF804
:10205000030069460548FEF7BFFC08BD00180140B3
:10206000000C014000140140001001400008014034
:1020700070B50446002524E020218C48FEF75BFD66
:1020800004F0800020B140218848FEF752FD03E0B3
:1020900040218648FEF74FFD6006040E0A20FFF738
:1020A00016FA20218148FEF744FD0A20FFF70FFAB7
:1020B00020217E48FEF73FFD0A20FFF708FA681C42
:1020C000C5B2082DD8DB70BD10B504468021774815
:1020D000FEF72FFD0120FFF71EFAF820FFF7C8FFDB
:1020E00004F0F000FFF7C4FFF02101EA0410FFF74D
:1020F000BFFF80216D48FEF71EFD0220FFF70BFA9F
:1021000010BD10B5044680216848FEF712FD01207D
:10211000FFF701FAFA20FFF7ABFF04F0F000FFF73A
:10212000A7FFF02101EA0410FFF7A2FF80215F481A
:10213000FEF701FD0220FFF7EEF910BD08B5012101
:102140000420FEF705FFF820ADF8000010208DF800
:10215000030003208DF8020069465448FEF73CFC5A
:1021600018215248FEF7E5FCE0215148FEF7E3FC58
:1021700008BD10B5FFF7E2FF0520FFF7CCF91021ED
:102180004A48FEF7D8FC6420FFF7C5F910214748FC
:10219000FEF7CFFC0520FFF7BEF93020FFF794FFD4
:1021A0000C20FFF791FF0120FFF78EFF1420FFF7AF
:1021B000B2F90620FFF788FF10BD10B500243020CB
:1021C000FFF782FF8020FFF77FFF00BF04E02020A1
:1021D000FFF797FF601CC4B2402CF8DB10BD70B550
:1021E0000446002500263020FFF76EFF34B1012C95
:1021F00006D0022C06D0032C08D105E0802605E08D
:10220000902603E0882601E0982600BF00BF3046F4
:10221000FFF75AFF002504E02020FFF772FF681C3B
:10222000C5B2102DF8DB70BD70B505460E461446DC
:102230003020FFF749FF082101FB05611D4A505C72
:10224000FFF742FF18E0082E02D10026681CC5B235
:10225000042D00D10025082101FB0561154A505CC1
:10226000FFF732FF2078FFF74CFF641C2078FFF760
:1022700048FF641C701CC6B220780028E3D170BDF2
:1022800030B502460020002300BF0A24B1FBF4F55C
:1022900004FB1513B1FBF4F103F1300402F8014B18
:1022A000441CE0B20029F0D130BD0000000801401C
:1022B000000C01401E2B000830B503460C460020E0
:1022C000002105E0655C9D4200D101204D1CE9B272
:1022D0009142F7DB30BD10B54FF40051F648FEF7E0
:1022E0000EFC50B10A20FFF716F94FF40051F248E6
:1022F000FEF705FC08B1102010BD0020FCE770B50A
:102300000026002400250120EC49086000BF5DE0A4
:1023100057216143EA4A11444878FFF7E4FD05205C
:10232000FFF7D5F857216143E54A11448878FFF754
:10233000F1FD002524E0FFF719FE064604EB4400FA
:10234000E04901EB4000807804EB4401DD4A02EBF8
:10235000410189884843401DB04207D20120DA4933
:10236000DA4A128801EBC201887007E00020D649E2
:10237000D64A128801EBC201887003E0681CC5B21E
:10238000032DD8DB00BF57206043CD490844407877
:10239000CD49CE4A128801EBC201C8705720604374
:1023A000C74908448078C849C84A128801EBC2016D
:1023B0000871C549C54A128801EBC201CE80C348E5
:1023C0000088401CC1490880601CC4B2022C9FDBFD
:1023D0000020BA490860FFF77DFC70BD2DE9F04789
:1023E0000024002500260027A146A0460120B3496D
:1023F000086000BF60E057216143B54A1144487846
:10240000FFF771FD0520FFF762F857216143B04ADD
:1024100011448878FFF77EFD0520FFF758F8002566
:1024200024E0FFF7A3FD804609EB4900A94901EB31
:102430004000807809EB4901A64A02EB41018988F6
:1024400048430A30404507D201209F499F4A1288DD
:1024500001EBC201887007E000209B499B4A12886B
:1024600001EBC201887003E0681CC5B2032DD8DB04
:1024700000BF572060439649084440789249934AE8
:10248000128801EBC201C87057206043904908448C
:1024900081788D488D4A128800EBC20001718A490B
:1024A0008A4A128801EBC201A1F8068009F10100F5
:1024B00000F0FF09601CC4B2282C9CDBFFF70AFC6B
:1024C00000207E49086001208349C1F88001002472
:1024D00061E0002657E057216143804A1144491CBE
:1024E000885DFFF700FD0520FEF7F1FF701CC7B205
:1024F00041E057216143794A1144491CC85DFFF707
:1025000009FD0520FEF7E3FF00252AE0FFF72EFD79
:102510008046B8F10A0F1AD201206B496B4A128823
:1025200001EBC201887068486849098800EBC10066
:10253000C67065486549098800EBC10007716248AB
:10254000624A128800EBC200A0F8068007E0002073
:102550005D495E4A128801EBC201887003E0681C85
:10256000C5B2032DD2DB00BF58480088401C574934
:102570000880781CC7B2572060435849085CB842AD
:10258000B7DC701CC6B2572060435449085CB042A7
:10259000A1DC601CC4B2052C9BDBFFF79BFB002079
:1025A0004F490860BDE8F0872DE9F0410546002459
:1025B0000026002701204149086000BF0EE0601C92
:1025C000FFF791FCFFF7D2FC0746B7F57A7F03D2FD
:1025D00005F8014B701CC6B2601CC4B2562CEEDB71
:1025E0000020364908603046BDE8F08170B500250E
:1025F000002400F082F901203A4908603A49C1F804
:10260000880122E04FF480412B48FEF778FA00B1B0
:102610001CE04FF400412848FEF771FA40B100F089
:1026200062F900202F4908602F49C1F8880170BD68
:102630002846691C8DB2B0F5FA6F03DD00202949E8
:10264000086003E00120FEF766FFDBE700BF012022
:102650002449091D08600020244908701B4908808E
:10266000FFF74DFEFFF7BAFE00201F49C1F88801B1
:102670006420FEF750FF00201A49091D08606420FD
:10268000FEF749FF00201849C1F8840100240AE040
:102690000D4800EBC400807818B101201349087080
:1026A00005E0601C84B2094800888442F0DB00BF6A
:1026B00000F093F800BFBAE700140140BC012242C9
:1026C0003311002096120020A21200201A010020CF
:1026D000E8010020E211002000002142800F0020CC
:1026E0008001214284812142008021421801002082
:1026F00010B5002440218648FEF701FA012816D1C2
:102700000A20FEF708FF04E0601C84B20120FEF7F7
:1027100002FF40217E48FEF7F2F90128F4D040F292
:10272000DC50844201DD312010BD3020FCE7002068
:10273000FAE71CB50446002000900190FFF74FFD1A
:102740000120FFF74CFD0220FFF749FD71A2002197
:102750000846FFF769FD0A216846FFF791FD6A46C2
:1027600003210020FFF760FD0020009001906BA284
:1027700000210120FFF758FD21216846FFF780FD69
:102780006A4603210120FFF74FFD002000900190D1
:1027900064A200210220FFF747FD40F22121684694
:1027A000FFF76EFD6A4603210220FFF73DFD1CBDC9
:1027B000704710B50120FFF712FD5CA20321012034
:1027C000FFF732FD10BD10B50120FFF708FD59A23B
:1027D00003210120FFF728FD10BD10B557480078F0
:1027E000FF2802D1FFF7EFFF01E0FFF7E2FF002033
:1027F0005349087010BD2DE9F041B0B00027002406
:10280000A0460026002558211AA800F0F2F8002062
:1028100019906421684600F0ECF8FFF7CEFC49A25D
:1028200000210846FFF700FD33E01AA8FFF7BCFEC1
:1028300080469DF8680030B3002415E01AA8015DB9
:1028400019A8FFF71DFD06460DEB0500324619A934
:1028500000F08AF820200DF80500701C2844C5B24D
:1028600000201990601CC4B24445E7DB6A46002191
:102870000120FFF7D9FC6421684600F0BAF858211E
:102880001AA800F0B6F8FFF733FF0746302F00D143
:1028900000E0CAE700BF30B0BDE8F08110B5002409
:1028A000FFF726FF0446302C02D0312C18D114E05B
:1028B0002248007880B122480078FFF73AFF20488C
:1028C00001780078401C1E4A107020480088814220
:1028D00002DD00201146087003E0FFF78CFF00E0E6
:1028E00000BF00BF10BD10B50120FFF778FC18A293
:1028F00002210120FFF798FC10BD10B50120FFF761
:102900006EFC16A202210120FFF78EFC10BD000014
:10291000001001405450313A000000005450323A47
:1029200000000000446174613A0000004661696C77
:1029300000000000506173730000000018010020C7
:102940001C010020D5D2B5E3A3BA00001A01002073
:10295000D7BCB1B8B2E2CAD400000000B2E2CAD417
:10296000D6D02E2E00000000032A40F2308010F056
:10297000030C00F0158011F8013BBCF1020F62441A
:1029800098BF11F801CB00F8013B38BF11F8013BAB
:10299000A2F1040298BF00F801CB38BF00F8013B58
:1029A00011F0030300F04F80083AC0F0088051F89E
:1029B000043B083A51F804CBA0E80810F5E7121DD3
:1029C0005CBF51F8043B40F8043BAFF30080D207F2
:1029D00024BF11F8013B11F801CB48BF11F8012BBE
:1029E00024BF00F8013B00F801CB48BF00F8012BE1
:1029F00070474FF0000200B51346944696462039C2
:102A000022BFA0E80C50A0E80C50B1F12001BFF4A7
:102A1000F7AF090728BFA0E80C5048BF0CC05DF80D
:102A200004EB890028BF40F8042B08BF704748BF5B
:102A300020F8022B11F0804F18BF00F8012B7047CF
:102A400070477047704710B5203AC0F00B80B1E86E
:102A50001850203AA0E81850B1E81850A0E81850D3
:102A6000BFF4F5AF5FEA027C24BFB1E81850A0E8DC
:102A7000185044BF18C918C0BDE810405FEA827CF6
:102A800024BF51F8043B40F8043B08BF7047D2070D
:102A900028BF31F8023B48BF11F8012B28BF20F8AE
:102AA000023B48BF00F8012B7047754600F02CF838
:102AB000AE4605006946534620F00700854618B02B
:102AC00020B5FDF791FBBDE820404FF000064FF028
:102AD00000074FF000084FF0000B21F00701AC4653
:102AE000ACE8C009ACE8C009ACE8C009ACE8C00972
:102AF0008D46704710B50446AFF300802046BDE810
:102B00001040FDF75CBB000000487047E431002036
:102B100001491820ABBEFEE7260002007047808105
:102B200082838485868790919293949596978889DD
:102B30008A8B8C8D8E8F98999A9B9C9D9E9F00006E
:102B4000602B000800000020200100006C0100083C
:102B5000802C000820010020283700008801000890
:102B600000A24A040000000000000000010203046B
:102B70000607080900000000010203040102030423
:102B80000607080902040608000000000000000013
:102B90000102030405060708090A0B0C0D0E0F10AD
:102BA0001112131415161718191A1B1C1D1E1F209D
:102BB0002122232425262728292A2B2C2D2E2F308D
:102BC0003132333435363738393A3B3C3D3E3F407D
:102BD0004142434445464748494A4B4C4D4E4F506D
:102BE000515253545556000000140140400000005B
:102BF0000014014080000000000C014008000000AB
:102C0000000C014010000000000C014020000000FA
:102C100000140140200000000014014010000000DA
:102C200000140140080000000014014004000000EE
:102C300000180140010000000018014002000000DF
:102C400000180140040000000018014008000000C6
:102C500000180140100000000014014001000000B5
:102C600000140140020000000010014000100000AC
:102C70000010014000800000000000000000000083
:0400000508000131BD
:00000001FF
