:020000040800F2
:10000000002B0020150200082726000829260008DA
:100010002D260008312600083526000800000000C3
:100020000000000000000000000000003926000869
:100030003B260008000000003D2600083F2600087F
:100040002F0200082F0200082F0200082F020008CC
:100050002F0200082F0200082F0200082F020008BC
:100060002F0200082F0200082F0200082F020008AC
:100070002F0200082F0200082F0200082F0200089C
:100080002F0200082F0200082F0200082F0200088C
:100090002F0200082F0200082F0200082F0200087C
:1000A0002F0200082F0200082F0200082F0200086C
:1000B0002F020008992E00082F0200082F020008C6
:1000C0002F0200082F0200082F0200082F0200084C
:1000D0002F0200082F0200082F0200082F0200083C
:1000E0002F0200082F0200082F0200082F0200082C
:1000F0002F0200082F0200082F0200082F0200081C
:100100002F0200082F0200082F0200082F0200080B
:100110008D2A00082F0200082F0200082F02000875
:100120002F0200082F0200082F0200082F020008EB
:1001300000F002F800F05FF80AA090E8000C82449A
:100140008344AAF10107DA4501D100F054F8AFF277
:10015000090EBAE80F0013F0010F18BFFB1A43F0A5
:1001600001031847C8570000E85700000A444FF041
:10017000000C10F8013B13F0070408BF10F8014B06
:100180001D1108BF10F8015B641E05D010F8016B4B
:10019000641E01F8016BF9D113F0080F1EBF10F8AF
:1001A000014BAD1C0C1B09D16D1E58BF01F801CBD2
:1001B000FAD505E014F8016B01F8016B6D1EF9D555
:1001C0009142D6D37047000000230024002500266A
:1001D000103A28BF78C1FBD8520728BF30C148BFAA
:1001E0000B607047642904F0FD87002070471FB53D
:1001F0001FBD10B510BD05F0A9F91146FFF7F7FFB7
:1002000002F0C6F905F0C7F903B4FFF7F2FF03BC2B
:1002100002F0D0FB0948804709480047FEE7FEE7A7
:10022000FEE7FEE7FEE7FEE7FEE7FEE7FEE7FEE7A6
:1002300004480549054A064B70470000330300088F
:100240003101000800250020002B0020002700209D
:10025000002700200CB50020019000906C48006839
:1002600040F480306A49086000BF6948006800F4C3
:10027000003000900198401C0190009818B9019836
:10028000B0F5A06FF1D16248006800F4003010B101
:100290000120009001E0002000900098012843D147
:1002A0005C48006840F010005A4908600846006841
:1002B00020F0030008600846006840F00200086073
:1002C00053484068524948600846406848600846BC
:1002D000406840F4806048600846406820F47C1024
:1002E00048600846406840F4E810486008460068E6
:1002F00040F08070086000BF4548006800F0007062
:100300000028F9D04248406820F003004049486086
:100310000846406840F00200486000BF3C48406822
:1003200000F00C000828F9D10CBD10B5FFF792FFC2
:1003300010BD10B53648006840F00100344908602F
:10034000084640683449084031494860084600681A
:10035000324908402E4908600846006820F4802091
:1003600008600846406820F4FE0048604FF41F0013
:100370008860FFF7DAFF4FF000602949086010BD80
:1003800010B5002100200022214B5B6803F00C0116
:1003900021B1042906D0082928D107E0214B224C9D
:1003A000236027E01F4B204C236023E0184B5B6841
:1003B00003F47010164B5B6803F48032022303EBE6
:1003C000904022B9194B4343174C23600DE0104B6A
:1003D0005B6803F4003323B1144B4343124C236096
:1003E00003E0104B4343104C236003E00D4B0E4CD5
:1003F000236000BF00BF064B5B68C3F303130C4CC4
:10040000E15C094B1B68CB40074C236010BD00002A
:1004100000100240002002400000FFF8FFFFF6FE3F
:1004200008ED00E000127A000000002000093D0005
:100430000400002031490143314A1160704770B512
:10044000002100230F22C47804B32D4C246804F447
:10045000E064C4F5E064210AC1F10403CA404478B1
:1004600004FA03F18478144021430901254C0678ED
:10047000A155047804F01F050124AC4005786D11E6
:10048000AD0005F1E025C5F8004109E0047804F06D
:100490001F050124AC401C4D0678761145F8264016
:1004A00070BD1A4A0A400243154B1B1F1A60704761
:1004B00039B1134A121D12680243114B1B1D1A60F9
:1004C00006E00F4A121D126882430D4B1B1D1A6075
:1004D0007047042808D14FF0E021096941F0040178
:1004E0004FF0E022116107E04FF0E021096921F0AF
:1004F00004014FF0E0221161704700000000FA058E
:100500000CED00E000E400E080E100E080FFFF1F70
:1005100010B50446FA48844208D10121401500F084
:1005200055FD0021601500F051FD17E0F5488442AB
:1005300008D10121001500F049FD0021201500F02F
:1005400045FD0BE0F048844208D10121C80300F0CA
:100550003DFD00214FF4004000F038FD10BD30B5E6
:100560000246002000235068E84C20400D790C68BA
:1005700044EA0524204350609068E54C2040D1E9CE
:1005800002542C434D7944EA450420439060D06ADC
:1005900020F470000C7C641EE4B2234340EA035054
:1005A000D06230BD00210160017141718160C16084
:1005B00001210174704721B1826842F0010282601A
:1005C00003E0826822F001028260704721B18268F4
:1005D00042F48072826003E0826822F4807282605A
:1005E000704710B50023CBB21AB144681C43446075
:1005F00002E044689C43446010BD816841F00801FA
:1006000081607047014600208A6802F008020AB142
:10061000012000E000207047816841F00401816002
:100620007047014600208A6802F004020AB10120E6
:1006300000E00020704721B1826842F4A00282608D
:1006400003E0826822F4A002826070470146002025
:100650008A6802F480020AB1012000E0002070479D
:1006600010B50A4600210023416821F46041531E61
:1006700041EA4331416010BD21B1426842F4006259
:10068000426003E0426822F4006242607047F0B5C5
:1006900004460D4600200021092D11DDE068A5F17A
:1006A0000A0606EB4607072606FA07F18843A5F176
:1006B0000A0606EB460603FA06F10843E0600CE082
:1006C000206905EB4507072606FA07F1884305EB85
:1006D000450603FA06F108432061072A0FDA606B2A
:1006E000561E06EB86071F2606FA07F18843561E9C
:1006F00006EB860605FA06F10843606322E00D2A40
:100700000FDA206BD61F06EB86071F2606FA07F1C5
:100710008843D61F06EB860605FA06F108432063D8
:1007200010E0E06AA2F10D0606EB86071F2606FA26
:1007300007F18843A2F10D0606EB860605FA06F1DD
:100740000843E062F0BD21B1826842F48012826009
:1007500003E0826822F48012826070470146C86C10
:1007600080B2704766484C300068704721B14268DB
:1007700042F48062426003E0426822F48062426098
:10078000704721B1426842F48052426003E04268FF
:1007900022F48052426070470A460021816821F4A9
:1007A000E04111438160704721B1826842F4004208
:1007B000826003E0826822F400428260704721B1C7
:1007C000826842F40212826003E0826822F402121C
:1007D00082607047014600208A6802F400120AB164
:1007E000012000E000207047F0B5044615460020C7
:1007F00000220026092911DDE068A1F10A0707EBB4
:10080000470C072707FA0CF29043A1F10A0707EB00
:10081000470703FA07F21043E0600CE0206901EBA0
:10082000410C072707FA0CF2904301EB410703FA4A
:1008300007F210432061A06BC0F30156EF1C06F1D4
:10084000010CA7EB0C0707EB870C1F2707FA0CF22C
:100850009043EF1C06F1010CA7EB0C0707EB870791
:1008600001FA07F21043A063F0BD10B50A4600215B
:100870000023816B21F44011531E41EA035181632F
:1008800010BD08B5002300930090009B0B4400931B
:10089000009B1A6008BD08B5024600200090009237
:1008A00001F12800009B184400900098006880B275
:1008B00008BD0A4600214168164B194011434160AA
:1008C00070474162826270470A460021416821F008
:1008D0001F0111434160704740B10949083109685F
:1008E00041F40001064A0832116007E0044908316A
:1008F000096821F40001024A0832116070470000C3
:100900000024014000280140003C0140FFFEF0FFB0
:10091000FDF7F1FFFFFD3FFF0246002013680B408B
:100920000BB1012000E000207047CA43026070470D
:1009300070B502460020002300240B125568CEB289
:1009400005EA060415681D4015B10CB1012000E050
:10095000002070BD00220A12D343036070470000DC
:1009600010B50446CC48844208D10121042000F08F
:100970002DFB0021042000F029FB46E0C7488442FB
:1009800008D10121082000F021FB0021082000F0FF
:100990001DFB3AE0C248844208D10121102000F03A
:1009A00015FB0021102000F011FB2EE0BD48844211
:1009B00008D10121202000F009FB0021202000F0B7
:1009C00005FB22E0B848844208D10121402000F014
:1009D000FDFA0021402000F0F9FA16E0B348844205
:1009E00008D10121802000F0F1FA0021802000F0E0
:1009F000EDFA0AE0AE48844207D10121801500F0EB
:100A0000E5FA0021A01500F0E1FA10BD10B50121B2
:100A1000084600F0DBFA0021012000F0D7FA10BDF3
:100A20002DE9F04102460025002600200023002485
:100A3000002791F803C00CF00F0591F803C00CF0EB
:100A4000100CBCF1000F03D091F802C04CEA050570
:100A500091F800C0BCF1000F31D0146800202BE0E9
:100A60004FF0010C0CFA00F3B1F800C00CEA0306D9
:100A70009E4220D183004FF00F0C0CFA03F7BC43C9
:100A800005FA03FC4CEA040491F803C0BCF1280FFA
:100A900006D14FF0010C0CFA00FCC2F814C00AE0B9
:100AA00091F803C0BCF1480F05D14FF0010C0CFACE
:100AB00000FCC2F810C0401C0828D1D31460B1F863
:100AC00000C0BCF1FF0F34DD546800202EE000F1BF
:100AD000080C4FF0010808FA0CF3B1F800C00CEA5A
:100AE00003069E4221D183004FF00F0C0CFA03F74E
:100AF000BC4305FA03FC4CEA040491F803C0BCF1C2
:100B0000280F05D100F1080C08FA0CF8C2F814807F
:100B100091F803C0BCF1480F07D100F1080C4FF069
:100B2000010808FA0CF8C2F81080401C0828CED33F
:100B30005460BDE8F0814FF6FF71018002218170A1
:100B40000421C17070470246002093680B400BB12E
:100B5000012000E0002070470146886880B270479D
:100B600002460020D3680B400BB1012000E00020BA
:100B700070470146C86880B27047016170474161A3
:100B800070470AB1016100E041617047C160704780
:100B90004FF480320A438261816182618269826995
:100BA000704702460020434B18684FF68073184088
:100BB00040EA021008433F4B186070473E49C86145
:100BC0007047F0B50A46002300240021002500F0FC
:100BD0000046B6F1004F02D1364EF16901E0354EC4
:100BE0007168C0F3034583B200F44016B6F5401FA8
:100BF00008D121F070612F4E766826F070662D4F77
:100C00007E6012E000F48016B6F5801F06D1032640
:100C100006FA05F4A14341F0706106E0460D360185
:100C200003FA06F6B14341F0706122B1460D360178
:100C300003FA06F6314300F00046B6F1004F02D148
:100C40001C4EF16101E01B4E7160F0BD30B5002219
:100C50008B071C0F0F2303FA04F2164B08338C107A
:100C600053F824309343134C08348D1044F8253046
:100C700023468C1053F824308C07240F00FA04F418
:100C800023430C4C08348D1044F8253030BD0A49FC
:100C9000DC3108607047000000080140000C014092
:100CA000001001400014014000180140001C0140E8
:100CB000002001400000014000002042DF480068A1
:100CC00040F00100DD49086008464068DC49084002
:100CD000DA49486008460068DA490840D7490860A0
:100CE0000846006820F4802008600846406820F428
:100CF000FE0048604FF41F0088607047CF490968C4
:100D000021F48031CD4A11601146096821F4802117
:100D10001160B0F5803F03D0B0F5802F0ED106E012
:100D2000C649096841F48031C44A116007E0C349EB
:100D3000096841F4A021C14A116000E000BF00BF72
:100D4000704710B501460022002300204A11012AF5
:100D500002D1BA4C236806E0022A02D1B74C236ABA
:100D600001E0B64C636A01F01F02012494401C406C
:100D70000CB1012000E0002010BD38B5002000902B
:100D80000024002500BF3120FFF7DBFF0546009857
:100D9000401C00900098B0F5A06F01D0002DF2D05B
:100DA0003120FFF7CEFF08B1012400E000242046E7
:100DB00038BD01460020A14A106820F0F80040EA42
:100DC000C10010607047A0490860704702460020CB
:100DD0009A4B586820F47C1042EA01031843974B61
:100DE0005860704798490866704701460020934A4A
:100DF000506820F003000843506070478F484068F7
:100E000000F00C007047014600208C4A506820F02A
:100E1000F00008435060704701460020874A506840
:100E200020F4E06008435060704701460020834A88
:100E3000506820F4605040EAC1005060704729B10A
:100E40007E4A527A02437D4B5A7204E07B4A527AC0
:100E500082437A4B5A7270477B49D8310860704799
:100E600001460020754A506820F440400843506015
:100E700070470021714A20321170704A82F82010A8
:100E8000012802D004280AD104E001216B4A203253
:100E9000117005E00521694A2032117000E000BFA1
:100EA00000BF70476949086070476449096A014397
:100EB000624A11627047654944390860704730B52D
:100EC00000210022002400235C4D6D6805F00C0118
:100ED00021B1042905D0082923D105E05C4D056026
:100EE00022E05B4D05601FE0544D6D6805F4701203
:100EF000524D6D6805F48034022505EB92421CB911
:100F0000544D554305600BE04C4D6D6805F40035BC
:100F10001DB1504D5543056002E04D4D55430560F0
:100F200002E04B4D056000BF00BF444D6D6805F009
:100F3000F0010909484D6B5C0568DD4045603F4D97
:100F40006D6805F4E061090A434D6B5C4568DD405E
:100F500085603A4D6D6805F46051C90A3E4D6B5C81
:100F60004568DD40C560354D6D6805F44041890B2D
:100F70003A4D6B5CC568B5FBF3F5056130BD29B131
:100F80002E4A526902432D4B5A6104E02B4A5269A2
:100F900082432A4B5A61704729B1284A9269024319
:100FA000264B9A6104E0254A92698243234B9A6159
:100FB000704729B1214AD2690243204BDA6104E02B
:100FC0001E4AD26982431D4BDA61704729B11B4A20
:100FD000D2680243194BDA6004E0184AD2688243AF
:100FE000164BDA60704729B1144A12690243134B59
:100FF0001A6104E0114A12698243104B1A6170476A
:1010000012494039086070470F49C86470470B495E
:10101000C87170470948406A40F0807007494862CB
:10102000704701460020054A92680A400AB1012033
:1010300000E00020704701498872704700100240AC
:101040000000FFF8FFFFF6FE00004242800442422B
:1010500000127A0000093D00140000202400002046
:1010600010B50446BE48844208D101218014FFF720
:10107000ADFF0021A014FFF7A9FF16E0B948844294
:1010800008D101210014FFF7AEFF00212014FFF763
:10109000AAFF0AE0B448844207D10121C013FFF738
:1010A000A2FF0021E013FFF79EFF10BD10B5002244
:1010B000028802F441520B884C8823438C882343D6
:1010C000CC8823430C8923434C8923438C892343B5
:1010D000CC8923431A430280838B4FF2FF74234051
:1010E00083830B8A038210BD2DE9F04F85B005463E
:1010F0000C464FF0000902274FF000084FF0010B9B
:101100000026B246A88B4FF240010840A883022077
:101110002884B5F81C90A068022801D100BF38E0EF
:10112000A08810B94FF0010B01E04FF0020B8D4881
:10113000854200D100E000BF6846FFF7C0FEDDF841
:1011400000A0E088B0F5007F0AD14FEA1A2000EB3A
:1011500080004000A168B0FBF1F0401D86B20BE0BA
:101160004FEA4B10BAFBF0F000EB80004000A168A2
:10117000B0FBF1F0401D86B20A20B6FBF0F606F097
:101180000108A6EB0800C0F34F074FF6FF7000EA16
:101190000828022F01DBFF2F02DD02274FF0000895
:1011A000E08840EA080038432884A088A1890843E1
:1011B000618808432188084340F4006040EA090937
:1011C000A5F81C9005B0BDE8F08F0021018041809A
:1011D0008180C180018141818181C181072101829A
:1011E00070470021018041808180C180022181609F
:1011F00000218181704721B1028842F040020280C3
:1012000004E002884FF6BF731A400280704721B194
:10121000828B42F48062828304E0828B4FF6FF333C
:101220001A408283704730B5002400230C11012539
:10123000A540ABB21AB185881D43858002E0858840
:101240009D43858030BD1AB183880B43838002E0C3
:1012500083888B43838070478181704701468889EA
:1012600070474FF6FF62914204D0028842F48072C8
:10127000028004E002884FF6FF631A400280704744
:1012800021B1828842F00402828004E082884FF615
:10129000FB731A408280704702884FF2FF731A4036
:1012A000028002880A4302807047018841F480511D
:1012B0000180704721B1028842F40052028004E0AC
:1012C00002884DF6FF731A400280704702460020E4
:1012D000012901D0108B00E0908A70470146088AEE
:1012E0007047B1F5804F04D1028842F480420280F9
:1012F00004E002884BF6FF731A40028070470246F2
:10130000002013890B400BB1012000E00020704742
:10131000CA4302817047F0B5024600200024002332
:10132000002501F00F070126BE40B4B20B110126C3
:101330009E40B3B2968806EA03051689264016B188
:101340000DB1012000E00020F0BD10B5002201F039
:101350000F040123A3409AB2D343038110BD0000C0
:101360000030014000380040003C004010B5044609
:10137000FE48844208D10121C014FFF727FE002156
:10138000E014FFF723FEC4E0B4F1804F08D101213F
:101390000846FFF728FE00210120FFF724FEB8E0F1
:1013A000F348844208D101210220FFF71CFE0021EE
:1013B0000220FFF718FEACE0EE48844208D101217C
:1013C0000420FFF710FE00210420FFF70CFEA0E030
:1013D000E948844208D101210820FFF704FE0021DA
:1013E0000820FFF700FE94E0E448844208D1012180
:1013F0001020FFF7F8FD00211020FFF7F4FD88E032
:10140000DF48844208D101212020FFF7ECFD0021B4
:101410002020FFF7E8FD7CE0DA48844208D1012172
:101420004014FFF7D3FD00216014FFF7CFFD70E0FB
:10143000D548844209D10121C804FFF7C7FD002126
:101440004FF40020FFF7C2FD63E0D048844209D189
:1014500001210805FFF7BAFD00214FF48010FFF7C6
:10146000B5FD56E0CA48844209D101214805FFF77D
:10147000ADFD00214FF40010FFF7A8FD49E0C5487D
:10148000844208D101214020FFF7ADFD002140201A
:10149000FFF7A9FD3DE0C048844208D1012180202A
:1014A000FFF7A1FD00218020FFF79DFD31E0BB4843
:1014B000844208D101218015FFF795FD0021A01578
:1014C000FFF791FD25E0B648844209D101210804C7
:1014D000FFF77CFD00214FF48030FFF777FD18E027
:1014E000B048844209D101214804FFF76FFD002173
:1014F0004FF40030FFF76AFD0BE0AB48844208D19F
:1015000001218804FFF762FD00214FF48020FFF7DE
:101510005DFD10BD00220288944B98420ED0994B7D
:1015200098420BD0B0F1804F08D0914B984205D033
:10153000904B984202D0904B984204D14FF68F7353
:101540001A404B881A438D4B984207D08C4B9842D7
:1015500004D04FF6FF431A40CB881A4302808B8891
:1015600083850B880385814B98420BD0854B98422D
:1015700008D08B4B984205D08A4B984202D08A4BB8
:10158000984201D10B7A038601238382704770B59C
:10159000002400220023058C4FF6FE76354005849A
:1015A000028C8388048B4FF68F752C40B51E2C401F
:1015B0000D882C43751E2A400D892A434D882A43E5
:1015C0006A4DA8420BD06F4DA84208D0744DA84276
:1015D00005D0744DA84202D0734DA84213D14FF6E6
:1015E000F7752A404D892A434FF6FB752A408D88AE
:1015F0002A434FF6FF652B404FF6FF552B408D8950
:101600002B43CD892B4383800483CD888586028438
:1016100070BD70B5002400220023058C4FF6EF76D4
:1016200035400584028C8388048B48F6FF752C4076
:101630004FF6FF452C400D884FF6FF7606EA05254C
:101640002C434FF6DF752A400D8906EA05152A431B
:101650004D8806EA05152A43444DA84202D0494D5B
:10166000A8421DD14FF67F752A404D894FF6FF766F
:1016700006EA05152A434FF6BF752A408D8806EA0B
:1016800005152A434FF6FF352B404FF2FF752B40CF
:101690008D8906EA85052B43CD8906EA85052B430E
:1016A00083800483CD880587028470BD70B50024D3
:1016B00000220023058C4FF6FF6635400584028C1E
:1016C0008388848B4FF68F752C404FF6FC752C4029
:1016D0000D882C434FF6FF552A400D894FF6FF76B3
:1016E00006EA05252A434D8806EA05252A431F4DAB
:1016F000A84202D0234DA8421DD14FF2FF752A40C7
:101700004D894FF6FF7606EA05252A434FF6FF3549
:101710002A408D8806EA05252A434EF6FF752B40A0
:101720004DF6FF752B408D8906EA05152B43CD89B3
:1017300006EA05152B4383808483CD888587028440
:1017400070BD70B5002200230024058C4EF6FF7694
:1017500035400584038C8488828B48F6FF752A40C7
:101760004FF6FF452A400D8820E00000002C014084
:101770000004004000080040000C00400010004041
:101780000014004000340140004C01400050014072
:101790000054014000180040001C004000200040A0
:1017A0000040014000440140004801404FF6FF76F0
:1017B00006EA05252A434DF6FF752B400D8906EAFA
:1017C00005352B434D8806EA05352B43FA4DA842D3
:1017D00002D0FA4DA84208D14BF6FF752C408D89F6
:1017E0004FF6FF7606EA85152C4384808283CD88E8
:1017F000A0F84050038470BD828B4FF2FF331A4033
:101800008283828B4FF6FF7303EA01231A4382839C
:101810007047F0B50C461546002200210026078CC3
:101820004EF6FF7C07EA0C070784828B018C4FF68B
:10183000FF7707EA043640F6FF473A404FF6FF7756
:1018400007EA05273A434FF6FF7707EA03373A439B
:10185000D94FB8420ED0D94FB8420BD0B0F1804F1B
:1018600008D0D74FB84205D0D64FB84202D0D64F95
:10187000B84206D14DF6FF77394046F480573943D8
:1018800005E047F6FF57394044F4805739438283D7
:101890000184F0BD828B4FF6F3731A408283828BF2
:1018A0000A4382837047F0B50C461546002200219A
:1018B0000026078C4FF6FF6C07EA0C070784828B23
:1018C000018C4FF6FF7707EA04264FF60C773A4073
:1018D0004FF6FF7707EA03172F433A43B64FB84254
:1018E0000ED0B64FB8420BD0B0F1804F08D0B44FF5
:1018F000B84205D0B34FB84202D0B34FB84206D178
:101900004FF6FF57394046F48077394305E04FF2F0
:10191000FF57394044F48077394382830184F0BD16
:10192000028B4FF2FF331A400283028B4FF6FF7394
:1019300003EA01231A4302837047F0B50C461546AB
:10194000002200210026078C4FF6EF7C07EA0C07E7
:101950000784028B018C4FF6FF7707EA041640F6E6
:10196000FF473A404FF6FF7707EA03373A434FF60F
:10197000FF7707EA05273A438F4FB8420ED08F4FC3
:10198000B8420BD0B0F1804F08D08D4FB84205D08F
:101990008C4FB84202D08C4FB84206D14FF6DF7759
:1019A000394046F01007394305E04FF65F7739407C
:1019B00044F01007394302830184F0BD028B4FF6D7
:1019C000F3731A400283028B0A4302837047F0B517
:1019D0000C46154600220021068C4FF6FE773E404D
:1019E0000684028B018C4FF60C7632407E1C06EA90
:1019F00003162E433243704EB0420ED06F4EB042AB
:101A00000BD0B0F1804F08D06D4EB04205D06D4E76
:101A1000B04202D06C4EB04206D14FF6FD76314056
:101A200044F00106314305E04FF6F576314044F0CD
:101A30000106314302830184F0BD70B505460C46B2
:101A40005D4885420ED05D4885420BD0B5F1804F90
:101A500008D05B48854205D05A48854202D05A4892
:101A6000854200D100E000BF208850B92389A288B8
:101A700061882846FFF7ABFFE1882846FFF79EFF05
:101A800025E0208804280AD12389A2886188284675
:101A9000FFF753FFE1882846FFF742FF17E0208851
:101AA00008280AD12389A28861882846FFF7FBFE0F
:101AB000E1882846FFF7EEFE09E02389A2886188C5
:101AC0002846FFF7A6FEE1882846FFF795FE70BD81
:101AD0002DE9F04105460C4600260127608808B92B
:101AE000022600E00026A088012801D1022700E09C
:101AF00001272088A0B92389A28861882846FFF79A
:101B000066FFE1882846FFF759FF23893A463146A8
:101B10002846FFF712FFE1882846FFF701FF13E090
:101B20002389A28861882846FFF707FFE1882846B5
:101B3000FFF7F6FE23893A4631462846FFF747FF6E
:101B4000E1882846FFF73AFFBDE8F0810A884B8814
:101B50001A438B881A43CB881A430B891A434B8943
:101B60001A438B891A43A0F8442070474FF6FF713F
:101B7000818000210180C180418001727047002175
:101B8000018041808180C180018141818181C18149
:101B90007047002101804180012181800021C180A6
:101BA000018170470021018041808180C1800181D5
:101BB0004181818170470000002C014000340140C8
:101BC0000004004000080040000C004021B10288E1
:101BD00042F00102028004E002884FF6FE731A40D0
:101BE0000280704731B1B0F8442042F40042A0F8BE
:101BF000442005E0B0F84420C2F30E02A0F84420CF
:101C000070471AB183890B43838102E083898B4338
:101C1000838170478182704741EA0203A0F848300F
:101C200070471AB183890B43838102E083898B4318
:101C30008381704701894FF6F87211400181704726
:101C40000A46002101894FF68F7319401143018123
:101C5000704730B504460D4629462046FFF7F0FF91
:101C6000208940F00700208130BD2DE9F041044675
:101C70000D4616461F46602D06D13B4601223146D1
:101C80002046FFF75AFE05E03B460122314620463A
:101C9000FFF79DFE29462046FFF7D2FF208940F03E
:101CA00007002081BDE8F08130B50C460021018994
:101CB000C9B24FF6FF7505EA0325154325432943AD
:101CC000018130BD2DE9F04105460E461746984684
:101CD000002443463A4631462846FFF7E5FF2C8963
:101CE0004FF6F870044044F007044FF68F7004403C
:101CF00044F070042C81BDE8F081F0B504460D4637
:101D000016461F463B46324629462046FFF7CCFF83
:101D1000208940F480402081F0BD01858282704797
:101D20000A46002101884FF68F7319401143018044
:101D30007047F0B50C4615461E46002100220023D0
:101D40000189028B038C4FF6F877394021434FF617
:101D5000FC473A4040F201173A434FF6DD773B40EB
:101D60004FF6FF7707EA06172F433B4301810283B3
:101D70000384F0BD0A460021018B4FF68F73194092
:101D80001143018370470A460021018B48F6FF7317
:101D900019404FF6FF7303EA02231943018370478A
:101DA0000A460021818B4FF68F73194011438183BE
:101DB00070470A460021818B48F6FF7319404FF6A1
:101DC000FF7303EA022319438183704721B102881C
:101DD00042F08002028004E002884FF67F731A40CE
:101DE0000280704721B1828842F00402828004E0C0
:101DF00082884FF6FB731A408280704721B1828837
:101E000042F00802828004E082884FF6F7731A409D
:101E10008280704721B1828842F00102828004E012
:101E200082884FF6FE731A40828070470A4600216E
:101E3000018B4FF6F77319401143018370470A462F
:101E40000021018B4FF2FF7319404FF6FF7303EA35
:101E500002231943018370470A460021818B4FF604
:101E6000F77319401143818370470A460021818B23
:101E70004FF2FF7319404FF6FF7303EA0223194331
:101E8000818370470A460021018B4FF6FB7319408E
:101E90001143018370470A460021018B4FF6FF333F
:101EA00019404FF6FF7303EA022319430183704779
:101EB0000A460021818B4FF6FB7319401143818341
:101EC00070470A460021818B4FF6FF3319404FF6C9
:101ED000FF7303EA02231943818370470A460021F6
:101EE000018B4FF67F7319401143018370470A46F7
:101EF0000021018BC1F30E014FF6FF7303EA0223A9
:101F00001943018370470A460021818B4FF67F7386
:101F100019401143818370470A460021818BC1F328
:101F20000E014FF6FF7303EA0223194381837047C2
:101F30000A460021018C4FF6FD73194011430184BC
:101F400070470A460021018C4FF6F7731940114380
:101F5000018470470A460021018C4FF6DF73194057
:101F60004FF6FF7303EA02131943018470470A46D0
:101F70000021018C4FF67F7319404FF6FF7303EA7F
:101F800002131943018470470A460021018C4FF661
:101F9000FF5319404FF6FF7303EA022319430184EC
:101FA00070470A460021018C4FF2FF7319404FF62B
:101FB000FF7303EA02231943018470470A46002194
:101FC000018C4DF6FF7319404FF6FF7303EA02339D
:101FD00019430184704730B5002301248C40A3B21B
:101FE000048C9C430484048C02FA01F5ADB22C43AA
:101FF000048430BD30B5002304248C40A3B2048C8B
:102000009C430484048C02FA01F5ADB22C43048491
:1020100030BD70B503460020002418461830012555
:102020008D40ACB21D8CA5431D8409B1082909D18E
:1020300000EB6100056825F0700505600568154333
:1020400005600EE00D1FC5F34E052844056825F414
:10205000E045056005684FF6FF7606EA022635433F
:10206000056070BD21B1028842F00202028004E0E6
:1020700002884FF6FD731A400280704721B1028832
:1020800042F00402028004E002884FF6FB731A401B
:102090000280704721B1828842F08002828004E091
:1020A00082884FF67F731A408280704702884FF60D
:1020B000F7731A40028002880A43028070478288C0
:1020C0004FF68F731A40828082880A43828070475D
:1020D00002894FF6F8731A40028102890A4302818D
:1020E000704702894FF67F731A40028102890A43C2
:1020F000028170478184704781857047818670476F
:102100000187704781877047A0F8401070470288A8
:102110004FF6FF431A40028002880A43028070474C
:102120000146888E70470146088F70470146888FA8
:1021300070470146B1F8400070470146888C7047EF
:102140000146088D704702460020138A0B400BB1F0
:10215000012000E000207047CA430282704730B57A
:102160000246002000230024158A05EA0103958910
:1021700005EA010413B10CB1012000E0002030BDDC
:10218000CA4302827047000010B50446FB488442EF
:1021900009D101218803FEF719FF00214FF4804087
:1021A000FEF714FF32E0F648844209D101214804C9
:1021B000FEF719FF00214FF40030FEF714FF25E071
:1021C000F048844209D101218804FEF70CFF002168
:1021D0004FF48020FEF707FF18E0EB48844209D156
:1021E0000121C804FEF7FFFE00214FF40020FEF796
:1021F000FAFE0BE0E548844208D101210805FEF70C
:10220000F2FE00214FF48010FEF7EDFE10BD2DE927
:10221000F04786B005460E460024A24600BFA14600
:102220000027B08900B100BF2F462C8A4CF6FF7002
:102230000440F08804432C82AC894EF6F31004402D
:10224000B08831890843718908430443AC81AC8A62
:102250004FF6FF400440B0890443AC8201A8FEF76A
:102260002EFEC648874202D1DDF810A001E0DDF85D
:102270000CA0A88900F4004040B10AEBCA0000EBB2
:102280000A1031684900B0FBF1F807E00AEBCA0018
:1022900000EB0A1031688900B0FBF1F86420B8FB4C
:1022A000F0F004012009642101FB1089A88900F4E1
:1022B000004040B1322000EBC900B0FBF1F000F06B
:1022C0000700044308E0322000EB09106421B0FB52
:1022D000F1F000F00F0004432C8106B0BDE8F08758
:1022E0004FF41651016000218180C18001810C21D1
:1022F000418100218181704710B502460020108A7B
:102300004FF2FF0318400B884C8823438C882343EB
:10231000CC8823431843108210BD002101804180E6
:102320008180C180704721B1828942F4005282814C
:1023300004E082894DF6FF731A4082817047F0B540
:102340000346002400260025002040F66A17B94203
:1023500000D100BF1846C1F3421401F01F06012747
:1023600007FA06F5012C01D10C3004E0022C01D152
:10237000103000E014301AB107682F43076002E004
:102380000768AF430760F0BD1AB1838A0B438382AD
:1023900002E0838A8B4383827047028A4FF6F07390
:1023A0001A400282028A0A430282704782894FF2EF
:1023B000FF731A40828182890A438281704721B16A
:1023C000828942F00202828104E082894FF6FD7325
:1023D0001A4082817047028A4FF6DF731A400282E8
:1023E000028A0A430282704721B1028A42F4804283
:1023F000028204E0028A4BF6FF731A4002827047A1
:10240000C1F308028280704701468888C0F3080043
:102410007047818941F0010181817047028BD2B2FE
:102420000283028B42EA012202837047028B02F48C
:102430007F420283028B0A430283704721B1828A62
:1024400042F02002828204E0828A4FF6DF731A4053
:102450008282704721B1828A42F01002828204E0B7
:10246000828A4FF6EF731A408282704721B1828AC6
:1024700042F00802828204E0828A4FF6F7731A4023
:102480008282704721B1828942F40042828103E056
:102490008289C2F30E028281704721B1828A42F49E
:1024A0000062828204E0828A4FF2FF731A408282C5
:1024B0007047828A4FF6FB731A408282828A0A43EF
:1024C0008282704721B1828A42F00202828204E055
:1024D000828A4FF6FD731A408282704702460020BE
:1024E000B1F5007F00D100BF13880B400BB1012074
:1024F00000E00020704701F40072B2F5007F00D1C7
:1025000000BFCA430280704770B502460024002312
:102510000025002040F66A16B14200D100BFC1F389
:10252000421501F01F03012606FA03F3012D02D123
:102530009689334006E0022D02D1168A334001E02D
:10254000968A33400C12012606FA04F416883440A9
:1025500013B10CB1012000E0002070BD10B50022C5
:10256000002340F66A14A14200D100BF0A120124E0
:102570009440A3B2DC43048010BD00000038014049
:102580000044004000480040004C00400050004023
:1025900000F020F802F018FD18E00D48007810B1A6
:1025A00001280FD108E002F022FD01F03BFC10B140
:1025B00001200749087006E002F0B9F8002004493C
:1025C000087000E000BF00BF02F06EFAE5E700000F
:1025D0002800002010B500F033F800F0E5F900F015
:1025E0002DFE00F097F800F089FA01F000FA00F0F3
:1025F000F9FA01F061FB002001F068FB00F006FC35
:102600004FF4E13000F0E9F900F067FF00210846DF
:1026100001F060FA002001F0BAFA002001F0B0FAEF
:1026200002F082FA10BD704700BFFEE700BFFEE770
:1026300000BFFEE700BFFEE7704770477047704776
:1026400010B56FF00400FDF744FF2E4800682E49D6
:10265000B0FBF1F02D4908700846007800EB40010E
:10266000C1EBC0104FF6FF7101EAC0002849088095
:1026700010BD0146254A12784A434FF0E0235A61C3
:1026800000229A611A46126942F001021A6100BFE3
:102690004FF0E022106900F001021AB100F480321C
:1026A000002AF5D04FF0E022126922F001024FF02B
:1026B000E0231A6100229A6170470146144A128889
:1026C0004A434FF0E0235A6100229A611A46126988
:1026D00042F001021A6100BF4FF0E022106900F0E1
:1026E00001021AB100F48032002AF5D04FF0E02246
:1026F000126922F001024FF0E0231A6100229A6170
:10270000704700000000002000127A002A0000201C
:102710002C00002008B501212020FEF73DFC4FF4DD
:102720004070ADF8000010208DF8030003208DF8F4
:10273000020069469948FEF773F94FF440719748D3
:10274000FEF71BFA08BD10B59448001D006820F084
:10275000F0009249091D08600846006840F030000A
:10276000086001208E4908608E49C1F8A00114203C
:10277000FFF77FFF00208A4908601420FFF779FFE8
:1027800000208849C1F8A00110BD10B58348001D84
:10279000006820F0F0008149091D086008460068C3
:1027A00040F03000086000207D49091F08607D4925
:1027B000C1F8A4011420FFF75CFF01207849091F2C
:1027C00008607849C1F8A4011420FFF752FF10BD3A
:1027D00010B500247148001D006820F0F0006F491A
:1027E000091D08600846006840F080000860481530
:1027F0006A490C3108600120694908600A20FFF726
:1028000038FF01206749C1F8A0010A20FFF731FF16
:1028100007E0601CC4B2FA2C03DDFFF7B6FF01200D
:1028200010BD5F48803800680028F2D15C49091F5C
:10283000086000BFF4E710B500205949091F08607F
:102840005648001D006820F0F0005449091D08603A
:102850000846006840F03000086000205149C1F887
:10286000A4011420FFF705FF01204D49091F08604E
:102870001420FFF7FEFE00204A49C1F8A00110BD58
:1028800010B500204649091F08604448001D006833
:1028900020F0F0004149091D08600846006840F03A
:1028A0003000086001203F49C1F8A4010220FFF771
:1028B000E0FE01203A49091F08600220FFF7D9FE17
:1028C00000203849C1F8A00110BD70B50446334856
:1028D000001D006820F0F0003049091D086008461E
:1028E000006840F03000086000202D49091F086092
:1028F000002517E0E0092A4908606006040E02205E
:10290000FFF7B7FE01202749C1F8A0010220FFF719
:10291000B0FE00202249091F08600220FFF7A9FE2F
:10292000681CC5B2082DE5DB70BD70B505460024F6
:102930001A48001D006820F0F0001849091D0860C1
:102940000846006840F080000860481513490C31C3
:102950000860002617E000201149091F08600220C6
:10296000FFF787FE01200F49C1F8A0016006040EA1
:102970000B488038006808B1601CC4B20120FFF722
:1029800078FE701CC6B2082EE5DB15B9FFF778FF9C
:1029900001E0FFF750FF204670BD00000014014029
:1029A000A48122420080224210B54FF44070FDF70E
:1029B00041FD10BD014600BF704770B504460D468D
:1029C00000BF40214948FFF789FD0028F9D0E1B256
:1029D0004648FFF715FD204670BD10B586B0044689
:1029E0001E224349434800F0F0F901211020FEF770
:1029F000D3FA0121C804FEF7DCFA4FF48060ADF889
:102A0000140003208DF8160018208DF8170005A972
:102A10003948FEF705F84FF40060ADF814000420C3
:102A20008DF8170005A93448FDF7FAFF34208DF81A
:102A3000000003208DF8010000208DF80200012025
:102A40008DF803006846FDF7FAFC01940020ADF80C
:102A50000800ADF80A00ADF80C00ADF810000C202D
:102A6000ADF80E0001A92148FFF7D1FB012240F289
:102A700025511E48FFF763FC01211C48FFF753FC5A
:102A800040211A48FFF737FD06B010BD10B540F2DF
:102A900025511648FFF738FD78B140F2255113480B
:102AA000FFF75CFD1148FFF7AFFCC4B211482146A7
:102AB00002699047032000F000FA10BD70B5064689
:102AC0000C4615460BE014F8011B3046FFF798FC46
:102AD00000BF40213046FFF701FD0028F9D0281E35
:102AE000A5F101018DB2EED170BD0000004C004097
:102AF00078130020541300200010014000B587B067
:102B000001214FF40470FEF747FA4FF40040FEF73E
:102B1000A7F90F20ADF8040000208DF8070001A9E7
:102B20002E48FDF77DFF2E48FDF7F2FC00200290B5
:102B30008DF80C008DF80D004FF4602004900020FB
:102B4000059001208DF8180002A92548FDF707FD22
:102B500001212348FDF72FFD2148FDF74EFD00BF61
:102B60001F48FDF74FFD0028FAD11D48FDF754FD21
:102B700000BF1B48FDF755FD0028FAD107B000BD86
:102B800010B504460723012221461548FDF77FFDB5
:102B900001211348FDF74FFD00BF02211048FDF74A
:102BA000BBFE0028F9D00E48FDF7D8FD10BD2DE979
:102BB000F04107460C460025002608E03846FFF79E
:102BC000DFFF05440120FFF778FD701CC6B2A64266
:102BD000F4DBB5FBF4F080B2BDE8F08100100140F9
:102BE0000024014000B585B00121C803FEF7E1F9DA
:102BF0000020ADF800004FF48270ADF80200002014
:102C0000ADF804000220ADF806000120ADF8080080
:102C10004002ADF80A003820ADF80C000020ADF8F5
:102C20000E000720ADF8100069461848FEF73EFA7E
:102C300001211648FEF7DFFA05B000BD70B5054664
:102C4000002405E0601CC4B2C82C01DD002070BD6A
:102C500002210E48FEF753FB0028F3D029460B480B
:102C6000FEF7FAFA002405E0601CC4B2C82C01DDAE
:102C70000020ECE701210548FEF741FB0028F3D0D6
:102C80000248FEF7EBFAC0B2E1E70000003C00406A
:102C90000A68C3689A4203D20A68521C0A6001E0BB
:102CA00082680A60704770B504460D46606818B9BE
:102CB000A068606020600BE0211D2046FFF7E8FF60
:102CC000D4E90010884203D121462046FFF7E0FFF7
:102CD0006068057070BD2DE9F04104460F46154649
:102CE0004FF000082046216A8847A84219DB0026D9
:102CF00014E0206802784046411C0FFA81F83A54EB
:102D0000D4E90001884203D100202060606007E020
:102D100021462046FFF7BCFF701C06B2AE42E8DB3E
:102D200000BF4046BDE8F08170B504460E4620461F
:102D3000216A8847B04203DA2046A16988471AE031
:102D4000A0882189401A401C85B2B54206DB616823
:102D5000491B481C294602F025FB0BE02946A068C8
:102D600002F020FB701B85B2E168491B481C294614
:102D700002F018FB00BF70BD10B501460A680AB921
:102D8000002012E0D1E900329A4205D38A880B88EC
:102D9000D21A521C90B208E08A890B89D21A0B8889
:102DA0008C881B1BD21A921C90B210BD70B50446C1
:102DB000A0892189401A401C85B22946A06802F0EA
:102DC000F1FA00202060606070BD30B581608B1822
:102DD0005B1EC3600023036043600024531E8568AC
:102DE000EC54AFF23D130361044B4361044B836128
:102DF000044BC361044B036230BD0000D72C0008B4
:102E0000AD2D0008292D0008792D00081FB50121DE
:102E10000220FEF7CEF840F2F310ADF8080041F6BC
:102E20001F40ADF804000020ADF80A00ADF8060020
:102E300001A92D48FEF76EFB1D208DF8000006202D
:102E40008DF8010000208DF8020001208DF80300AC
:102E50006846FDF7F4FA01212348FFF791F90122B2
:102E600011462148FEF7CDFE1FBD022807D10021E3
:102E7000420791844107098821F00101118003284C
:102E800009D10021184A243211801749098821F0FC
:102E90000101154A1180704710B501211248FFF752
:102EA0005EF948B101211048FFF76AF90320FFF7E6
:102EB000DCFF01200D49087010BD022807D1002158
:102EC000420791844107098841F0010111800328DC
:102ED00009D10021044A243211800349098841F0B4
:102EE0000101014A118070470004004034000020B5
:102EF00070B504460026FFF726FC2546E11704EBD3
:102F000011610912A02202EB4101C8B2FFF7DDFCFA
:102F1000FFF75EFCE11704EB11610912A4EB01213C
:102F2000C8B2FFF7D2FCFFF753FCFFF70CFCA1205F
:102F3000FFF7CBFCFFF74CFC0020FFF7F6FC064642
:102F4000FFF723FC304670BD70B504460E46FFF710
:102F5000FAFB2546E11704EB11610912A02202EBEE
:102F60004101C8B2FFF7B1FCFFF732FCE11704EBF7
:102F700011610912A4EB0121C8B2FFF7A6FCFFF70B
:102F800027FC3046FFF7A1FCFFF722FCFFF7FDFB13
:102F90000A20FFF792FB70BD2DE9F04106460F466F
:102FA000154601240EE0621ED20027FA02F2D1B2C9
:102FB0007219121B90B2FFF7C7FF0A20FFF77DFBC3
:102FC000601CC4B2AC42EEDDBDE8F0812DE9F041F9
:102FD00007460C46002625460BE036023919491BE8
:102FE00088B2FFF785FF06440A20FFF766FB681EDC
:102FF000C5B2002DF1DC3046BDE8F08110B540F2DD
:10300000FF10FFF775FF0446552C01D1002010BDBD
:10301000552140F2FF10FFF797FF40F2FF10FFF736
:1030200067FF0446552C01D10020F0E70120EEE7B0
:1030300070B506460C46154608E03046721C96B23E
:10304000FFF756FF04F8010B681E85B2002DF4D17E
:1030500070BD70B505460C46164606E02178284638
:10306000FFF772FF681C85B2641C301EA6F10101D7
:103070008EB2F3D170BD000070B505460E466E48A5
:10308000845D002D67D184B90021012000F0CAFAC7
:103090000021032000F0C6FA0021052000F0C2FA4A
:1030A0000021072000F0BEFAC5E0002C12DD202C24
:1030B00010DC2146012000F0B5FA0021032000F0C9
:1030C000B1FA0021052000F0ADFA0021072000F040
:1030D000A9FAB0E0202C14DD402C12DC00210120E4
:1030E00000F0A0FAA4F1200081B2032000F09AFAC7
:1030F0000021052000F096FA0021072000F092FA46
:1031000099E0402C14DD602C12DC0021012000F03D
:1031100089FA0021032000F085FAA4F1400081B271
:10312000052000F07FFA0021072000F07BFA82E002
:103130000021012000F076FA0021032000F072FA4D
:103140000021052000F06EFAA4F1600081B2072092
:1031500000F068FA6FE0012D67D184B900210220E8
:1031600000F060FA0021042000F05CFA0021062043
:1031700000F058FA0021082000F054FA5BE0002C1F
:1031800012DD202C10DC2146022000F04BFA002139
:10319000042000F047FA0021062000F043FA002145
:1031A000082000F03FFA46E0202C14DD402C12DC11
:1031B0000021022000F036FAA4F1200081B20420A0
:1031C00000F030FA0021062000F02CFA002108203F
:1031D00000F028FA2FE0402C14DD602C12DC0021D6
:1031E000022000F01FFA0021042000F01BFAA4F1D5
:1031F000400081B2062000F015FA0021082000F0FE
:1032000011FA18E00021022000F00CFA002104203D
:1032100000F008FA0021062000F004FAA4F1600092
:1032200081B2082000F0FEF905E0022D03D1022151
:103230000A2000F0F7F970BD3500002008B5012123
:103240007D20FDF7A9FE01215D48FDF7BAFC48F29B
:103250001F00ADF8000010208DF8030003208DF84A
:10326000020069465748FDF7DBFB48F21F0155484D
:10327000FDF785FC4FF48070ADF8000004208DF858
:10328000030069464F48FDF7CBFB40F64470ADF8AC
:10329000000010208DF8030003208DF8020069461D
:1032A0004948FDF7BDFB40F644714748FDF767FC10
:1032B0000320ADF8000004208DF803006946424861
:1032C000FDF7AEFB8020ADF8000048208DF803002C
:1032D00069463D48FDF7A4FB80213B48FDF74DFCC6
:1032E0003820ADF8000018208DF8030003208DF879
:1032F000020069463448FDF793FB38213248FDF758
:103300003CFC4FF47040ADF8000010208DF8030035
:1033100003208DF8020069462C48FDF781FB4FF42D
:1033200070412A48FDF72BFC4FF47C70ADF800008B
:1033300004208DF8030069462448FDF771FB41F62F
:103340007F40ADF8000010208DF8030003208DF8B9
:10335000020069461E48FDF763FB41F67F411C48A9
:10336000FDF70DFC4FF46040ADF8000004208DF82F
:10337000030069461648FDF753FB8020ADF80000B6
:1033800048208DF8030069461148FDF749FB80216C
:103390000F48FDF7F2FB4FF6FF70ADF8000010206C
:1033A0008DF8030003208DF8020069460948FDF7F7
:1033B00037FB4FF6FF710748FDF7E1FB08BD000042
:1033C0000002300000080140000C014000100140E4
:1033D000001401400018014070B50446002524E0A7
:1033E00020218D48FDF7CBFB04F0800020B1402167
:1033F0008948FDF7C2FB03E040218748FDF7BFFB8A
:103400006006040E0A20FFF734F920218248FDF7F8
:10341000B4FB0A20FFF72DF920217F48FDF7AFFB11
:103420000A20FFF726F9681CC5B2082DD8DB70BD4D
:1034300010B5044680217848FDF79FFB0120FFF777
:103440003CF9F820FFF7C8FF04F0F000FFF7C4FFD5
:10345000F02101EA0410FFF7BFFF80216E48FDF75D
:103460008EFB0220FFF729F910BD10B5044680211C
:103470006948FDF782FB0120FFF71FF9FA20FFF7EB
:10348000ABFF04F0F000FFF7A7FFF02101EA041002
:10349000FFF7A2FF80216048FDF771FB0220FFF7D4
:1034A0000CF910BD08B501210820FDF775FDE820D5
:1034B000ADF8000010208DF8030003208DF8020005
:1034C00069465548FDF7ACFAE8215448FDF757FB2B
:1034D00008215148FDF751FB08BD10B56420FFF7E6
:1034E000ECF8FFF7DFFF3020FFF7A2FF0C20FFF71B
:1034F0009FFF0120FFF79CFF1420FFF7DEF8062056
:10350000FFF796FF10BD10B500243020FFF790FFA5
:103510008020FFF78DFF00BF04E02020FFF7A5FF0C
:10352000601CC4B2402CF8DB10BD70B50446002509
:1035300000263020FFF77CFF34B1012C06D0022C8E
:1035400006D0032C08D105E0802605E0902603E094
:10355000882601E0982600BF00BF3046FFF768FFCD
:10356000002504E02020FFF780FF681CC5B2102D65
:10357000F8DB70BD70B505460E4614463020FFF7E7
:1035800057FF082101FB0561254A505CFFF750FFFA
:1035900018E0082E02D10026681CC5B2042D00D107
:1035A0000025082101FB05611D4A505CFFF740FF23
:1035B0002078FFF75AFF641C2078FFF756FF641C41
:1035C000701CC6B220780028E3D170BD30B5024629
:1035D0000020002300BF0A2491FBF4F504FB15131F
:1035E00091FBF4F4A1B203F1300402F8014B441C46
:1035F000E0B20029EFD130BD10B50346002000BF76
:1036000006E09C18241A14F8014C0C54441CE0B237
:103610009042F6DB10BD000000080140000C0140A4
:10362000F258000870B506460D46012E2CD1C5F1A2
:10363000200085B2002419E0AC4205D14FF480711E
:10364000FC48FDF79CFA04E04FF48071F948FDF75F
:1036500094FA8021F748FDF792FA2820FFF709F83D
:103660008021F448FDF789FA601CC4B2202CE3DB0A
:103670000421F148FDF783FA2820FEF7FAFF042120
:10368000ED48FDF77AFAB1E1022E30D1C5F1200004
:1036900085B200241BE0AC4205D14FF40061E5483F
:1036A000FDF76DFA04E04FF40061E248FDF765FABA
:1036B0004FF48061DF48FDF762FA2820FEF7D9FF5A
:1036C0004FF48061DB48FDF758FA601CC4B2202C2F
:1036D000E1DB4FF40071D748FDF751FA2820FEF7DF
:1036E000C8FF4FF40071D348FDF747FA7EE1032E7F
:1036F0002CD1C5F1200085B2002417E0AC4204D1E2
:103700000221CE48FDF73BFA03E00221CB48FDF74A
:1037100034FA0121C948FDF732FA2820FEF7A9FF43
:103720000121C648FDF729FA601CC4B2202CE5DB54
:103730004FF48051C248FDF722FA2820FEF799FF86
:103740004FF48051BE48FDF718FA4FE1042E2AD1FC
:10375000C5F1200085B2002417E0AC4204D110214D
:10376000B648FDF70CFA03E01021B448FDF705FA5E
:103770000821B248FDF703FA2820FEF77AFF082156
:10378000AE48FDF7FAF9601CC4B2202CE5DB042139
:10379000AA48FDF7F4F92820FEF76BFF0421A7489B
:1037A000FDF7EBF922E1052E2ED1C5F1200085B2FF
:1037B00000241BE0AC4205D14FF400719E48FDF798
:1037C000DEF904E04FF400719B48FDF7D6F94FF4A1
:1037D00080719948FDF7D3F92820FEF74AFF4FF48E
:1037E00080719548FDF7C9F9601CC4B2202CE1DB5B
:1037F00020219248FDF7C3F92820FEF73AFF202147
:103800008E48FDF7BAF9F1E0062E2AD1C5F1200065
:1038100085B2002417E0AC4204D104218548FDF7AD
:10382000AEF903E004218348FDF7A7F9022181489E
:10383000FDF7A5F92820FEF71CFF02217D48FDF7C2
:103840009CF9601CC4B2202CE5DB01217948FDF70E
:1038500096F92820FEF70DFF01217648FDF78DF936
:10386000C4E0072E30D1C5F1200085B200241BE052
:10387000AC4205D14FF400417148FDF780F904E0F6
:103880004FF400416E48FDF778F94FF480416C48E1
:10389000FDF775F92820FEF7ECFE4FF480416848EB
:1038A000FDF76BF9601CC4B2202CE1DB4FF4005132
:1038B0006348FDF764F92820FEF7DBFE4FF4005162
:1038C0005F48FDF75AF991E0082E2AD1C5F1200092
:1038D00085B2002417E0AC4204D104215948FDF719
:1038E0004EF903E004215748FDF747F902215548F6
:1038F000FDF745F92820FEF7BCFE02215148FDF7EF
:103900003CF9601CC4B2202CE5DB01214D48FDF7D9
:1039100036F92820FEF7ADFE01214A48FDF72DF9C2
:1039200064E0092E30D100241EE005FA04F000F016
:10393000800028B14FF400413E48FDF71EF904E035
:103940004FF400413B48FDF71AF94FF400613A4843
:10395000FDF715F92820FEF78CFE4FF4006136487C
:10396000FDF70BF9601CC4B2082CDEDB4FF480615C
:103970003148FDF704F92820FEF77BFE4FF4806103
:103980002D48FDF7FAF831E00A2E2FD100241EE071
:1039900005FA04F000F0800028B14FF48061274858
:1039A000FDF7EDF804E04FF480612448FDF7E5F8F9
:1039B0004FF480512148FDF7E2F82820FEF759FE28
:1039C0004FF480511D48FDF7D8F8601CC4B2082C94
:1039D000DEDB4FF400611948FDF7D1F82820FEF72F
:1039E00048FE4FF400611548FDF7C7F870BD10B5EB
:1039F00000210120FFF716FE00210220FFF712FE32
:103A000000210320FFF70EFE00210420FFF70AFE2D
:103A100000210520FFF706FE00210620FFF702FE29
:103A200000210720FFF7FEFD00210820FFF7FAFD27
:103A300010BD000000180140000C014000140140BE
:103A4000001001400008014010B504462CB94FF4A5
:103A500000511D48FDF777F810BD012C04D1A103DA
:103A60001948FDF770F8F7E7022C04D1A1031648B6
:103A7000FDF769F8F0E7032C04D140211348FDF766
:103A800062F8E9E7042C04D180211048FDF75BF8C7
:103A9000E2E7052C05D14FF480710C48FDF753F88F
:103AA000DAE7062C05D14FF400710848FDF74BF812
:103AB000D2E7072C05D14FF480710548FDF743F894
:103AC000CAE700BFC8E70000001401400010014031
:103AD0000008014070B504460D46012D05D173481C
:103AE000007820437149087004E070480078204055
:103AF0006E4908706D4801780920FFF793FD70BD8D
:103B000010B50446012C04D101036948FDF735F8CE
:103B100035E0042C04D1A1026548FDF730F82EE011
:103B2000022C04D121036248FDF727F827E0052C79
:103B300005D14FF400515E48FDF721F81FE0032C3A
:103B400005D14FF480415A48FDF717F817E0062CCD
:103B500005D14FF480415648FDF711F80FE074B9D4
:103B60004FF480515248FDF70AF84FF40051504885
:103B7000FDF705F84FF480414D48FDF700F810BD02
:103B800010B5044621460A20FFF74CFD10BD10B5C4
:103B90000446012C14D108214548FCF7EEFF102102
:103BA0004348FCF7ECFF20214148FCF7E8FF4021A7
:103BB0003F48FCF7E4FF10213E48FCF7E0FF70E0CF
:103BC000022C14D110213A48FCF7D7FF08213848BD
:103BD000FCF7D5FF20213648FCF7D1FF40213448BF
:103BE000FCF7CDFF10213348FCF7C9FF59E0032C47
:103BF00014D120212E48FCF7C0FF08212C48FCF7E7
:103C0000BEFF10212A48FCF7BAFF40212848FCF7E4
:103C1000B6FF10212748FCF7B2FF42E0042C14D174
:103C200040212348FCF7A9FF08212148FCF7A7FF02
:103C300010211F48FCF7A3FF20211D48FCF79FFF20
:103C400010211C48FCF79BFF2BE0052C14D1102100
:103C50001848FCF792FF08211548FCF790FF102147
:103C60001348FCF78CFF20211148FCF788FF402106
:103C70000F48FCF784FF14E09CB908210C48FCF7BE
:103C80007EFF10210A48FCF77AFF20210848FCF744
:103C900076FF40210648FCF772FF10210548FCF72B
:103CA0006EFF0A20FEF709FD10BD000096000020FF
:103CB000001801400008014010B540215748FCF7AA
:103CC0005CFF40215648FCF758FF10BD70B5044614
:103CD000002524B940215148FCF751FF03E0402161
:103CE0004F48FCF74CFF0120FEF7E7FC002507E0FA
:103CF000FF20FEF7A3FF6420FEF7BBFC681CC5B2E3
:103D0000642DF5DB0120FEF7D8FC2020FEF796FF9E
:103D10004FF4FA70FEF7ADFC0C20FEF78FFF4FF466
:103D2000FA70FEF7A6FC1020FEF788FF4FF4FA7039
:103D3000FEF79FFC4020FEF781FF4FF4FA70FEF77C
:103D400098FC4FF4FA70FEF7B8FC2120FEF776FFDE
:103D50004FF4FA70FEF78DFC0C20FEF76FFF4FF466
:103D6000FA70FEF786FC1120FEF768FF4FF4FA7038
:103D7000FEF77FFC4020FEF761FF4FF4FA70FEF77C
:103D800078FC4FF4FA70FEF798FC24B940212348E0
:103D9000FCF7F3FE03E040212148FCF7EEFE70BD86
:103DA00070B505460E46002400BF80211B48FCF775
:103DB000CAFE0028F9D10120FEF77FFC25B9402179
:103DC0001648FCF7DCFE03E040211548FCF7D7FE5F
:103DD0000120FEF772FC1EB93820FEF72FFF02E02B
:103DE0003920FEF72BFF6420FEF767FCFF20FEF76B
:103DF00025FF04434FF6FF7000EA0424FF20FEF77E
:103E00001DFF044325B940210448FCF7B6FE03E03A
:103E100040210348FCF7B1FE204670BD001401406C
:103E2000000C014010B50020FFF70EFE40B10A2043
:103E3000FEF743FC0020FFF707FE08B1102010BD7D
:103E40000020FCE72DE9FC5F4FF00008002500266C
:103E500000240027A246A346002001900320FFF77C
:103E600096FEFC484578867829460020FFF704F93D
:103E700031460120FFF700F90A20FEF71EFC0B2057
:103E800001F03AF9009001F0A1FC0190F24901988B
:103E900001F0B0FC5ED20520FFF779FE0320FFF7AA
:103EA0006FFE00BF52E000210846FFF779FF04468D
:103EB00047F6FF7084420CDB201A41F288314843F8
:103EC0004FF6FF7190FBF1F0009001F067FC0746A0
:103ED0000DE047F6FF70001B41F2883148434FF672
:103EE000FF7190FBF1F0009001F058FC07460121B2
:103EF0000020FFF755FF0446A4F5FE40FF383221AD
:103F000048434FF6FF7190FBF1F0009001F046FC42
:103F100082465146384601F05FFB8346CF49B1F9EE
:103F20000010481D01F03AFC5946009001F062FC77
:103F300005D24FF001090A20FEF7BFFB02E04FF067
:103F4000000906E008F1010000F0FF08B8F1030FD6
:103F5000A9DB01E04FF00109B9F1000F2DD0019864
:103F600001F0FCFBBE49498801EB8101BD4A02EB2F
:103F70004101C880BA49498801EB810102EB410146
:103F8000CD70B749498801EB810102EB41010E7107
:103F90000120B349498801EB810102EB410188709E
:103FA0000020AF49498801EB810102EB4101087211
:103FB000AB484088401CAA494880019801F0CEFBDC
:103FC000A749098801EB8101A74A02EB4101C8809A
:103FD000A349098801EB810102EB4101CD70A049A1
:103FE000098801EB810102EB41010E7101209C491E
:103FF000098801EB810102EB41018870002098499A
:10400000098801EB810102EB4101087294480088A4
:10401000401C934908800320FFF7B9FD8D4890F8B4
:10402000585090F8596029460020FFF725F831468E
:104030000120FFF721F80A20FEF73FFB0B2001F0DB
:104040005BF8009001F0C2FB01908349019801F0F8
:10405000D1FB5FD20520FFF79AFD0C20FFF790FD02
:104060004FF0000852E000210846FFF799FE044691
:1040700047F6FF7084420CDB201A41F28831484336
:104080004FF6FF7190FBF1F0009001F087FB0746BF
:104090000DE047F6FF70001B41F2883148434FF6B0
:1040A000FF7190FBF1F0009001F078FB07460121D1
:1040B0000020FFF775FE0446A4F5FE40FF383221CC
:1040C00048434FF6FF7190FBF1F0009001F066FB62
:1040D00082465146384601F07FFA83465F49B1F97E
:1040E0000010481D01F05AFB5946009001F082FB78
:1040F00005D24FF001090A20FEF7DFFA02E04FF087
:10410000000906E008F1010000F0FF08B8F1030F14
:10411000A9DB01E04FF00109B9F1000F2DD00198A2
:1041200001F01CFB4E49498801EB81014D4A02EB2D
:104130004101C8804A49498801EB810102EB4101F4
:10414000CD704749498801EB810102EB41010E71B5
:1041500001204349498801EB810102EB410188704C
:1041600000203F49498801EB810102EB41010872BF
:104170003B484088401C3A494880019801F0EEFADB
:104180003749098801EB8101374A02EB4101C880B8
:104190003349098801EB810102EB4101CD703049BF
:1041A000098801EB810102EB41010E7101202C49CC
:1041B000098801EB810102EB410188700020284948
:1041C000098801EB810102EB410108722448008853
:1041D000401C234908800020FFF7D2FC0020FFF795
:1041E000D6FCBDE8FC9F2DE9F0470024A046A1467F
:1041F0000026002700250320FFF7C9FC00BF9FE031
:1042000057206043194908444678572060430844C2
:10421000877831460020FEF72FFF39460120FEF750
:104220002BFF0820FEF749FA4FF0000827E00B208B
:1042300000F062FF05460A484088084931F910003D
:104240000A30A84214DA4FF001090A20FEF735FAC5
:1042500011E000009E0000200000A0413623002055
:104260009800002096130020661B00204C010020BF
:104270004FF0000906E008F1010000F0FF08B8F176
:10428000030FD4DB00BFB9F1000F2BD0FE484088EC
:1042900000EB8000FD4901EB4000C580FA494988E8
:1042A00001EB8101F94A02EB4101CE70F6494988E0
:1042B00001EB810102EB41010F710120F2494988B4
:1042C00001EB810102EB410188700020EE49498831
:1042D00001EB810102EB41010872EB484088401C70
:1042E000E9494880E848008800EB8000E84901EB94
:1042F0004000C580E449098801EB8101E44A02EBF2
:104300004101CE70E049098801EB810102EB4101D6
:104310000F710120DC49098801EB810102EB4101A9
:1043200088700020D849098801EB810102EB410126
:104330000872D5480088401CD3490880601CC4B26C
:10434000322CFFF65DAF0220FFF721FC00248AE04B
:10435000D048065D611C475C31460020FEF78CFEAC
:1043600039460120FEF788FE0820FEF7A6F94FF037
:10437000000817E00C2000F0BFFE0546C648B0F963
:10438000680000F57A70A84205DD4FF001090A20A7
:10439000FEF793F902E04FF0000906E008F1010092
:1043A00000F0FF08B8F1030FE4DB00BFB9F1000F24
:1043B0002BD0B548408800EB8000B44901EB4000A9
:1043C000C580B149498801EB8101B04A02EB410146
:1043D000CE70AD49498801EB810102EB41010F71BB
:1043E0000120A949498801EB810102EB4101887054
:1043F0000020A549498801EB810102EB41010872C7
:10440000A1484088401CA04948809F48008800EB94
:1044100080009F4901EB4000C5809B49098801EB62
:1044200081019B4A02EB4101CE709749098801EB5B
:10443000810102EB41010F7101209349098801EBD1
:10444000810102EB4101887000208F49098801EB4E
:10445000810102EB410108728B480088401C8A49A7
:104460000880A01CC4B20A2CFFF672AF0220FFF72E
:104470008EFB00248AE08948065D611C475C31465A
:104480000020FEF7F9FD39460120FEF7F5FD082072
:10449000FEF713F94FF0000817E00C2000F02CFE97
:1044A00005467D48B0F9680000F57A70A84205DD40
:1044B0004FF001090A20FEF700F902E04FF0000971
:1044C00006E008F1010000F0FF08B8F1030FE4DB9B
:1044D00000BFB9F1000F2BD06B48408800EB800083
:1044E0006A4901EB4000C5806749498801EB8101B9
:1044F000664A02EB4101CE706349498801EB8101B4
:1045000002EB41010F7101205F49498801EB8101F4
:1045100002EB4101887000205B49498801EB810171
:1045200002EB4101087258484088401C56494880B7
:104530005548008800EB8000554901EB4000C580DC
:104540005149098801EB8101514A02EB4101CE70CA
:104550004D49098801EB810102EB41010F710120F6
:104560004949098801EB810102EB41018870002073
:104570004549098801EB810102EB4101087242487B
:104580000088401C40490880A01CC4B21E2CFFF6C5
:1045900072AF0220FFF7FBFA002497E04048065D67
:1045A000611C475C31460020FEF766FD394601205C
:1045B000FEF762FD4FF0000817E00C2000F09CFDB4
:1045C00005463548B0F9680000F57A70A84205DD67
:1045D0004FF001090A20FEF770F802E04FF00009E1
:1045E00006E008F1010000F0FF08B8F1030FE4DB7A
:1045F00000BFB9F1000F2BD02348408800EB8000AA
:10460000224901EB4000C5801F49498801EB810127
:104610001E4A02EB4101CE701B49498801EB810122
:1046200002EB41010F7101201749498801EB81011B
:1046300002EB4101887000201349498801EB810198
:1046400002EB4101087210484088401C0E49488026
:104650000D48008800EB80000D4901EB4000C5804B
:104660000949098801EB8101094A02EB4101CE7039
:104670000549098801EB810102EB41010F7101201D
:10468000014909880EE000009800002096130020E0
:10469000661B00204B12002036230020A2120020AF
:1046A000F912002001EB810102EB4101887000202A
:1046B0005049098801EB810102EB410108724D4824
:1046C0000088401C4B490880A01CC4B21E2CFFF679
:1046D00065AF0020FFF75BFABDE8F0872DE9F041F8
:1046E00005460024002600270320FFF750FA012486
:1046F00015E021460020FEF7BFFC0B20FEF740FA34
:104700000746B7F5FA7F05D23B48005D05F8010B77
:10471000701CC6B26420FDF7ACFF601CC4B2612CF3
:10472000E7DB0020FFF733FA3046BDE8F08110B533
:10473000002400F0BFFC01210820FFF7CBF9C820BE
:10474000FDF7BBFF01212020FFF7C4F927E002207D
:10475000FFF77AF900B123E00320FFF775F9A0B164
:1047600000F032FC0021F720FFF7B4F96420FDF7D8
:10477000A4FF0021EF20FFF7ADF96420FDF79DFFB6
:104780000021DF20FFF7A6F910BD2046611C8CB286
:10479000B0F5FA6F00DD03E00120FDF78EFFD6E7EC
:1047A00000BF01211020FFF795F96420FDF785FF78
:1047B00000201049487148800871FFF743FBFFF75C
:1047C00012FD0021EF20FFF785F96420FDF775FF4A
:1047D0000021DF20FFF77EF96420FDF76EFF002146
:1047E000F720FFF777F901200249487100F037FB05
:1047F00000BFC9E7980000203500002010B5024630
:104800000B460021002000BF04E0545C0444E0B2E9
:104810004C1CE1B29C1DA142F7DB10BDA520D44980
:10482000087048700220D349087070479620D0491C
:10483000087048700220CF490870704770B5002496
:104840000025CC48007802280EDD00BF05E0C848EE
:10485000005D281AC5B2601CC4B2C6480078401E6C
:10486000A042F4DCC2480555C2480278C049C2489B
:10487000FEF724F90020BF49087070BD2DE9FC4106
:1048800005460026AF7800200190072F70D2DFE8A0
:1048900007F06F0428709EC3D800B848407978B1FB
:1048A0004020B34908700020487001208870002023
:1048B000C8700120087148710720AE4908700FE0E8
:1048C0004020AB490870002048700120887000200B
:1048D000C87001200871002048710720A5490870A0
:1048E000DFE04020A2490870002048700220887054
:1048F0000020C870A148007800EB4000401C0871FF
:104900009E48007910B10020487102E001209849CA
:104910004871002420E004EB8400994901EB400039
:10492000C17804EB4400801D914A115404EB8400CB
:10493000934901EB4000017904EB4400C01D115480
:1049400004EB84008E4901EB4000817904EB4400C4
:1049500008301154601CC4B288480088A042DADCD8
:104960008648007800EB4000C01D8249087098E03E
:1049700094E06E79352E27DC002E25DDA979721E94
:10498000012303EB420290B2FEF7DEFAE979721ED0
:10499000012303EB420290B2FEF7D6FA342E08DC74
:1049A000E979A87901EB002000B2764921F81400DA
:1049B00007E0E979A87901EB002000B27149A1F87C
:1049C0006800FFF72BFF01E0FFF730FF69E06E7929
:1049D000352E1EDC711E012202EB410188B202223B
:1049E00001A9FEF725FB40206149087000204870AE
:1049F000042088700020C87001200871BDF80400F0
:104A000000124871BDF804008871082059490870E7
:104A100001E0FFF70BFF44E0002409E0601C0021E7
:104A2000FEF792FA0020574921F81400601CC4B226
:104A30006A2CF3DB00205349A1F86800FFF7EEFE73
:104A40002FE05048B0F900304F48827841784FA0AD
:104A500000F094FB4B48B0F902304B4890F85920D5
:104A600090F8581050A000F089FB002413E045494D
:104A7000A01C31F9100000905720604351490844B0
:104A800083785720604308444278E11C4EA000F030
:104A900075FB601CC4B2322CE9DB02E0FFF7C6FEF6
:104AA00000BF00BFBDE8FC8170B58AB0002428219A
:104AB000684600F099FC002500264B480078002845
:104AC00030D04A48016A8847054645B347482A46D8
:104AD00069464369984706E01DF80400402800D164
:104AE00003E0601CC4B2AC42F6DB00BFE01C1DF862
:104AF00000000643201D1DF8000040EA062086B293
:104B00000DEB04003146FFF779FE20B90DEB0400F0
:104B1000FFF7B4FE01E0FFF789FEFFF78FFE0020EC
:104B2000314908700AB070BD70B50020FEF7E0F999
:104B30000546322D0FD032210020FEF705FA002461
:104B400006E0611C88B20021FEF7FEF9601C84B209
:104B50006A2CF6DB0AE068220A490120FEF768FAAF
:104B60000222084968316B20FEF762FA70BD00002E
:104B7000A02300204F130020004C0040980000208C
:104B8000661B0020362300209E00002050616E65C9
:104B90006C5F30313A2028253032642C2530326465
:104BA00029202D2025640A0050616E656C5F30322B
:104BB0003A2028253032642C2530326429202D20DB
:104BC00025640A004C01002050616E656C5F253041
:104BD00032643A2028253032642C25303264292072
:104BE0002D2025640A00000034000020541300200A
:104BF00010B500240120FEF727FF012815D10A2057
:104C0000FDF75BFD04E0601C84B20120FDF755FD5B
:104C10000120FEF719FF0128F5D040F2DC50844254
:104C200001DD312010BD3020FCE70020FAE770B52F
:104C300086B005460C46002003900490059000269F
:104C400000900190029004EB8400F84A02EB4000CF
:104C5000C17803A8FEF7BAFC06463246694603A8A7
:104C6000FEF7CAFC6A4600212846FEF783FC0020B6
:104C70000390ADF8100004EB8400EC4A02EB400016
:104C8000017903A8FEF7A2FC06463246694603A84E
:104C9000FEF7B2FC6A4602212846FEF76BFC0020B4
:104CA0000390ADF8100004EB8400E04A02EB4000F2
:104CB000C18803A8FEF78AFC06463246694603A867
:104CC000FEF79AFC6A4604212846FEF753FC06B01C
:104CD00070BD10B504460020FEF727FC0120FEF74A
:104CE00024FC0220FEF721FC0320FEF71EFCD0A2CC
:104CF00000210846FEF73EFC21460120FFF797FF02
:104D0000601CC1B20220FFF792FFA01CC1B20320B9
:104D1000FFF78DFF10BD30B587B00446002004902A
:104D2000059006900025019002900390FEF7FDFB90
:104D30000120FEF7FAFB0220FEF7F7FB0320FEF747
:104D4000F4FBC0A200210846FEF714FC04EB84002B
:104D5000B64A02EB4000C17804A8FEF737FC0546CE
:104D60002A4601A904A8FEF747FC01AA0321002056
:104D7000FEF700FC00200490ADF81400B3A200215F
:104D80000120FEF7F7FB04EB8400A84A02EB400089
:104D9000017904A8FEF71AFC05462A4601A904A8D1
:104DA000FEF72AFC01AA03210120FEF7E3FB002005
:104DB0000490ADF81400A7A200210220FEF7DAFB50
:104DC00004EB8400994A02EB4000C18804A8FEF776
:104DD000FDFB05462A4601A904A8FEF70DFC01AA21
:104DE00003210220FEF7C6FB04EB84008F4901EB90
:104DF0004000007A28B999A200210320FEF7BAFBEF
:104E000004E099A200210320FEF7B4FB07B030BDF7
:104E1000704710B50020FEF788FB0120FEF785FBE8
:104E20000220FEF782FB0320FEF77FFB91A2032105
:104E30000120FEF79FFB10BD10B50020FEF775FBAB
:104E40000120FEF772FB0220FEF76FFB0320FEF746
:104E50006CFB8AA203210120FEF78CFB10BD10B56C
:104E60008848007950B9FFF7E7FF0021BF20FEF71F
:104E700031FE01218020FEF72DFE09E0FFF7C9FF7A
:104E800000217F20FEF726FE01214020FEF722FEB2
:104E900000207D49087010BD2DE9F043A3B04FF00C
:104EA000000800260024A1460027002558210DA84F
:104EB00000F09AFA00200C902C2101A800F094FA3E
:104EC000724800680090FEF71EFB71A200210846A0
:104ED000FEF750FB01210820FEF7FCFDC820FDF77E
:104EE000ECFB01212020FEF7F5FDC820FDF7E5FBD6
:104EF00001211020FEF7EEFD0021F720FEF7EAFD6C
:104F00004BE00DA8FFF7EAFB81469DF8340000282E
:104F100033D000261FE00DA8815D0CA8FEF756FBDC
:104F20000746002409E02819C5B2381B401E0CA909
:104F3000085C0DF80500601CC4B2BC42F3DB202104
:104F4000681CC0B205460DF80010681CC5B20020F0
:104F50000C90701CC6B24E45DDDB6A460021012074
:104F6000FEF708FB002520223021684600F012FAE7
:104F700058210DA800F038FA08E00120FEF7D5FA14
:104F80000220FEF7D2FA0320FEF7CFFAFFF730FE39
:104F90008046B8F1300F00D100E0B2E700BF002139
:104FA000EF20FEF797FD6420FDF787FB0021DF204F
:104FB000FEF790FD6420FDF780FB0021F720FEF74F
:104FC00089FD23B0BDE8F08310B50020FEF7ADFAEF
:104FD0000120FEF7AAFA0220FEF7A7FA0320FEF747
:104FE000A4FA2DA202210120FEF7C4FA10BD10B5CB
:104FF0000024FFF7FDFD0446302C02D0312C56D1A1
:1050000050E02048407980B11F480078FFF783FEC8
:105010001D480078401CC0B21B49087019494988D6
:10502000884202DB00201849087041E096130020F6
:105030005450312054503220444154412052455361
:10504000000000005450313A000000005450323A41
:1050500000000000446174613A00000055696E74FC
:105060003A20C5B70000000055696E743A20C7A702
:10507000C5B700004661696C0000000050617373A1
:105080000000000098000020501300201459000870
:10509000D5D2B5E3A3BA0000D7BCB1B8B2E2CAD446
:1050A00000000000FFF7F8FEFFF78EFF00E000BFF2
:1050B00000BF10BD10B50020FEF737FA0120FEF743
:1050C00034FA0220FEF731FA0320FEF72EFA07A287
:1050D00002210120FEF74EFA00217F20FEF7FAFCA4
:1050E0000021BF20FEF7F6FC10BD0000B2E2CAD4DA
:1050F000D6D02E2E000000002DE9F04107460024F6
:10510000002600250A2F33D00B2F18D00C2F02D0E9
:105110000D2F2ED12DE03846FDF732FD04464FF419
:105120007A7104FB01F0C4F5805190FBF1F544F66F
:105130002060854201D9064600E0AEB219E038464B
:10514000FDF71EFD0446642104FB01F0C4F5805107
:1051500090FBF1F0A0F16405B5F57A7F02D340F23F
:10516000E73600E0AEB2062E01DB701F86B200E02B
:1051700000BF00BF3046BDE8F08170470FB404495E
:1051800010B503AA029800F0B3F910BC5DF814FB47
:105190003000002070B5044685690068C10601D55D
:1051A000302600E02026C00707D070BDD4E90121D9
:1051B00030469047206A401C20626D1EF6D570BDB7
:1051C00070B5044685690078C00707D170BDD4E981
:1051D000012120209047206A401C20626D1EF6D5D8
:1051E00070BD00002DE9F0410646002410687529C5
:1051F000314616A510D0AFF30080002802DA4042F5
:1052000013A507E031688A0701D512A502E0490716
:1052100004D511A5012401E0AFF3008000210A228A
:1052200006F1240709E0B0FBF2FCB0FBF2F302FB4D
:105230001C00303078541846491C0028F3D123460E
:105240002A463046BDE8F04100F0F9B80000000001
:105250002D0000002B000000200000002DE9F05F71
:10526000894604464FF0000ADFF824B1FB44C0F839
:1052700020A02046E168884700287DD0252806D058
:10528000D4E901219047206A401C2062F1E7002503
:105290005F462046E16888472028064607DB312E16
:1052A00005D2B81910F8200C08B10543F1E7A8079A
:1052B00001D525F00405C4F81CA00027C4F818A0E7
:1052C0002A2E09D0304600F073F938B304EB870872
:1052D000303EC8F8186019E059F8041B204604EB6A
:1052E00087029161E1688847012F064618D1E0697D
:1052F000002820DA25F020051DE0D8F8180000EB82
:10530000800006EB40003038C8F818002046E168FD
:105310008847064600F04CF90028EED1012F0AD04C
:105320002E2E08D12046E16888477F1C0646022FB2
:1053300045F02005C4DBA069002803DA404245F0AF
:105340000105A061E80701D025F01005A6B1A6F17E
:105350004100192802D8203645F400654A463146F6
:10536000204625604D46FAF73DFF60B1012807D081
:10537000ED1D25F0070000E007E000F1080978E7DF
:1053800005F1040975E730467AE7206ABDE8F09F29
:10539000A806000002F0FF0343EA032242EA0242A9
:1053A00000F002B84FF000020429C0F0128010F0A3
:1053B000030C00F01B80CCF1040CBCF1020F18BFF1
:1053C00000F8012BA8BF20F8022BA1EB0C0100F084
:1053D0000DB85FEAC17C24BF00F8012B00F8012B57
:1053E00048BF00F8012B70474FF0000200B513468C
:1053F00094469646203922BFA0E80C50A0E80C50F5
:10540000B1F12001BFF4F7AF090728BFA0E80C50A5
:1054100048BF0CC05DF804EB890028BF40F8042B9E
:1054200008BF704748BF20F8022B11F0804F18BF0B
:1054300000F8012B704770477047704770472DE99F
:10544000F0470D4699469246044600F1240801684B
:10545000880604D5E06921F01001216000E00120F8
:10546000A84201DD471B00E00027A1697A1902EB81
:105470000900081AA0612078C00602D42046FFF770
:1054800089FE002608E0D4E901211AF806009047B9
:10549000206A401C761C20624E45F4DB2078C00652
:1054A0000AD52046FFF776FE06E0D4E90121302038
:1054B0009047206A401C2062381EA7F10107F4DCE7
:1054C00007E0D4E9012118F805009047206A401C44
:1054D0002062281EA5F10105F3DC2046FFF770FECF
:1054E0002078000602D50220BDE8F0870120FBE706
:1054F000074B70B50D467B4400F011F80446284672
:1055000000F020F810B14FF0FF3070BD204670BDA4
:10551000C1D4FFFF01694A1C02610878704700B5D9
:105520008FB0CDE901310021059105497944CDE9DC
:10553000031011466846FFF791FE0FB000BD000052
:10554000E5FFFFFF007B00F080007047754600F02C
:105550002BF8AE4605006946534620F00700854605
:1055600018B020B5FAF764FEBDE820404FF0000601
:105570004FF000074FF000084FF0000B21F007013B
:10558000AC46ACE8C009ACE8C009ACE8C009ACE87E
:10559000C0098D46704710B50446AFF30080204621
:1055A000BDE81040FAF730BE00487047A024002044
:1055B00030380A2801D2012070470020704740107F
:1055C00058BFC0F14040491058BFC1F1404181422D
:1055D000EFF30080704700004FF47F0C1CEAD012FC
:1055E0001EBF1CEAD11392EA0C0F93EA0C0F00F0D5
:1055F000858090EA010F48BF42F4807240F4000CAD
:1056000041F400002CF07F4120F07F4000B5814242
:10561000A2EB03020FF2081CACEB504EC0F10000ED
:105620009EF800E04FEA4E0E00FB0EFC38BF49002A
:105630004FEA2C1C02F5FA020CFB0EF34FEACE1EC9
:105640004FEA112C4FEAC1210EEB635E42EB22427E
:105650000EFB0CFC4FEA1C5300FB03114FEA112C0C
:105660004FEA01310EFB0CFC4FEADC4C00FB0C1145
:10567000C14228BF09184CEB03335DF804EB10EB73
:10568000410143EBC250B2F57C0F38BF704729D5BA
:1056900012F0F00F1CBF00F1C04000F00040704756
:1056A000008182838485868788898B8C8D8E8F91FB
:1056B0009293959697999A9C9D9FA0A2A3A5A7A81F
:1056C000AAACAEB0B2B3B5B7B9BCBEC0C2C5C7C94B
:1056D000CCCED1D4D7D9DCDFE2E6E9ECF0F3F7FAAF
:1056E000FE0000004FEA400C0CF1807CBCF17E4FC4
:1056F00028BF7047B0F1C04000F0F6B890EA010F43
:105700000CEAD11348BF42F48072624538BF63454A
:1057100007D213F47F0F16D080EA010000F000409A
:10572000704710B500F09AF8097EFC3E00F005B80D
:1057300080EA010000F00040704780EA010000F0BC
:10574000004000F0D1B812F47F0F04BF0248704748
:1057500080EA010000F0C8B80000C07FC10DD1F19F
:105760009E0206DB4FEA002343F0004323FA02F0D7
:105770007047004207D54FEA4001B1F1FE4F02D217
:105780004FF00000704710B500F068F8499224808F
:10579000002070476FEA20007047000010F00041C1
:1057A00048BF4042B0FA80F310FA03F2C3F19D0300
:1057B0000BD051EAC35101EB1220530638BF70479A
:1057C00000F1010008BF20F001007047B0FA80F33B
:1057D00010FA03F2C3F19D030AD0D90501EB1220A0
:1057E000530638BF704700F1010008BF20F00100E8
:1057F0007047000050EA010C00F113801CF5000F07
:1058000058BFBCF5000F01D48842704707D710F588
:10581000000F58BF11F5000F15D488427047894218
:1058200070471CF5000F04D5BCF5000FF7D5814279
:1058300070474FF0807C1CEB400F38BF1CEB410FD2
:1058400001D28142704710B500F008F89224490057
:105850004FF000504FF08051FFF7B1BE0EF1020E35
:105860002EF0030E5EF8044B244204D44FEA4102AA
:10587000B2F17F4F11D84FEA4003B3F17F4F0CD8FC
:105880000ED14FEAD07CB2F17F4F0CEB4C0C0CF1F7
:10589000020C08BF4CEBD17C04E04FF0080C01E097
:1058A0004FEAD17C0CEB4C0324FA03F404F0070418
:1058B000B4F1040C06D20EEB840CBDE810404CF0A1
:1058C000010C6047DFE80CF0070802024FF00040CF
:1058D000A0F5800010BD0846420018BFD2F18072CA
:1058E00088BF00F0004010BDFF2141EAD050C00544
:1058F0007047808182838485868790919293949566
:10590000969788898A8B8C8D8E8F98999A9B9C9D6F
:105910009E9F00002000000004000008000000001E
:105920000000000200010000100000004C590008B7
:1059300000000020541300006C0100081C5B0008EC
:1059400054130020AC170000C80100081184A24ABB
:1059500004680901020304060708090C6910E5023E
:10596000040608291A2A051B004E120A0B0C0D0EFC
:105970000F101112131415161718191A1B1C1D1EBF
:105980001F204C4142434445464748494A4B223D2B
:10599000233C243B253A26392738283729362A350F
:1059A0002B342C332D322E31213E2F305F585E594F
:1059B0005D5A60575C5B555604540155340B5301D6
:1059C00056570C53020141570B53020C570B530C03
:1059D00047570B534748570B530338570B5304375C
:1059E000570B53052E570B530608570B53081357E5
:1059F0000B531320570B532042570B534234570B72
:105A0000533423570B532328570B53282B570B532F
:105A10002B2C570B532C4C570B534C4B570B5307FA
:105A20002F570B53094F570B530A50570B530B4328
:105A3000570B530D3F570B530E3B570B530F395713
:105A40000B531036570B531133570B53122D570B63
:105A500053144D570B53154E570B531644570B53B6
:105A60001749570B53494A570B534A24570B53189E
:105A700040570B53193C570B531A3A570B531B32D1
:105A8000570B531D31570B531E29570B5329525790
:105A90000B535251570B531F2A570B532A54570B72
:105AA000535453570B533D26570B534522570B5313
:105AB0004621570B533E2557035430270020381EEC
:105AC000472D2F31333537393B3D3F414345494819
:105AD0002E30323436383A3C3E404244464A000C7E
