:020000040800F2
:10000000F8360020CD010008DB250008DD250008BA
:10001000E1250008E5250008E925000800000000AA
:10002000000000000000000000000000ED250008B6
:10003000EF25000800000000F1250008F325000866
:10004000E7010008E7010008E7010008E7010008F0
:10005000E7010008E7010008E7010008E7010008E0
:10006000E7010008E7010008E7010008E7010008D0
:10007000E7010008E7010008E7010008E7010008C0
:10008000E7010008E7010008E7010008E7010008B0
:10009000E7010008E7010008E7010008E7010008A0
:1000A000E7010008E7010008E7010008E701000890
:1000B000E70100081D2E0008E7010008E70100081D
:1000C000E7010008E7010008E7010008E701000870
:1000D000E7010008E7010008E7010008E701000860
:1000E000E7010008E7010008E7010008E701000850
:1000F000E7010008E7010008E7010008E701000840
:10010000E7010008E7010008E7010008E70100082F
:10011000132A0008E7010008E7010008E7010008CA
:10012000E7010008E7010008E7010008E70100080F
:1001300000F002F800F03AF80AA090E8000C8244BF
:100140008344AAF10107DA4501D100F02FF8AFF29C
:10015000090EBAE80F0013F0010F18BFFB1A43F0A5
:10016000010318478C4A0000AC4A0000103A24BF33
:1001700078C878C1FAD8520724BF30C830C144BF0C
:1001800004680C607047000000230024002500264E
:10019000103A28BF78C1FBD8520728BF30C148BFEA
:1001A0000B6070471FB51FBD10B510BD04F04EFBAE
:1001B0001146FFF7F7FF02F0C7F904F06CFB03B438
:1001C000FFF7F2FF03BC04F073FB0000094880470F
:1001D00009480047FEE7FEE7FEE7FEE7FEE7FEE729
:1001E000FEE7FEE7FEE7FEE704480549054A064B41
:1001F00070470000EB02000831010008F8300020D1
:10020000F8360020F8320020F83200200CB500202B
:10021000019000906C48006840F480306A490860A2
:1002200000BF6948006800F4003000900198401C4D
:100230000190009818B90198B0F5A06FF1D162480B
:10024000006800F4003010B10120009001E00020AF
:1002500000900098012843D15C48006840F01000ED
:100260005A4908600846006820F003000860084604
:10027000006840F0020008605348406852494860F6
:100280000846406848600846406840F4806048601E
:100290000846406820F47C1048600846406840F4F6
:1002A000E81048600846006840F08070086000BFB1
:1002B0004548006800F000700028F9D042484068C6
:1002C00020F00300404948600846406840F00200C2
:1002D000486000BF3C48406800F00C000828F9D195
:1002E0000CBD10B5FFF792FF10BD10B53648006881
:1002F00040F001003449086008464068344908402D
:100300003149486008460068324908402E49086073
:100310000846006820F4802008600846406820F401
:10032000FE0048604FF41F008860FFF7DAFF4FF0CF
:1003300000602949086010BD10B50021002000228E
:10034000214B5B6803F00C0121B1042906D0082978
:1003500028D107E0214B224C236027E01F4B204C83
:10036000236023E0184B5B6803F47010164B5B6846
:1003700003F48032022303EB904022B9194B43432C
:10038000174C23600DE0104B5B6803F4003323B17E
:10039000144B4343124C236003E0104B4343104C77
:1003A000236003E00D4B0E4C236000BF00BF064BE3
:1003B0005B68C3F303130C4CE15C094B1B68CB4037
:1003C000074C236010BD00000010024000200240D6
:1003D0000000FFF8FFFFF6FE08ED00E000127A00D3
:1003E0000000002000093D000400002031490143C5
:1003F000314A1160704770B5002100230F22C47884
:1004000004B32D4C246804F4E064C4F5E064210ACC
:10041000C1F10403CA40447804FA03F1847814401B
:1004200021430901254C0678A155047804F01F05E5
:100430000124AC4005786D11AD0005F1E025C5F84B
:10044000004109E0047804F01F050124AC401C4D74
:100450000678761145F8264070BD1A4A0A400243D4
:10046000154B1B1F1A60704739B1134A121D1268D1
:100470000243114B1B1D1A6006E00F4A121D126841
:1004800082430D4B1B1D1A607047042808D14FF0A2
:10049000E021096941F004014FF0E022116107E019
:1004A0004FF0E021096921F004014FF0E0221161D1
:1004B000704700000000FA050CED00E000E400E0E9
:1004C00080E100E080FFFF1F10B50446FA48844237
:1004D00008D10121401500F055FD0021601500F004
:1004E00051FD17E0F548844208D10121001500F0C4
:1004F00049FD0021201500F045FD0BE0F048844245
:1005000008D10121C80300F03DFD00214FF4004057
:1005100000F038FD10BD30B50246002000235068C1
:10052000E84C20400D790C6844EA052420435060D3
:100530009068E54C2040D1E902542C434D7944EABF
:10054000450420439060D06A20F470000C7C641E47
:10055000E4B2234340EA0350D06230BD0021016081
:10056000017141718160C16001210174704721B145
:10057000826842F00102826003E0826822F0010298
:100580008260704721B1826842F48072826003E029
:10059000826822F480728260704710B50023CBB26B
:1005A0001AB144681C43446002E044689C434460C0
:1005B00010BD816841F0080181607047014600204C
:1005C0008A6802F008020AB1012000E000207047AA
:1005D000816841F0040181607047014600208A680B
:1005E00002F004020AB1012000E00020704721B1AE
:1005F000826842F4A002826003E0826822F4A002D2
:1006000082607047014600208A6802F480020AB1C5
:10061000012000E00020704710B50A4600210023A9
:10062000416821F46041531E41EA4331416010BDED
:1006300021B1426842F40062426003E0426822F461
:10064000006242607047F0B504460D46002000216C
:10065000092D11DDE068A5F10A0606EB460707261D
:1006600006FA07F18843A5F10A0606EB460603FAE7
:1006700006F10843E0600CE0206905EB450707261A
:1006800006FA07F1884305EB450603FA06F108432D
:100690002061072A0FDA606B561E06EB86071F26BD
:1006A00006FA07F18843561E06EB860605FA06F1A0
:1006B0000843606322E00D2A0FDA206BD61F06EB99
:1006C00086071F2606FA07F18843D61F06EB860623
:1006D00005FA06F10843206310E0E06AA2F10D0676
:1006E00006EB86071F2606FA07F18843A2F10D06DE
:1006F00006EB860605FA06F10843E062F0BD21B17B
:10070000826842F48012826003E0826822F48012E0
:10071000826070470146C86C80B2704766484C30B2
:100720000068704721B1426842F48062426003E091
:10073000426822F480624260704721B1426842F40C
:100740008052426003E0426822F480524260704767
:100750000A460021816821F4E0411143816070471D
:1007600021B1826842F40042826003E0826822F490
:1007700000428260704721B1826842F402128260B6
:1007800003E0826822F40212826070470146002072
:100790008A6802F400120AB1012000E000207047CC
:1007A000F0B504461546002000220026092911DD77
:1007B000E068A1F10A0707EB470C072707FA0CF2DC
:1007C0009043A1F10A0707EB470703FA07F210432A
:1007D000E0600CE0206901EB410C072707FA0CF2FE
:1007E000904301EB410703FA07F210432061A06B2D
:1007F000C0F30156EF1C06F1010CA7EB0C0707EB49
:10080000870C1F2707FA0CF29043EF1C06F1010C2E
:10081000A7EB0C0707EB870701FA07F21043A06369
:10082000F0BD10B50A4600210023816B21F4401170
:10083000531E41EA0351816310BD08B500230093A4
:100840000090009B0B440093009B1A6008BD08B504
:10085000024600200090009201F12800009B1844FD
:1008600000900098006880B208BD0A4600214168E7
:10087000164B1940114341607047416282627047D4
:100880000A460021416821F01F0111434160704771
:1008900040B109490831096841F40001064A0832AB
:1008A000116007E004490831096821F40001024A97
:1008B0000832116070470000002401400028014008
:1008C000003C0140FFFEF0FFFDF7F1FFFFFD3FFFA1
:1008D0000246002013680B400BB1012000E000200D
:1008E0007047CA430260704770B50246002000237B
:1008F00000240B125568CEB205EA060415681D40A7
:1009000015B10CB1012000E0002070BD00220A12D8
:10091000D34303607047000010B50446CC488442BE
:1009200008D10121042000F02DFB0021042000F05B
:1009300029FB46E0C748844208D10121082000F085
:1009400021FB0021082000F01DFB3AE0C248844250
:1009500008D10121102000F015FB0021102000F02B
:1009600011FB2EE0BD48844208D10121202000F077
:1009700009FB0021202000F005FB22E0B84884425A
:1009800008D10121402000F0FDFA0021402000F0B4
:10099000F9FA16E0B348844208D10121802000F022
:1009A000F1FA0021802000F0EDFA0AE0AE4884421E
:1009B00007D10121801500F0E5FA0021A01500F013
:1009C000E1FA10BD10B50121084600F0DBFA002164
:1009D000012000F0D7FA10BD2DE9F04102460025B4
:1009E0000026002000230024002791F803C00CF00B
:1009F0000F0591F803C00CF0100CBCF1000F03D0F0
:100A000091F802C04CEA050591F800C0BCF1000F56
:100A100031D0146800202BE04FF0010C0CFA00F3E9
:100A2000B1F800C00CEA03069E4220D183004FF0CB
:100A30000F0C0CFA03F7BC4305FA03FC4CEA040460
:100A400091F803C0BCF1280F06D14FF0010C0CFA4D
:100A500000FCC2F814C00AE091F803C0BCF1480FD2
:100A600005D14FF0010C0CFA00FCC2F810C0401C7C
:100A70000828D1D31460B1F800C0BCF1FF0F34DDF9
:100A8000546800202EE000F1080C4FF0010808FA2D
:100A90000CF3B1F800C00CEA03069E4221D183009A
:100AA0004FF00F0C0CFA03F7BC4305FA03FC4CEAB9
:100AB000040491F803C0BCF1280F05D100F1080C23
:100AC00008FA0CF8C2F8148091F803C0BCF1480F82
:100AD00007D100F1080C4FF0010808FA0CF8C2F831
:100AE0001080401C0828CED35460BDE8F0814FF63A
:100AF000FF710180022181700421C170704702469C
:100B0000002093680B400BB1012000E000207047EB
:100B10000146886880B2704702460020D3680B40C7
:100B20000BB1012000E0002070470146C86880B288
:100B3000704701617047416170470AB1016100E08F
:100B400041617047C16070474FF480320A4382614F
:100B50008161826182698269704702460020434B4D
:100B600018684FF68073184040EA021008433F4B64
:100B7000186070473E49C8617047F0B50A460023C7
:100B800000240021002500F00046B6F1004F02D1FC
:100B9000364EF16901E0354E7168C0F3034583B20A
:100BA00000F44016B6F5401F08D121F070612F4EB9
:100BB000766826F070662D4F7E6012E000F4801695
:100BC000B6F5801F06D1032606FA05F4A14341F0CD
:100BD000706106E0460D360103FA06F6B14341F0B6
:100BE000706122B1460D360103FA06F6314300F07A
:100BF0000046B6F1004F02D11C4EF16101E01B4EE0
:100C00007160F0BD30B500228B071C0F0F2303FA73
:100C100004F2164B08338C1053F824309343134CD2
:100C200008348D1044F8253023468C1053F82430B6
:100C30008C07240F00FA04F423430C4C08348D1065
:100C400044F8253030BD0A49DC31086070470000A7
:100C500000080140000C0140001001400014014058
:100C600000180140001C014000200140000001402C
:100C700000002042DF48006840F00100DD490860C4
:100C800008464068DC490840DA4948600846006880
:100C9000DA490840D74908600846006820F48020F7
:100CA00008600846406820F4FE0048604FF41F00CA
:100CB00088607047CF49096821F48031CD4A1160BE
:100CC0001146096821F480211160B0F5803F03D0FE
:100CD000B0F5802F0ED106E0C649096841F4803195
:100CE000C44A116007E0C349096841F4A021C14A20
:100CF000116000E000BF00BF704710B50146002240
:100D0000002300204A11012A02D1BA4C236806E0D0
:100D1000022A02D1B74C236A01E0B64C636A01F0A3
:100D20001F02012494401C400CB1012000E000206F
:100D300010BD38B5002000900024002500BF3120F0
:100D4000FFF7DBFF05460098401C00900098B0F5C7
:100D5000A06F01D0002DF2D03120FFF7CEFF08B1F7
:100D6000012400E00024204638BD01460020A14AAD
:100D7000106820F0F80040EAC10010607047A049F8
:100D800008607047024600209A4B586820F47C1097
:100D900042EA01031843974B586070479849086628
:100DA000704701460020934A506820F00300084332
:100DB000506070478F48406800F00C007047014653
:100DC00000208C4A506820F0F000084350607047C3
:100DD00001460020874A506820F4E06008435060D4
:100DE000704701460020834A506820F4605040EA72
:100DF000C1005060704729B17E4A527A02437D4B50
:100E00005A7204E07B4A527A82437A4B5A72704794
:100E10007B49D8310860704701460020754A506808
:100E200020F440400843506070470021714A20324E
:100E30001170704A82F82010012802D004280AD1CB
:100E400004E001216B4A2032117005E00521694A56
:100E50002032117000E000BF00BF70476949086090
:100E600070476449096A0143624A116270476549E3
:100E700044390860704730B5002100220024002367
:100E80005C4D6D6805F00C0121B1042905D00829DD
:100E900023D105E05C4D056022E05B4D05601FE05D
:100EA000544D6D6805F47012524D6D6805F4803430
:100EB000022505EB92421CB9544D554305600BE0E9
:100EC0004C4D6D6805F400351DB1504D554305601E
:100ED00002E04D4D5543056002E04B4D056000BFFB
:100EE00000BF444D6D6805F0F0010909484D6B5C89
:100EF0000568DD4045603F4D6D6805F4E061090A15
:100F0000434D6B5C4568DD4085603A4D6D6805F486
:100F10006051C90A3E4D6B5C4568DD40C560354D8A
:100F20006D6805F44041890B3A4D6B5CC568B5FBB3
:100F3000F3F5056130BD29B12E4A526902432D4BAC
:100F40005A6104E02B4A526982432A4B5A61704726
:100F500029B1284A92690243264B9A6104E0254A46
:100F600092698243234B9A61704729B1214AD26921
:100F70000243204BDA6104E01E4AD26982431D4BD2
:100F8000DA61704729B11B4AD2680243194BDA6013
:100F900004E0184AD2688243164BDA60704729B1E0
:100FA000144A12690243134B1A6104E0114A126990
:100FB0008243104B1A6170471249403908607047EC
:100FC0000F49C86470470B49C87170470948406AA7
:100FD00040F0807007494862704701460020054A8A
:100FE00092680A400AB1012000E0002070470149E0
:100FF00088727047001002400000FFF8FFFFF6FE05
:10100000000042428004424200127A0000093D0082
:10101000140000202400002010B50446BE4884427D
:1010200008D101218014FFF7ADFF0021A014FFF7C4
:10103000A9FF16E0B948844208D101210014FFF746
:10104000AEFF00212014FFF7AAFF0AE0B448844253
:1010500007D10121C013FFF7A2FF0021E013FFF722
:101060009EFF10BD10B50022028802F441520B8889
:101070004C8823438C882343CC8823430C89234307
:101080004C8923438C892343CC8923431A43028010
:10109000838B4FF2FF74234083830B8A038210BD3E
:1010A0002DE9F04F85B005460C464FF000090227A8
:1010B0004FF000084FF0010B0026B246A88B4FF20C
:1010C00040010840A88302202884B5F81C90A0683D
:1010D000022801D100BF38E0A08810B94FF0010B01
:1010E00001E04FF0020B8D48854200D100E000BFC7
:1010F0006846FFF7C0FEDDF800A0E088B0F5007F8D
:101100000AD14FEA1A2000EB80004000A168B0FB32
:10111000F1F0401D86B20BE04FEA4B10BAFBF0F045
:1011200000EB80004000A168B0FBF1F0401D86B2EA
:101130000A20B6FBF0F606F00108A6EB0800C0F3A3
:101140004F074FF6FF7000EA0828022F01DBFF2F40
:1011500002DD02274FF00008E08840EA080038432B
:101160002884A088A189084361880843218808430E
:1011700040F4006040EA0909A5F81C9005B0BDE8FC
:10118000F08F0021018041808180C18001814181F7
:101190008181C18107210182704700210180418046
:1011A0008180C1800221816000218181704721B14D
:1011B000028842F04002028004E002884FF6BF73CA
:1011C0001A400280704721B1828B42F48062828390
:1011D00004E0828B4FF6FF331A408283704730B5AC
:1011E000002400230C110125A540ABB21AB185885B
:1011F0001D43858002E085889D43858030BD1AB1FE
:1012000083880B43838002E083888B43838070470D
:10121000818170470146888970474FF6FF6291428D
:1012200004D0028842F48072028004E002884FF603
:10123000FF631A400280704721B1828842F00402A5
:10124000828004E082884FF6FB731A4082807047E8
:1012500002884FF2FF731A40028002880A4302801C
:101260007047018841F480510180704721B10288A4
:1012700042F40052028004E002884DF6FF731A40E7
:101280000280704702460020012901D0108B00E047
:10129000908A70470146088A7047B1F5804F04D1A3
:1012A000028842F48042028004E002884BF6FF7319
:1012B0001A40028070470246002013890B400BB190
:1012C000012000E000207047CA4302817047F0B55A
:1012D0000246002000240023002501F00F0701260C
:1012E000BE40B4B20B1101269E40B3B2968806EA06
:1012F00003051689264016B10DB1012000E000203B
:10130000F0BD10B5002201F00F040123A3409AB2F2
:10131000D343038110BD000000300140003800407D
:10132000003C004010B50446FE48844208D101212B
:10133000C014FFF727FE0021E014FFF723FEC4E0EE
:10134000B4F1804F08D101210846FFF728FE0021A3
:101350000120FFF724FEB8E0F348844208D10121C0
:101360000220FFF71CFE00210220FFF718FEACE070
:10137000EE48844208D101210420FFF710FE00212D
:101380000420FFF70CFEA0E0E948844208D10121C7
:101390000820FFF704FE00210820FFF700FE94E07C
:1013A000E448844208D101211020FFF7F8FD002114
:1013B0001020FFF7F4FD88E0DF48844208D10121C6
:1013C0002020FFF7ECFD00212020FFF7E8FD7CE066
:1013D000DA48844208D101214014FFF7D3FD0021EF
:1013E0006014FFF7CFFD70E0D548844209D1012198
:1013F000C804FFF7C7FD00214FF40020FFF7C2FD2E
:1014000063E0D048844209D101210805FFF7BAFD05
:1014100000214FF48010FFF7B5FD56E0CA48844222
:1014200009D101214805FFF7ADFD00214FF400105F
:10143000FFF7A8FD49E0C548844208D101214020BA
:10144000FFF7ADFD00214020FFF7A9FD3DE0C048BA
:10145000844208D101218020FFF7A1FD00218020D6
:10146000FFF79DFD31E0BB48844208D10121801582
:10147000FFF795FD0021A015FFF791FD25E0B64887
:10148000844209D101210804FFF77CFD00214FF4BB
:101490008030FFF777FD18E0B048844209D1012180
:1014A0004804FFF76FFD00214FF40030FFF76AFD9D
:1014B0000BE0AB48844208D101218804FFF762FDAC
:1014C00000214FF48020FFF75DFD10BD002202884F
:1014D000944B98420ED0994B98420BD0B0F1804F6C
:1014E00008D0914B984205D0904B984202D0904B37
:1014F000984204D14FF68F731A404B881A438D4B94
:10150000984207D08C4B984204D04FF6FF431A40C4
:10151000CB881A4302808B8883850B880385814B97
:1015200098420BD0854B984208D08B4B984205D0FF
:101530008A4B984202D08A4B984201D10B7A03869B
:1015400001238382704770B5002400220023058C9C
:101550004FF6FE7635400584028C8388048B4FF667
:101560008F752C40B51E2C400D882C43751E2A40CB
:101570000D892A434D882A436A4DA8420BD06F4DEE
:10158000A84208D0744DA84205D0744DA84202D09C
:10159000734DA84213D14FF6F7752A404D892A435F
:1015A0004FF6FB752A408D882A434FF6FF652B4086
:1015B0004FF6FF552B408D892B43CD892B438380DC
:1015C0000483CD888586028470BD70B50024002216
:1015D0000023058C4FF6EF7635400584028C838816
:1015E000048B48F6FF752C404FF6FF452C400D88C4
:1015F0004FF6FF7606EA05252C434FF6DF752A40A5
:101600000D8906EA05152A434D8806EA05152A4381
:10161000444DA84202D0494DA8421DD14FF67F75D6
:101620002A404D894FF6FF7606EA05152A434FF604
:10163000BF752A408D8806EA05152A434FF6FF3507
:101640002B404FF2FF752B408D8906EA85052B4311
:10165000CD8906EA85052B4383800483CD880587E1
:10166000028470BD70B5002400220023058C4FF663
:10167000FF6635400584028C8388848B4FF68F7516
:101680002C404FF6FC752C400D882C434FF6FF552F
:101690002A400D894FF6FF7606EA05252A434D8834
:1016A00006EA05252A431F4DA84202D0234DA84231
:1016B0001DD14FF2FF752A404D894FF6FF7606EA9D
:1016C00005252A434FF6FF352A408D8806EA052571
:1016D0002A434EF6FF752B404DF6FF752B408D8942
:1016E00006EA05152B43CD8906EA05152B438380B1
:1016F0008483CD888587028470BD70B50022002365
:101700000024058C4EF6FF7635400584038C8488D2
:10171000828B48F6FF752A404FF6FF452A400D8818
:1017200020E00000002C01400004004000080040C0
:10173000000C004000100040001400400034014044
:10174000004C01400050014000540140001800408E
:10175000001C0040002000400040014000440140C7
:10176000004801404FF6FF7606EA05252A434DF66C
:10177000FF752B400D8906EA05352B434D8806EA97
:1017800005352B43FA4DA84202D0FA4DA84208D1A4
:101790004BF6FF752C408D894FF6FF7606EA8515CE
:1017A0002C4384808283CD88A0F84050038470BD90
:1017B000828B4FF2FF331A408283828B4FF6FF7386
:1017C00003EA01231A4382837047F0B50C4615469D
:1017D000002200210026078C4EF6FF7C07EA0C074A
:1017E0000784828B018C4FF6FF7707EA043640F6B8
:1017F000FF473A404FF6FF7707EA05273A434FF68F
:10180000FF7707EA03373A43D94FB8420ED0D94F92
:10181000B8420BD0B0F1804F08D0D74FB84205D0B6
:10182000D64FB84202D0D64FB84206D14DF6FF7718
:10183000394046F48057394305E047F6FF573940B1
:1018400044F48057394382830184F0BD828B4FF684
:10185000F3731A408283828B0A4382837047F0B508
:101860000C461546002200210026078C4FF6FF6C1F
:1018700007EA0C070784828B018C4FF6FF7707EA93
:1018800004264FF60C773A404FF6FF7707EA031726
:101890002F433A43B64FB8420ED0B64FB8420BD0A2
:1018A000B0F1804F08D0B44FB84205D0B34FB84222
:1018B00002D0B34FB84206D14FF6FF57394046F435
:1018C0008077394305E04FF2FF57394044F4807781
:1018D000394382830184F0BD028B4FF2FF331A40FB
:1018E0000283028B4FF6FF7303EA01231A4302833C
:1018F0007047F0B50C461546002200210026078CE3
:101900004FF6EF7C07EA0C070784028B018C4FF639
:10191000FF7707EA041640F6FF473A404FF6FF7795
:1019200007EA03373A434FF6FF7707EA05273A43BA
:101930008F4FB8420ED08F4FB8420BD0B0F1804FCE
:1019400008D08D4FB84205D08C4FB84202D08C4F92
:10195000B84206D14FF6DF77394046F010073943D9
:1019600005E04FF65F77394044F0100739430283B2
:101970000184F0BD028B4FF6F3731A400283028B91
:101980000A4302837047F0B50C4615460022002139
:10199000068C4FF6FE773E400684028B018C4FF694
:1019A0000C7632407E1C06EA03162E433243704EFC
:1019B000B0420ED06F4EB0420BD0B0F1804F08D085
:1019C0006D4EB04205D06D4EB04202D06C4EB0426A
:1019D00006D14FF6FD76314044F00106314305E073
:1019E0004FF6F576314044F001063143028301841D
:1019F000F0BD70B505460C465D4885420ED05D4889
:101A000085420BD0B5F1804F08D05B48854205D0A8
:101A10005A48854202D05A48854200D100E000BFB2
:101A2000208850B92389A28861882846FFF7ABFF38
:101A3000E1882846FFF79EFF25E0208804280AD188
:101A40002389A28861882846FFF753FFE18828464A
:101A5000FFF742FF17E0208808280AD12389A288CF
:101A600061882846FFF7FBFEE1882846FFF7EEFE77
:101A700009E02389A28861882846FFF7A6FEE1884D
:101A80002846FFF795FE70BD2DE9F04105460C464E
:101A900000260127608808B9022600E00026A088F9
:101AA000012801D1022700E001272088A0B923895D
:101AB000A28861882846FFF766FFE1882846FFF77D
:101AC00059FF23893A4631462846FFF712FFE1883D
:101AD0002846FFF701FF13E02389A2886188284682
:101AE000FFF707FFE1882846FFF7F6FE23893A460D
:101AF00031462846FFF747FFE1882846FFF73AFFBF
:101B0000BDE8F0810A884B881A438B881A43CB883A
:101B10001A430B891A434B891A438B891A43A0F83D
:101B2000442070474FF6FF71818000210180C18001
:101B30004180017270470021018041808180C18015
:101B4000018141818181C1817047002101804180F3
:101B5000012181800021C180018170470021018025
:101B600041808180C1800181418181817047000075
:101B7000002C0140003401400004004000080040F7
:101B8000000C004021B1028842F00102028004E012
:101B900002884FF6FE731A400280704731B1B0F8E8
:101BA000442042F40042A0F8442005E0B0F844206C
:101BB000C2F30E02A0F8442070471AB183890B4388
:101BC000838102E083898B438381704781827047E0
:101BD00041EA0203A0F8483070471AB183890B43E9
:101BE000838102E083898B438381704701894FF6AB
:101BF000F8721140018170470A46002101894FF6B1
:101C00008F73194011430181704730B504460D466A
:101C100029462046FFF7F0FF208940F00700208189
:101C200030BD2DE9F04104460D4616461F46602D95
:101C300006D13B46012231462046FFF75AFE05E019
:101C40003B46012231462046FFF79DFE29462046AD
:101C5000FFF7D2FF208940F007002081BDE8F08126
:101C600030B50C4600210189C9B24FF6FF7505EA6F
:101C70000325154325432943018130BD2DE9F0415A
:101C800005460E4617469846002443463A463146D6
:101C90002846FFF7E5FF2C894FF6F870044044F022
:101CA00007044FF68F70044044F070042C81BDE8A7
:101CB000F081F0B504460D4616461F463B463246B7
:101CC00029462046FFF7CCFF208940F48040208140
:101CD000F0BD0185828270470A46002101884FF6D7
:101CE0008F731940114301807047F0B50C461546BB
:101CF0001E460021002200230189028B038C4FF62F
:101D0000F877394021434FF6FC473A4040F201173B
:101D10003A434FF6DD773B404FF6FF7707EA061769
:101D20002F433B43018102830384F0BD0A46002117
:101D3000018B4FF68F7319401143018370470A4698
:101D40000021018B48F6FF7319404FF6FF7303EA39
:101D500002231943018370470A460021818B4FF605
:101D60008F7319401143818370470A460021818B8C
:101D700048F6FF7319404FF6FF7303EA0223194335
:101D80008183704721B1028842F08002028004E022
:101D900002884FF67F731A400280704721B1828813
:101DA00042F00402828004E082884FF6FB731A40FE
:101DB0008280704721B1828842F00802828004E06C
:101DC00082884FF6F7731A408280704721B182886B
:101DD00042F00102828004E082884FF6FE731A40CE
:101DE000828070470A460021018B4FF6F773194035
:101DF0001143018370470A460021018B4FF2FF73A4
:101E000019404FF6FF7303EA022319430183704719
:101E10000A460021818B4FF6F773194011438183E5
:101E200070470A460021818B4FF2FF7319404FF62D
:101E3000FF7303EA02231943818370470A46002196
:101E4000018B4FF6FB7319401143018370470A461B
:101E50000021018B4FF6FF3319404FF6FF7303EA61
:101E600002231943018370470A460021818B4FF6F4
:101E7000FB7319401143818370470A460021818B0F
:101E80004FF6FF3319404FF6FF7303EA022319435D
:101E9000818370470A460021018B4FF67F731940FA
:101EA0001143018370470A460021018BC1F30E01E3
:101EB0004FF6FF7303EA02231943018370470A4672
:101EC0000021818B4FF67F73194011438183704746
:101ED0000A460021818BC1F30E014FF6FF7303EA1E
:101EE00002231943818370470A460021018C4FF673
:101EF000FD7319401143018470470A460021018C8B
:101F00004FF6F77319401143018470470A460021C8
:101F1000018C4FF6DF7319404FF6FF7303EA02138B
:101F20001943018470470A460021018C4FF67F73E4
:101F300019404FF6FF7303EA0213194301847047F7
:101F40000A460021018C4FF6FF5319404FF6FF73EC
:101F500003EA02231943018470470A460021018CD9
:101F60004FF2FF7319404FF6FF7303EA0223194340
:101F7000018470470A460021018C4DF6FF73194019
:101F80004FF6FF7303EA023319430184704730B5FB
:101F9000002301248C40A3B2048C9C430484048C51
:101FA00002FA01F5ADB22C43048430BD30B50023F4
:101FB00004248C40A3B2048C9C430484048C02FA55
:101FC00001F5ADB22C43048430BD70B5034600204A
:101FD00000241846183001258D40ACB21D8CA54355
:101FE0001D8409B1082909D100EB6100056825F0BD
:101FF000700505600568154305600EE00D1FC5F30B
:102000004E052844056825F4E045056005684FF64F
:10201000FF7606EA02263543056070BD21B10288CD
:1020200042F00202028004E002884FF6FD731A407B
:102030000280704721B1028842F00402028004E06D
:1020400002884FF6FB731A400280704721B18288E4
:1020500042F08002828004E082884FF67F731A404B
:102060008280704702884FF6F7731A400280028818
:102070000A430280704782884FF68F731A4082802D
:1020800082880A438280704702894FF6F8731A40AB
:10209000028102890A430281704702894FF67F73E9
:1020A0001A40028102890A43028170478184704785
:1020B00081857047818670470187704781877047A7
:1020C000A0F84010704702884FF6FF431A40028084
:1020D00002880A43028070470146888E7047014695
:1020E000088F70470146888F70470146B1F840005D
:1020F00070470146888C70470146088D704702463C
:102100000020138A0B400BB1012000E00020704733
:10211000CA430282704730B50246002000230024E3
:10212000158A05EA0103958905EA010413B10CB18A
:10213000012000E0002030BDCA4302827047000049
:1021400010B50446FB48844209D101218803FEF7FB
:1021500019FF00214FF48040FEF714FF32E0F648EB
:10216000844209D101214804FEF719FF00214FF4F0
:102170000030FEF714FF25E0F048844209D1012128
:102180008804FEF70CFF00214FF48020FEF707FFC4
:1021900018E0EB48844209D10121C804FEF7FFFE94
:1021A00000214FF40020FEF7FAFE0BE0E5488442E0
:1021B00008D101210805FEF7F2FE00214FF480103E
:1021C000FEF7EDFE10BD2DE9F04786B005460E4640
:1021D0000024A24600BFA1460027B08900B100BF7D
:1021E0002F462C8A4CF6FF700440F08804432C8262
:1021F000AC894EF6F3100440B088318908437189E8
:1022000008430443AC81AC8A4FF6FF400440B089D8
:102210000443AC8201A8FEF72EFEC648874202D1D5
:10222000DDF810A001E0DDF80CA0A88900F4004062
:1022300040B10AEBCA0000EB0A1031684900B0FB5C
:10224000F1F807E00AEBCA0000EB0A1031688900D8
:10225000B0FBF1F86420B8FBF0F004012009642120
:1022600001FB1089A88900F4004040B1322000EB46
:10227000C900B0FBF1F000F00700044308E0322091
:1022800000EB09106421B0FBF1F000F00F000443F3
:102290002C8106B0BDE8F0874FF416510160002193
:1022A0008180C18001810C214181002181817047A1
:1022B00010B502460020108A4FF2FF0318400B8829
:1022C0004C8823438C882343CC88234318431082B3
:1022D00010BD0021018041808180C180704721B103
:1022E000828942F40052828104E082894DF6FF73B4
:1022F0001A4082817047F0B503460024002600256D
:10230000002040F66A17B94200D100BF1846C1F359
:10231000421401F01F06012707FA06F5012C01D12E
:102320000C3004E0022C01D1103000E014301AB15E
:1023300007682F43076002E00768AF430760F0BDFE
:102340001AB1838A0B43838202E0838A8B438382A0
:102350007047028A4FF6F0731A400282028A0A43DB
:102360000282704782894FF2FF731A40828182890C
:102370000A438281704721B1828942F00202828140
:1023800004E082894FF6FD731A4082817047028A09
:102390004FF6DF731A400282028A0A4302827047B4
:1023A00021B1028A42F48042028204E0028A4BF6A2
:1023B000FF731A4002827047C1F30802828070479F
:1023C00001468888C0F308007047818941F0010107
:1023D00081817047028BD2B20283028B42EA0122D2
:1023E00002837047028B02F47F420283028B0A430E
:1023F0000283704721B1828A42F02002828204E087
:10240000828A4FF6DF731A408282704721B1828A36
:1024100042F01002828204E0828A4FF6EF731A4083
:102420008282704721B1828A42F00802828204E0EF
:10243000828A4FF6F7731A408282704721B18289EF
:1024400042F40042828103E08289C2F30E0282815B
:10245000704721B1828A42F40062828204E0828A5B
:102460004FF2FF731A4082827047828A4FF6FB73E5
:102470001A408282828A0A438282704721B1828A0C
:1024800042F00202828204E0828A4FF6FD731A4013
:102490008282704702460020B1F5007F00D100BF64
:1024A00013880B400BB1012000E00020704701F4BD
:1024B0000072B2F5007F00D100BFCA4302807047AE
:1024C00070B50246002400230025002040F66A165D
:1024D000B14200D100BFC1F3421501F01F03012634
:1024E00006FA03F3012D02D19689334006E0022D4E
:1024F00002D1168A334001E0968A33400C1201263D
:1025000006FA04F41688344013B10CB1012000E03F
:10251000002070BD10B50022002340F66A14A142CD
:1025200000D100BF0A1201249440A3B2DC4304800E
:1025300010BD000000380140004400400048004049
:10254000004C00400050004000F01EF802F0DCF8A3
:1025500016E00C48007810B101280FD108E002F015
:10256000AEF801F015FC10B101200649087006E034
:1025700001F009FF00200349087000E000BF00BF20
:10258000E7E700002800002010B500F033F800F065
:10259000E5F900F015FE00F097F800F071FA01F08F
:1025A000E8F900F0E1FA01F045FB002001F04CFBF6
:1025B00000F0EEFB4FF4E13000F0D6F900F04FFFF1
:1025C0000021084601F048FA002001F0A2FAFF209D
:1025D00001F098FA01F034FF10BD704700BFFEE72C
:1025E00000BFFEE700BFFEE700BFFEE77047704791
:1025F0007047704710B56FF00400FDF746FF2E4896
:1026000000682E49B0FBF1F02D49087008460078AB
:1026100000EB4001C1EBC0104FF6FF7101EAC000B2
:102620002849088010BD0146254A12784A434FF0D8
:10263000E0235A6100229A611A46126942F00102AF
:102640001A6100BF4FF0E022106900F001021AB1D8
:1026500000F48032002AF5D04FF0E022126922F017
:1026600001024FF0E0231A6100229A61704701468F
:10267000144A12884A434FF0E0235A6100229A61BB
:102680001A46126942F001021A6100BF4FF0E022BF
:10269000106900F001021AB100F48032002AF5D06E
:1026A0004FF0E022126922F001024FF0E0231A619C
:1026B00000229A61704700000000002000127A009A
:1026C0002A0000202C00002008B501212020FEF760
:1026D0003FFC4FF44070ADF8000010208DF803006F
:1026E00003208DF8020069469948FEF775F94FF40A
:1026F00040719748FEF71DFA08BD10B59448001DBB
:10270000006820F0F0009249091D08600846006842
:1027100040F03000086001208E4908608E49C1F801
:10272000A0011420FFF77FFF00208A4908601420D1
:10273000FFF779FF00208849C1F8A00110BD10B54E
:102740008348001D006820F0F0008149091D0860E1
:102750000846006840F03000086000207D49091FED
:1027600008607D49C1F8A4011420FFF75CFF012037
:102770007849091F08607849C1F8A4011420FFF7BF
:1027800052FF10BD10B500247148001D006820F0F4
:10279000F0006F49091D08600846006840F080009D
:1027A000086048156A490C310860012069490860D1
:1027B0000A20FFF738FF01206749C1F8A0010A206D
:1027C000FFF731FF07E0601CC4B2FA2C03DDFFF70E
:1027D000B6FF012010BD5F48803800680028F2D1A4
:1027E0005C49091F086000BFF4E710B50020594993
:1027F000091F08605648001D006820F0F000544989
:10280000091D08600846006840F03000086000209C
:102810005149C1F8A4011420FFF705FF01204D49DB
:10282000091F08601420FFF7FEFE00204A49C1F886
:10283000A00110BD10B500204649091F086044489A
:10284000001D006820F0F0004149091D086008469D
:10285000006840F03000086001203F49C1F8A40141
:102860000220FFF7E0FE01203A49091F086002201C
:10287000FFF7D9FE00203849C1F8A00110BD70B59E
:1028800004463348001D006820F0F0003049091D5F
:1028900008600846006840F03000086000202D49BC
:1028A000091F0860002517E0E0092A490860600652
:1028B000040E0220FFF7B7FE01202749C1F8A0014E
:1028C0000220FFF7B0FE00202249091F0860022005
:1028D000FFF7A9FE681CC5B2082DE5DB70BD70B519
:1028E000054600241A48001D006820F0F000184931
:1028F000091D08600846006840F08000086048151F
:1029000013490C310860002617E000201149091F07
:1029100008600220FFF787FE01200F49C1F8A001DF
:102920006006040E0B488038006808B1601CC4B211
:102930000120FFF778FE701CC6B2082EE5DB15B942
:10294000FFF778FF01E0FFF750FF204670BD000061
:1029500000140140A48122420080224210B54FF4AD
:10296000A060FDF743FD10BD10B586B004461E22E1
:102970003F49404800F0EBF901211020FEF7E8FA4A
:102980000121C804FEF7F1FA4FF48060ADF814009D
:1029900003208DF8160018208DF8170005A9364879
:1029A000FEF71AF84FF40060ADF8140004208DF81B
:1029B000170005A93048FEF70FF834208DF8000005
:1029C00003208DF8010000208DF8020001208DF811
:1029D00003006846FDF70FFD01940020ADF80800E4
:1029E000ADF80A00ADF80C00ADF810000C20ADF801
:1029F0000E0001A92148FFF7E6FB012240F2255114
:102A00001E48FFF778FC01211C48FFF768FC06B060
:102A100010BD10B540F225511848FFF751FD78B1AF
:102A200040F225511548FFF775FD1448FFF7C8FC23
:102A3000C4B21048214602699047032000F0FFF914
:102A400010BD70B506460C4615460BE014F8011B88
:102A50003046FFF7B1FC00BF40213046FFF71AFDBA
:102A60000028F9D0281EA5F101018DB2EED170BD6C
:102A7000BC0000209800002000100140004C0040E5
:102A800000B587B001214FF40470FEF761FA4FF4EE
:102A90000040FEF7C1F90F20ADF8040000208DF8CA
:102AA000070001A92E48FDF797FF2E48FDF70CFD02
:102AB000002002908DF80C008DF80D004FF460207E
:102AC00004900020059001208DF8180002A92548E7
:102AD000FDF721FD01212348FDF749FD2148FDF7C0
:102AE00068FD00BF1F48FDF769FD0028FAD11D48A9
:102AF000FDF76EFD00BF1B48FDF76FFD0028FAD102
:102B000007B000BD10B50446072301222146154831
:102B1000FDF799FD01211348FDF769FD00BF022172
:102B20001048FDF7D5FE0028F9D00E48FDF7F2FD5C
:102B300010BD2DE9F04107460C460025002608E0AF
:102B40003846FFF7DFFF05440120FFF790FD701CBA
:102B5000C6B2A642F4DBB5FBF4F080B2BDE8F0816A
:102B6000001001400024014000B585B00121C803D8
:102B7000FEF7FBF90020ADF800004FF48270ADF8CD
:102B800002000020ADF804000220ADF8060001208C
:102B9000ADF808004002ADF80A003820ADF80C008E
:102BA0000020ADF80E000720ADF810006946184867
:102BB000FEF758FA01211648FEF7F9FA05B000BDF4
:102BC00070B50546002405E0601CC4B2C82C01DDC8
:102BD000002070BD02210E48FEF76DFB0028F3D0E7
:102BE00029460B48FEF714FB002405E0601CC4B224
:102BF000C82C01DD0020ECE701210548FEF75BFB56
:102C00000028F3D00248FEF705FBC0B2E1E7000060
:102C1000003C00400A68C3689A4203D20A68521C0A
:102C20000A6001E082680A60704770B504460D468C
:102C3000606818B9A068606020600BE0211D204624
:102C4000FFF7E8FFD4E90010884203D1214620466F
:102C5000FFF7E0FF6068057070BD2DE9F0410446A4
:102C60000F4615464FF000082046216A8847A842C3
:102C700019DB002614E0206802784046411C0FFA58
:102C800081F83A54D4E90001884203D10020206041
:102C9000606007E021462046FFF7BCFF701C06B2CB
:102CA000AE42E8DB00BF4046BDE8F08170B50446A7
:102CB0000E462046216A8847B04203DA2046A169C1
:102CC00088471AE0A0882189401A401C85B2B54285
:102CD00006DB6168491B481C294601F06BFD0BE0CF
:102CE0002946A06801F066FD701B85B2E168491BAA
:102CF000481C294601F05EFD00BF70BD10B50146BD
:102D00000A680AB9002012E0D1E900329A4205D3DC
:102D10008A880B88D21A521C90B208E08A890B89E3
:102D2000D21A0B888C881B1BD21A921C90B210BD31
:102D300070B50446A0892189401A401C85B22946F5
:102D4000A06801F037FD00202060606070BD30B5E4
:102D500081608B185B1EC360002303604360002406
:102D6000531E8568EC54AFF23D130361044B43617D
:102D7000044B8361044BC361044B036230BD00000C
:102D80005B2C0008312D0008AD2C0008FD2C00083C
:102D90001FB501210220FEF7E8F840F2F310ADF86C
:102DA000080041F61F40ADF804000020ADF80A000D
:102DB000ADF8060001A92D48FEF788FB1D208DF80F
:102DC000000006208DF8010000208DF8020001208F
:102DD0008DF803006846FDF70EFB01212348FFF73D
:102DE000ABF9012211462148FEF7E7FE1FBD02287C
:102DF00007D10021420791844107098821F0010190
:102E00001180032809D10021184A24321180174962
:102E1000098821F00101154A1180704710B5012180
:102E20001248FFF778F948B101211048FFF784F9FB
:102E30000320FFF7DCFF01200D49087010BD0228B8
:102E400007D10021420791844107098841F001011F
:102E50001180032809D10021044A2432118003493A
:102E6000098841F00101014A1180704700040040C7
:102E70002E00002070B504460026FFF73EFC2546D4
:102E8000E11704EB11610912A02202EB4101C8B263
:102E9000FFF7F5FCFFF776FCE11704EB116109126F
:102EA000A4EB0121C8B2FFF7EAFCFFF76BFCFFF7C8
:102EB00024FCA120FFF7E3FCFFF764FC0020FFF7F0
:102EC0000EFD0646FFF73BFC304670BD70B504466C
:102ED0000E46FFF712FC2546E11704EB11610912BB
:102EE000A02202EB4101C8B2FFF7C9FCFFF74AFC80
:102EF000E11704EB11610912A4EB0121C8B2FFF73D
:102F0000BEFCFFF73FFC3046FFF7B9FCFFF73AFC89
:102F1000FFF715FC0A20FFF7AAFB70BD2DE9F04171
:102F200006460F46154601240EE0621ED20027FA1F
:102F300002F2D1B27219121B90B2FFF7C7FF0A203A
:102F4000FFF795FB601CC4B2AC42EEDDBDE8F0813A
:102F50002DE9F04107460C46002625460BE03602D7
:102F60003919491B88B2FFF785FF06440A20FFF78D
:102F70007EFB681EC5B2002DF1DC3046BDE8F08155
:102F800010B540F2FF10FFF775FF0446552C01D134
:102F9000002010BD552140F2FF10FFF797FF40F2CF
:102FA000FF10FFF767FF0446552C01D10020F0E722
:102FB0000120EEE770B506460C46154608E030469F
:102FC000721C96B2FFF756FF04F8010B681E85B21B
:102FD000002DF4D170BD70B505460C46164606E0CE
:102FE00021782846FFF772FF681C85B2641C301EEA
:102FF000A6F101018EB2F3D170BD000070B5054697
:103000000E466E48845D002D67D184B900210120F1
:1030100000F0CAFA0021032000F0C6FA00210520C2
:1030200000F0C2FA0021072000F0BEFAC5E0002C33
:1030300012DD202C10DC2146012000F0B5FA002121
:10304000032000F0B1FA0021052000F0ADFA0021C4
:10305000072000F0A9FAB0E0202C14DD402C12DC8F
:103060000021012000F0A0FAA4F1200081B2032089
:1030700000F09AFA0021052000F096FA00210720BE
:1030800000F092FA99E0402C14DD602C12DC002153
:10309000012000F089FA0021032000F085FAA4F154
:1030A000400081B2052000F07FFA0021072000F0E7
:1030B0007BFA82E00021012000F076FA0021032053
:1030C00000F072FA0021052000F06EFAA4F1600011
:1030D00081B2072000F068FA6FE0012D67D184B952
:1030E0000021022000F060FA0021042000F05CFAC8
:1030F0000021062000F058FA0021082000F054FAC0
:103100005BE0002C12DD202C10DC2146022000F0B8
:103110004BFA0021042000F047FA0021062000F0BD
:1031200043FA0021082000F03FFA46E0202C14DD8D
:10313000402C12DC0021022000F036FAA4F120001D
:1031400081B2042000F030FA0021062000F02CFAB1
:103150000021082000F028FA2FE0402C14DD602C1C
:1031600012DC0021022000F01FFA0021042000F0F0
:103170001BFAA4F1400081B2062000F015FA0021EC
:10318000082000F011FA18E00021022000F00CFAEB
:103190000021042000F008FA0021062000F004FAC3
:1031A000A4F1600081B2082000F0FEF905E0022DD4
:1031B00003D102210A2000F0F7F970BD2F00002092
:1031C00008B501217D20FDF7C3FE01215D48FDF713
:1031D000D4FC48F21F00ADF8000010208DF8030069
:1031E00003208DF8020069465748FDF7F5FB48F2C9
:1031F0001F015548FDF79FFC4FF48070ADF80000AB
:1032000004208DF8030069464F48FDF7E5FB40F6C2
:103210004470ADF8000010208DF8030003208DF8F5
:10322000020069464948FDF7D7FB40F6447147481C
:10323000FDF781FC0320ADF8000004208DF80300A9
:1032400069464248FDF7C8FB8020ADF800004820E1
:103250008DF8030069463D48FDF7BEFB80213B48E1
:10326000FDF767FC3820ADF8000018208DF803004A
:1032700003208DF8020069463448FDF7ADFB382184
:103280003248FDF756FC4FF47040ADF800001020B6
:103290008DF8030003208DF8020069462C48FDF7E5
:1032A0009BFB4FF470412A48FDF745FC4FF47C70BE
:1032B000ADF8000004208DF8030069462448FDF7AE
:1032C0008BFB41F67F40ADF8000010208DF8030025
:1032D00003208DF8020069461E48FDF77DFB41F68C
:1032E0007F411C48FDF727FC4FF46040ADF800001B
:1032F00004208DF8030069461648FDF76DFB802019
:10330000ADF8000048208DF8030069461148FDF72C
:1033100063FB80210F48FDF70CFC4FF6FF70ADF802
:10332000000010208DF8030003208DF8020069468C
:103330000948FDF751FB4FF6FF710748FDF7FBFB0E
:1033400008BD00000002300000080140000C0140F0
:1033500000100140001401400018014070B50446FF
:10336000002524E020218D48FDF7E5FB04F08000D6
:1033700020B140218948FDF7DCFB03E0402187486C
:10338000FDF7D9FB6006040E0A20FFF74CF9202157
:103390008248FDF7CEFB0A20FFF745F920217F4840
:1033A000FDF7C9FB0A20FFF73EF9681CC5B2082DDE
:1033B000D8DB70BD10B5044680217848FDF7B9FB15
:1033C0000120FFF754F9F820FFF7C8FF04F0F000E0
:1033D000FFF7C4FFF02101EA0410FFF7BFFF8021CF
:1033E0006E48FDF7A8FB0220FFF741F910BD10B5AC
:1033F000044680216948FDF79CFB0120FFF737F95F
:10340000FA20FFF7ABFF04F0F000FFF7A7FFF02171
:1034100001EA0410FFF7A2FF80216048FDF78BFB53
:103420000220FFF724F910BD08B501210820FDF79F
:103430008FFDE820ADF8000010208DF80300032078
:103440008DF8020069465548FDF7C6FAE821544850
:10345000FDF771FB08215148FDF76BFB08BD10B566
:103460006420FFF704F9FFF7DFFF3020FFF7A2FF2A
:103470000C20FFF79FFF0120FFF79CFF1420FFF7B0
:10348000F6F80620FFF796FF10BD10B50024302097
:10349000FFF790FF8020FFF78DFF00BF04E02020A2
:1034A000FFF7A5FF601CC4B2402CF8DB10BD70B55F
:1034B0000446002500263020FFF77CFF34B1012CA4
:1034C00006D0022C06D0032C08D105E0802605E0AA
:1034D000902603E0882601E0982600BF00BF304612
:1034E000FFF768FF002504E02020FFF780FF681C3D
:1034F000C5B2102DF8DB70BD70B505460E461446FA
:103500003020FFF757FF082101FB0561254A505C79
:10351000FFF750FF18E0082E02D10026681CC5B244
:10352000042D00D10025082101FB05611D4A505CD6
:10353000FFF740FF2078FFF75AFF641C2078FFF761
:1035400056FF641C701CC6B220780028E3D170BD01
:1035500030B502460020002300BF0A2491FBF4F599
:1035600004FB151391FBF4F4A1B203F1300402F84B
:10357000014B441CE0B20029EFD130BD10B5034629
:10358000002000BF06E09C18241A14F8014C0C54CB
:10359000441CE0B29042F6DB10BD00000008014080
:1035A000000C0140CA4B000870B506460D46012EBE
:1035B0002CD1C5F1200085B2002419E0AC4205D120
:1035C0004FF48071FC48FDF7B6FA04E04FF48071C7
:1035D000F948FDF7AEFA8021F748FDF7ACFA28204C
:1035E000FFF721F88021F448FDF7A3FA601CC4B26C
:1035F000202CE3DB0421F148FDF79DFA2820FFF79A
:1036000012F80421ED48FDF794FAB1E1022E30D111
:10361000C5F1200085B200241BE0AC4205D14FF477
:103620000061E548FDF787FA04E04FF40061E248E5
:10363000FDF77FFA4FF48061DF48FDF77CFA282020
:10364000FEF7F1FF4FF48061DB48FDF772FA601C72
:10365000C4B2202CE1DB4FF40071D748FDF76BFAC0
:103660002820FEF7E0FF4FF40071D348FDF761FA20
:103670007EE1032E2CD1C5F1200085B2002417E095
:10368000AC4204D10221CE48FDF755FA03E00221F5
:10369000CB48FDF74EFA0121C948FDF74CFA282026
:1036A000FEF7C1FF0121C648FDF743FA601CC4B212
:1036B000202CE5DB4FF48051C248FDF73CFA28206E
:1036C000FEF7B1FF4FF48051BE48FDF732FA4FE1EB
:1036D000042E2AD1C5F1200085B2002417E0AC42A7
:1036E00004D11021B648FDF726FA03E01021B448B2
:1036F000FDF71FFA0821B248FDF71DFA2820FEF752
:1037000092FF0821AE48FDF714FA601CC4B2202CC9
:10371000E5DB0421AA48FDF70EFA2820FEF783FF17
:103720000421A748FDF705FA22E1052E2ED1C5F1A7
:10373000200085B200241BE0AC4205D14FF400719B
:103740009E48FDF7F8F904E04FF400719B48FDF73F
:10375000F0F94FF480719948FDF7EDF92820FEF754
:1037600062FF4FF480719548FDF7E3F9601CC4B225
:10377000202CE1DB20219248FDF7DDF92820FEF71F
:1037800052FF20218E48FDF7D4F9F1E0062E2AD110
:10379000C5F1200085B2002417E0AC4204D1042119
:1037A0008548FDF7C8F903E004218348FDF7C1F916
:1037B00002218148FDF7BFF92820FEF734FF0221DE
:1037C0007D48FDF7B6F9601CC4B2202CE5DB012171
:1037D0007948FDF7B0F92820FEF725FF012176484A
:1037E000FDF7A7F9C4E0072E30D1C5F1200085B25E
:1037F00000241BE0AC4205D14FF400417148FDF7B5
:103800009AF904E04FF400416E48FDF792F94FF445
:1038100080416C48FDF78FF92820FEF704FF4FF434
:1038200080416848FDF785F9601CC4B2202CE1DBBB
:103830004FF400516348FDF77EF92820FEF7F3FEB0
:103840004FF400515F48FDF774F991E0082E2AD13A
:10385000C5F1200085B2002417E0AC4204D1042158
:103860005948FDF768F903E004215748FDF761F96D
:1038700002215548FDF75FF92820FEF7D4FE02210A
:103880005148FDF756F9601CC4B2202CE5DB01213C
:103890004D48FDF750F92820FEF7C5FE01214A48A2
:1038A000FDF747F964E0092E30D100241EE005FA47
:1038B00004F000F0800028B14FF400413E48FDF7CD
:1038C00038F904E04FF400413B48FDF734F94FF478
:1038D00000613A48FDF72FF92820FEF7A4FE4FF4C7
:1038E00000613648FDF725F9601CC4B2082CDEDB08
:1038F0004FF480613148FDF71EF92820FEF793FE52
:103900004FF480612D48FDF714F931E00A2E2FD1D4
:1039100000241EE005FA04F000F0800028B14FF406
:1039200080612748FDF707F904E04FF480612448DF
:10393000FDF7FFF84FF480512148FDF7FCF82820EF
:10394000FEF771FE4FF480511D48FDF7F2F8601C40
:10395000C4B2082CDEDB4FF400611948FDF7EBF828
:103960002820FEF760FE4FF400611548FDF7E1F8EE
:1039700070BD10B500210120FFF716FE00210220C6
:10398000FFF712FE00210320FFF70EFE00210420A6
:10399000FFF70AFE00210520FFF706FE00210620A2
:1039A000FFF702FE00210720FFF7FEFD002108209F
:1039B000FFF7FAFD10BD000000180140000C0140A7
:1039C00000140140001001400008014010B50446F9
:1039D0002CB94FF400511D48FDF791F810BD012C92
:1039E00004D1A1031948FDF78AF8F7E7022C04D1A6
:1039F000A1031648FDF783F8F0E7032C04D140211A
:103A00001348FDF77CF8E9E7042C04D18021104825
:103A1000FDF775F8E2E7052C05D14FF480710C48ED
:103A2000FDF76DF8DAE7062C05D14FF40071084870
:103A3000FDF765F8D2E7072C05D14FF480710548F2
:103A4000FDF75DF8CAE700BFC8E7000000140140B9
:103A5000001001400008014070B504460D46012DDC
:103A600005D17148007820436F49087004E06E4822
:103A7000007820406C4908706B4801780920FFF7F6
:103A800093FD70BD10B50446012C04D101036748B5
:103A9000FDF74FF835E0042C04D1A1026348FDF78F
:103AA0004AF82EE0022C04D121036048FDF741F8CA
:103AB00027E0052C05D14FF400515C48FDF73BF899
:103AC0001FE0032C05D14FF480415848FDF731F831
:103AD00017E0062C05D14FF480415448FDF72BF830
:103AE0000FE074B94FF480515048FDF724F84FF4BB
:103AF00000514E48FDF71FF84FF480414B48FDF749
:103B00001AF810BD10B5044621460A20FFF74CFDF7
:103B100010BD10B50446012C14D108214348FDF70F
:103B200008F810214148FDF706F820213F48FDF72D
:103B300002F840213D48FCF7FEFF10213C48FCF70D
:103B4000FAFF70E0022C14D110213848FCF7F1FF85
:103B500008213648FCF7EFFF20213448FCF7EBFF43
:103B600040213248FCF7E7FF10213148FCF7E3FF22
:103B700059E0032C14D120212C48FCF7DAFF08214E
:103B80002A48FCF7D8FF10212848FCF7D4FF402131
:103B90002648FCF7D0FF10212548FCF7CCFF42E077
:103BA000042C14D140212148FCF7C3FF08211F48F1
:103BB000FCF7C1FF10211D48FCF7BDFF20211B4869
:103BC000FCF7B9FF10211A48FCF7B5FF2BE0052CD4
:103BD00014D110211648FCF7ACFF08211348FCF75C
:103BE000AAFF10211148FCF7A6FF20210F48FCF77F
:103BF000A2FF40210D48FCF79EFF14E09CB908216C
:103C00000A48FCF798FF10210848FCF794FF202190
:103C10000648FCF790FF40210448FCF78CFF102178
:103C20000348FCF788FF10BD9000002000180140F9
:103C30000008014010B540215348FCF77AFF4021AD
:103C40005248FCF776FF10BD70B50446002524B934
:103C500040214D48FCF76FFF03E040214B48FCF743
:103C60006AFF0120FEF703FD002507E0FF20FEF7B5
:103C7000A7FF6420FEF7D7FC681CC5B2642DF5DBF6
:103C80000120FEF7F4FC2020FEF79AFF4FF4967017
:103C9000FEF7C9FC0C20FEF793FF4FF49670FEF779
:103CA000C2FC1020FEF78CFF4FF49670FEF7BBFCB1
:103CB0004020FEF785FF4FF49670FEF7B4FC2120FC
:103CC000FEF77EFF4FF49670FEF7ADFC0C20FEF77A
:103CD00077FF4FF49670FEF7A6FC1120FEF770FFF9
:103CE0004FF49670FEF79FFC4020FEF769FF4FF4FB
:103CF0009670FEF798FC24B940212348FCF719FF81
:103D000003E040212148FCF714FF70BD70B5054663
:103D10000E46002400BF80211B48FCF7F0FE00285F
:103D2000F9D10120FEF7A3FC25B940211648FCF784
:103D300002FF03E040211548FCF7FDFE0120FEF7DD
:103D400096FC1EB93820FEF73BFF02E03920FEF753
:103D500037FF6420FEF78BFCFF20FEF731FF0443A2
:103D60004FF6FF7000EA0424FF20FEF729FF04430A
:103D700025B940210448FCF7DCFE03E0402103485C
:103D8000FCF7D7FE204670BD00140140000C014036
:103D900010B50020FFF71AFE40B10A20FEF767FCBD
:103DA0000020FFF713FE08B1102010BD0020FCE733
:103DB0002DE9F05F0026002400250027A146A24639
:103DC000A0460520FFF7A5FEFC20FFF79BFEFE485E
:103DD0004478857821460020FFF710F92946012014
:103DE000FFF70CF900BF6AE000210846FFF78EFFDD
:103DF0000746A7F5FE40FF38322148434FF6FF71D2
:103E000090FBF1FB584600F049FE8246012100205C
:103E1000FFF77CFF0746A7F5FE40FF3841F28831E7
:103E200048434FF6FF7190FBF1FB584600F036FE19
:103E300081465146484600F04FFD8046E3490978E7
:103E4000481D00F02BFE8346414600F03FFE1BD28A
:103E5000404600F003FEDE490988DE4A02EBC1015C
:103E6000C880DB49098802EBC101CC70D8490988B8
:103E700002EBC1010D710120D549098802EBC10196
:103E80008870D349887018E0404600F0E7FDD049BB
:103E90000988D04A02EBC101C880CD49098802EBEC
:103EA000C101CC70CA49098802EBC1010D71002023
:103EB000C749098802EBC1018870701CC6B2032E85
:103EC00092DBC3480088401CC1490880F320FFF7FB
:103ED00019FEBD4890F8584090F8595021460020EE
:103EE000FFF78CF829460120FFF788F800266AE0E2
:103EF00000210846FFF70AFF0746A7F5FE40FF38F6
:103F0000322148434FF6FF7190FBF1FB584600F019
:103F1000C5FD824601210020FFF7F8FE0746A7F500
:103F2000FE40FF3841F2883148434FF6FF7190FB65
:103F3000F1FB584600F0B2FD81465146484600F07C
:103F4000CBFC8046A1494978481D00F0A7FD834677
:103F5000414600F0BBFD1BD2404600F07FFD9C496E
:103F600009889C4A02EBC101C8809949098802EB83
:103F7000C101CC709649098802EBC1010D71012085
:103F80009349098802EBC10188709149887018E053
:103F9000404600F063FD8E4909888E4A02EBC1015C
:103FA000C8808B49098802EBC101CC708849098817
:103FB00002EBC1010D7100208549098802EBC101A6
:103FC0008870701CC6B2032E92DB81480088401CAA
:103FD0007F490880FF20FFF795FD0020FFF799FD3E
:103FE000BDE8F09F2DE9F0470024A146A046002639
:103FF000002700250320FFF78CFD00BF5DE0572060
:1040000060437549084446785720604308448778E0
:1040100031460020FEF7F2FF39460120FEF7EEFFA1
:104020004FF000083FE00B2000F0B6FB0546684863
:1040300000886649085C0A30A84219DA644800889A
:10404000644901EBC000C58061490988614A02EBFF
:10405000C101CE705E49098802EBC1010F710120D8
:104060005B49098802EBC10188705949887016E0E4
:1040700057480088574901EBC000C580544909885A
:10408000544A02EBC101CE705149098802EBC101CB
:104090000F7100204E49098802EBC101887008F1B8
:1040A000010000F0FF08B8F1030FBCDB48480088AE
:1040B000401C47490880601CC4B2282C9FDB0220AA
:1040C000FFF727FD002457E04448065D611C475C6C
:1040D00031460020FEF792FF39460120FEF78EFFA1
:1040E0004FF000083EE00C2000F056FB0546374834
:1040F000408D00F57A70A84219DD354800883549B1
:1041000001EBC000C58032490988324A02EBC10187
:10411000CE702F49098802EBC1010F7101202C4993
:10412000098802EBC10188702949887016E0284887
:104130000088284901EBC000C58025490988254A27
:1041400002EBC101CE702249098802EBC1010F7157
:1041500000201F49098802EBC101887008F10100A5
:1041600000F0FF08B8F1030FBDDB19480088401CC0
:1041700017490880A01CC4B20A2CA5DB0220FFF757
:10418000C8FC002466E01648065D611C475C3146A9
:104190000020FEF733FF39460120FEF72FFF4FF0D6
:1041A00000084DE00C2000F0F7FA05460748408D66
:1041B00000F57A70A84228DD05480088054901EB22
:1041C000C000C58002490DE01A200020662F0020A3
:1041D00092000020DA000020C8200020612E00207C
:1041E000B82E00200988914A02EBC101CE70904997
:1041F000098802EBC1010F7101208D49098802EB8A
:10420000C10188708A49887016E08948008887490A
:1042100001EBC000C58086490988844A02EBC101D0
:10422000CE708349098802EBC1010F7100208049DB
:10423000098802EBC101887008F1010000F0FF0855
:10424000B8F1030FAEDB7A480088401C784908803B
:10425000A01CC4B21E2C96DB0220FFF75AFC0024DF
:1042600063E07448065D601C00F0FF0958E0714887
:1042700010F8097031460020FEF7C0FE39460120D3
:10428000FEF7BCFE4FF000083EE00C2000F084FA80
:1042900005466948408D00F57A70A84219DD6448EA
:1042A0000088624901EBC000C580614909885F4A06
:1042B00002EBC101CE705E49098802EBC1010F71AA
:1042C00001205B49098802EBC10188705849887058
:1042D00016E057480088554901EBC000C580544995
:1042E0000988524A02EBC101CE705149098802EB9C
:1042F000C1010F7100204E49098802EBC10188708D
:1043000008F1010000F0FF08B8F1030FBDDB4848D9
:104310000088401C4649088009F1010000F0FF09AF
:10432000B9F1280FA3DB601CC4B2282C99DB002054
:10433000FFF7EFFBBDE8F0872DE9F04105460024CB
:10434000002600270320FFF7E4FB012413E02146A9
:104350000020FEF753FE0B2000F01EFA0746B7F5CB
:10436000FA7F03D205F8014B701CC6B26420FEF739
:104370005AF9601CC4B2612CE9DB0020FFF7C9FBCD
:104380003046BDE8F08110B5002400F0C7F90121E6
:104390002020FFF761FB01211020FFF75DFB1DE0EE
:1043A0000220FFF713FB00B119E00320FFF70EFB1B
:1043B00050B100F0A9F90021DF20FFF74DFB0021EB
:1043C000EF20FFF749FB10BD2046611C8CB2B0F511
:1043D000FA6F00DD03E00120FEF749F9E0E700BFD6
:1043E00001210820FFF738FB00201149C870088020
:1043F0008870FFF7DDFCFFF7F5FD0021F720FFF7E0
:104400002BFB6420FEF733F90021EF20FFF724FB9C
:104410006420FEF72CF90021DF20FFF71DFB0120AF
:104420000349C87000F0C8F800BFCCE7DA000020EC
:10443000920000200F2F0020662F00207047704749
:1044400070B50020FEF716FD0546552D0FD05521FD
:104450000020FEF73BFD002406E0611C88B200212D
:10446000FEF734FD601C84B22C2CF6DB0AE02A2215
:1044700005490120FEF79EFD022203492A3103204F
:10448000FEF798FD70BD0000662F002010B50024D7
:104490000120FFF79BFA012815D10A20FEF7E7F863
:1044A00004E0601C84B20120FEF7E1F80120FFF770
:1044B0008DFA0128F5D040F2DC50844201DD312034
:1044C00010BD3020FCE70020FAE730B587B0044685
:1044D0000020049005900690002501900290039022
:1044E000FEF7E5FF0120FEF7E2FF0220FEF7DFFF07
:1044F00093A200210846FEF7FFFF934800EBC4009B
:10450000C17804A8FFF724F805462A4601A904A8A3
:10451000FFF734F801AA03210020FEF7EDFF002089
:104520000490ADF8140089A200210120FEF7E4FFF9
:10453000854800EBC400017904A8FFF709F8054697
:104540002A4601A904A8FFF719F801AA03210120AE
:10455000FEF7D2FF00200490ADF814007DA20021E8
:104560000220FEF7C9FF784800EBC400C18804A808
:10457000FEF7EEFF05462A4601A904A8FEF7FEFF56
:1045800001AA03210220FEF7B7FF07B030BD704734
:1045900010B50120FEF78BFF70A203210120FEF76A
:1045A000ABFF10BD10B50120FEF781FF6DA2032106
:1045B0000120FEF7A1FF10BD10B56C48807850B9FE
:1045C000FFF7F0FF0021BF20FFF746FA012180200E
:1045D000FFF742FA09E0FFF7DBFF00217F20FFF73A
:1045E0003BFA01214020FFF737FA002060490870AC
:1045F00010BD2DE9F043A3B04FF0000800260024C1
:10460000A1460027002558210DA800F0F5F800204C
:104610000C902C2101A800F0EFF85648006800909B
:10462000FEF733FF54A200210846FEF765FF41E084
:104630000DA8FFF781FE81469DF83400002832D096
:1046400000261FE00DA8815D0CA8FEF781FF07463C
:10465000002409E02819C5B2381B401E0CA9085CCB
:104660000DF80500601CC4B2BC42F3DB2021681CBD
:10467000C0B205460DF80010681CC5B200200C90B1
:10468000701CC6B24E45DDDB6A4600210120FEF7F4
:1046900033FF002520223021684600F083F858219E
:1046A0000DA800F0A9F8FFF7F1FE8046B8F1300F31
:1046B00000D100E0BCE700BF23B0BDE8F08310B537
:1046C0000024FFF7E3FE0446302C02D0312C18D131
:1046D00014E02648C07880B125480078FFF7F5FE41
:1046E00023480078401CC0B2214908701F4909883E
:1046F000884202DD00201E49087003E0FFF779FFC1
:1047000000E000BF00BF10BD10B50120FEF7CFFED6
:104710001BA202210120FEF7EFFE10BD10B5012003
:10472000FEF7C5FE19A202210120FEF7E5FE0021D9
:104730007F20FFF791F90021BF20FFF78DF910BD11
:104740005450313A00000000DA0000205450323A50
:1047500000000000446174613A0000004661696C29
:104760000000000050617373000000009200002000
:1047700096000020EC4B0008D5D2B5E3A3BA0000A8
:10478000D7BCB1B8B2E2CAD400000000B2E2CAD4C9
:10479000D6D02E2E0000000010B504462046FEF7AD
:1047A000B1F910BD02F0FF0343EA032242EA0242DC
:1047B00000F002B84FF000020429C0F0128010F09F
:1047C000030C00F01B80CCF1040CBCF1020F18BFED
:1047D00000F8012BA8BF20F8022BA1EB0C0100F080
:1047E0000DB85FEAC17C24BF00F8012B00F8012B53
:1047F00048BF00F8012B70474FF0000200B5134688
:1048000094469646203922BFA0E80C50A0E80C50F0
:10481000B1F12001BFF4F7AF090728BFA0E80C50A1
:1048200048BF0CC05DF804EB890028BF40F8042B9A
:1048300008BF704748BF20F8022B11F0804F18BF07
:1048400000F8012B7047704770477047754600F0BD
:104850002BF8AE4605006946534620F00700854612
:1048600018B020B5FBF7C0FCBDE820404FF00006B3
:104870004FF000074FF000084FF0000B21F0070148
:10488000AC46ACE8C009ACE8C009ACE8C009ACE88B
:10489000C0098D46704710B50446AFF3008020462E
:1048A000BDE81040FBF78BBC0048704794300020F7
:1048B00001491820ABBEFEE72600020070474010F9
:1048C00058BFC0F14040491058BFC1F1404181423A
:1048D000EFF30080704700004FF47F0C1CEAD01209
:1048E0001EBF1CEAD11392EA0C0F93EA0C0F00F0E2
:1048F000858090EA010F48BF42F4807240F4000CBA
:1049000041F400002CF07F4120F07F4000B581424F
:10491000A2EB03020FF2081CACEB504EC0F10000FA
:104920009EF800E04FEA4E0E00FB0EFC38BF490037
:104930004FEA2C1C02F5FA020CFB0EF34FEACE1ED6
:104940004FEA112C4FEAC1210EEB635E42EB22428B
:104950000EFB0CFC4FEA1C5300FB03114FEA112C19
:104960004FEA01310EFB0CFC4FEADC4C00FB0C1152
:10497000C14228BF09184CEB03335DF804EB10EB80
:10498000410143EBC250B2F57C0F38BF704729D5C7
:1049900012F0F00F1CBF00F1C04000F00040704763
:1049A000008182838485868788898B8C8D8E8F9108
:1049B0009293959697999A9C9D9FA0A2A3A5A7A82C
:1049C000AAACAEB0B2B3B5B7B9BCBEC0C2C5C7C958
:1049D000CCCED1D4D7D9DCDFE2E6E9ECF0F3F7FABC
:1049E000FE0000004FEA400C0CF1807CBCF17E4FD1
:1049F00028BF7047B0F1C04000F0E2B890EA010F64
:104A00000CEAD11348BF42F48072624538BF634557
:104A100007D213F47F0F16D080EA010000F00040A7
:104A2000704710B500F086F8097EFC3E00F005B82E
:104A300080EA010000F00040704780EA010000F0C9
:104A4000004000F0BDB812F47F0F04BF0248704769
:104A500080EA010000F0B4B80000C07FC10DD1F1C0
:104A60009E0206DB4FEA002343F0004323FA02F0E4
:104A70007047004207D54FEA4001B1F1FE4F02D224
:104A80004FF00000704710B500F054F849922480B0
:104A9000002070476FEA20007047000010F00041CE
:104AA00048BF4042B0FA80F310FA03F2C3F19D030D
:104AB0000BD051EAC35101EB1220530638BF7047A7
:104AC00000F1010008BF20F00100704750EA010C1E
:104AD00000F113801CF5000F58BFBCF5000F01D486
:104AE0008842704707D710F5000F58BF11F5000F27
:104AF00015D488427047894270471CF5000F04D5D1
:104B0000BCF5000FF7D5814270474FF0807C1CEB5D
:104B1000400F38BF1CEB410F01D28142704710B5E6
:104B200000F008F8922449004FF000504FF08051F7
:104B3000FFF7C5BE0EF1020E2EF0030E5EF8044B19
:104B4000244204D44FEA4102B2F17F4F11D84FEA18
:104B50004003B3F17F4F0CD80ED14FEAD07CB2F1B5
:104B60007F4F0CEB4C0C0CF1020C08BF4CEBD17CD2
:104B700004E04FF0080C01E04FEAD17C0CEB4C0351
:104B800024FA03F404F00704B4F1040C06D20EEB8B
:104B9000840CBDE810404CF0010C6047DFE80CF0DD
:104BA000070802024FF00040A0F5800010BD084643
:104BB000420018BFD2F1807288BF00F0004010BDE3
:104BC000FF2141EAD050C0057047808182838485EF
:104BD0008687909192939495969788898A8B8C8DED
:104BE0008E8F98999A9B9C9D9E9F000020000000AC
:104BF000104C000800000020980000006C01000824
:104C0000A84C0008980000206036000088010008C9
:104C100000A24A040000000000000000010203049A
:104C20000607080900000000010203040102030452
:104C30000607080902040608000000000000000042
:104C40000102030405060708090A0B0C0D0E0F10DC
:104C50001112131415161718191A1B1C1D1E1F20CC
:104C60002122232425262728292A2B2C2D2E2F30BC
:104C70003132333435363738393A3B3C3D3E3F40AC
:104C80004142434445464748494A4B4C4D4E4F509C
:104C90005152535455565758595A5B5C5D5E5F608C
:084CA00000000000000000000C
:0400000508000131BD
:00000001FF
