:020000040800F2
:10000000002700200D0200081F26000821260008F6
:1000100025260008292600082D26000800000000DB
:100020000000000000000000000000003126000871
:100030003326000800000000352600083726000897
:1000400027020008270200082702000827020008EC
:1000500027020008270200082702000827020008DC
:1000600027020008270200082702000827020008CC
:1000700027020008270200082702000827020008BC
:1000800027020008270200082702000827020008AC
:10009000270200082702000827020008270200089C
:1000A000270200082702000827020008270200088C
:1000B00027020008692E000827020008270200080E
:1000C000270200082702000827020008270200086C
:1000D000270200082702000827020008270200085C
:1000E000270200082702000827020008270200084C
:1000F000270200082702000827020008270200083C
:10010000270200082702000827020008270200082B
:100110005F2A0008270200082702000827020008BB
:10012000270200082702000827020008270200080B
:1001300000F002F800F05AF80AA090E8000C82449F
:100140008344AAF10107DA4501D100F04FF8AFF27C
:10015000090EBAE80F0013F0010F18BFFB1A43F0A5
:1001600001031847E04E0000004F00000A444FF022
:10017000000C10F8013B13F0070408BF10F8014B06
:100180001D1108BF10F8015B641E05D010F8016B4B
:10019000641E01F8016BF9D113F0080F1EBF10F8AF
:1001A000014BAD1C0C1B09D16D1E58BF01F801CBD2
:1001B000FAD505E014F8016B01F8016B6D1EF9D555
:1001C0009142D6D37047000000230024002500266A
:1001D000103A28BF78C1FBD8520728BF30C148BFAA
:1001E0000B6070471FB51FBD10B510BD04F043FD77
:1001F0001146FFF7F7FF02F0C7F904F061FD03B401
:10020000FFF7F2FF03BC04F069FD000009488047D6
:1002100009480047FEE7FEE7FEE7FEE7FEE7FEE7E8
:10022000FEE7FEE7FEE7FEE704480549054A064B00
:10023000704700002B030008310100080021002056
:100240000027002000230020002300200CB5002000
:10025000019000906C48006840F480306A49086062
:1002600000BF6948006800F4003000900198401C0D
:100270000190009818B90198B0F5A06FF1D16248CB
:10028000006800F4003010B10120009001E000206F
:1002900000900098012843D15C48006840F01000AD
:1002A0005A4908600846006820F0030008600846C4
:1002B000006840F0020008605348406852494860B6
:1002C0000846406848600846406840F480604860DE
:1002D0000846406820F47C1048600846406840F4B6
:1002E000E81048600846006840F08070086000BF71
:1002F0004548006800F000700028F9D04248406886
:1003000020F00300404948600846406840F0020081
:10031000486000BF3C48406800F00C000828F9D154
:100320000CBD10B5FFF792FF10BD10B53648006840
:1003300040F00100344908600846406834490840EC
:100340003149486008460068324908402E49086033
:100350000846006820F4802008600846406820F4C1
:10036000FE0048604FF41F008860FFF7DAFF4FF08F
:1003700000602949086010BD10B50021002000224E
:10038000214B5B6803F00C0121B1042906D0082938
:1003900028D107E0214B224C236027E01F4B204C43
:1003A000236023E0184B5B6803F47010164B5B6806
:1003B00003F48032022303EB904022B9194B4343EC
:1003C000174C23600DE0104B5B6803F4003323B13E
:1003D000144B4343124C236003E0104B4343104C37
:1003E000236003E00D4B0E4C236000BF00BF064BA3
:1003F0005B68C3F303130C4CE15C094B1B68CB40F7
:10040000074C236010BD0000001002400020024095
:100410000000FFF8FFFFF6FE08ED00E000127A0092
:100420000000002000093D00040000203149014384
:10043000314A1160704770B5002100230F22C47843
:1004400004B32D4C246804F4E064C4F5E064210A8C
:10045000C1F10403CA40447804FA03F184781440DB
:1004600021430901254C0678A155047804F01F05A5
:100470000124AC4005786D11AD0005F1E025C5F80B
:10048000004109E0047804F01F050124AC401C4D34
:100490000678761145F8264070BD1A4A0A40024394
:1004A000154B1B1F1A60704739B1134A121D126891
:1004B0000243114B1B1D1A6006E00F4A121D126801
:1004C00082430D4B1B1D1A607047042808D14FF062
:1004D000E021096941F004014FF0E022116107E0D9
:1004E0004FF0E021096921F004014FF0E022116191
:1004F000704700000000FA050CED00E000E400E0A9
:1005000080E100E080FFFF1F10B50446FA488442F6
:1005100008D10121401500F055FD0021601500F0C3
:1005200051FD17E0F548844208D10121001500F083
:1005300049FD0021201500F045FD0BE0F048844204
:1005400008D10121C80300F03DFD00214FF4004017
:1005500000F038FD10BD30B5024600200023506881
:10056000E84C20400D790C6844EA05242043506093
:100570009068E54C2040D1E902542C434D7944EA7F
:10058000450420439060D06A20F470000C7C641E07
:10059000E4B2234340EA0350D06230BD0021016041
:1005A000017141718160C16001210174704721B105
:1005B000826842F00102826003E0826822F0010258
:1005C0008260704721B1826842F48072826003E0E9
:1005D000826822F480728260704710B50023CBB22B
:1005E0001AB144681C43446002E044689C43446080
:1005F00010BD816841F0080181607047014600200C
:100600008A6802F008020AB1012000E00020704769
:10061000816841F0040181607047014600208A68CA
:1006200002F004020AB1012000E00020704721B16D
:10063000826842F4A002826003E0826822F4A00291
:1006400082607047014600208A6802F480020AB185
:10065000012000E00020704710B50A460021002369
:10066000416821F46041531E41EA4331416010BDAD
:1006700021B1426842F40062426003E0426822F421
:10068000006242607047F0B504460D46002000212C
:10069000092D11DDE068A5F10A0606EB46070726DD
:1006A00006FA07F18843A5F10A0606EB460603FAA7
:1006B00006F10843E0600CE0206905EB45070726DA
:1006C00006FA07F1884305EB450603FA06F10843ED
:1006D0002061072A0FDA606B561E06EB86071F267D
:1006E00006FA07F18843561E06EB860605FA06F160
:1006F0000843606322E00D2A0FDA206BD61F06EB59
:1007000086071F2606FA07F18843D61F06EB8606E2
:1007100005FA06F10843206310E0E06AA2F10D0635
:1007200006EB86071F2606FA07F18843A2F10D069D
:1007300006EB860605FA06F10843E062F0BD21B13A
:10074000826842F48012826003E0826822F48012A0
:10075000826070470146C86C80B2704766484C3072
:100760000068704721B1426842F48062426003E051
:10077000426822F480624260704721B1426842F4CC
:100780008052426003E0426822F480524260704727
:100790000A460021816821F4E041114381607047DD
:1007A00021B1826842F40042826003E0826822F450
:1007B00000428260704721B1826842F40212826076
:1007C00003E0826822F40212826070470146002032
:1007D0008A6802F400120AB1012000E0002070478C
:1007E000F0B504461546002000220026092911DD37
:1007F000E068A1F10A0707EB470C072707FA0CF29C
:100800009043A1F10A0707EB470703FA07F21043E9
:10081000E0600CE0206901EB410C072707FA0CF2BD
:10082000904301EB410703FA07F210432061A06BEC
:10083000C0F30156EF1C06F1010CA7EB0C0707EB08
:10084000870C1F2707FA0CF29043EF1C06F1010CEE
:10085000A7EB0C0707EB870701FA07F21043A06329
:10086000F0BD10B50A4600210023816B21F4401130
:10087000531E41EA0351816310BD08B50023009364
:100880000090009B0B440093009B1A6008BD08B5C4
:10089000024600200090009201F12800009B1844BD
:1008A00000900098006880B208BD0A4600214168A7
:1008B000164B194011434160704741628262704794
:1008C0000A460021416821F01F0111434160704731
:1008D00040B109490831096841F40001064A08326B
:1008E000116007E004490831096821F40001024A57
:1008F00008321160704700000024014000280140C8
:10090000003C0140FFFEF0FFFDF7F1FFFFFD3FFF60
:100910000246002013680B400BB1012000E00020CC
:100920007047CA430260704770B50246002000233A
:1009300000240B125568CEB205EA060415681D4066
:1009400015B10CB1012000E0002070BD00220A1298
:10095000D34303607047000010B50446CC4884427E
:1009600008D10121042000F02DFB0021042000F01B
:1009700029FB46E0C748844208D10121082000F045
:1009800021FB0021082000F01DFB3AE0C248844210
:1009900008D10121102000F015FB0021102000F0EB
:1009A00011FB2EE0BD48844208D10121202000F037
:1009B00009FB0021202000F005FB22E0B84884421A
:1009C00008D10121402000F0FDFA0021402000F074
:1009D000F9FA16E0B348844208D10121802000F0E2
:1009E000F1FA0021802000F0EDFA0AE0AE488442DE
:1009F00007D10121801500F0E5FA0021A01500F0D3
:100A0000E1FA10BD10B50121084600F0DBFA002123
:100A1000012000F0D7FA10BD2DE9F0410246002573
:100A20000026002000230024002791F803C00CF0CA
:100A30000F0591F803C00CF0100CBCF1000F03D0AF
:100A400091F802C04CEA050591F800C0BCF1000F16
:100A500031D0146800202BE04FF0010C0CFA00F3A9
:100A6000B1F800C00CEA03069E4220D183004FF08B
:100A70000F0C0CFA03F7BC4305FA03FC4CEA040420
:100A800091F803C0BCF1280F06D14FF0010C0CFA0D
:100A900000FCC2F814C00AE091F803C0BCF1480F92
:100AA00005D14FF0010C0CFA00FCC2F810C0401C3C
:100AB0000828D1D31460B1F800C0BCF1FF0F34DDB9
:100AC000546800202EE000F1080C4FF0010808FAED
:100AD0000CF3B1F800C00CEA03069E4221D183005A
:100AE0004FF00F0C0CFA03F7BC4305FA03FC4CEA79
:100AF000040491F803C0BCF1280F05D100F1080CE3
:100B000008FA0CF8C2F8148091F803C0BCF1480F41
:100B100007D100F1080C4FF0010808FA0CF8C2F8F0
:100B20001080401C0828CED35460BDE8F0814FF6F9
:100B3000FF710180022181700421C170704702465B
:100B4000002093680B400BB1012000E000207047AB
:100B50000146886880B2704702460020D3680B4087
:100B60000BB1012000E0002070470146C86880B248
:100B7000704701617047416170470AB1016100E04F
:100B800041617047C16070474FF480320A4382610F
:100B90008161826182698269704702460020434B0D
:100BA00018684FF68073184040EA021008433F4B24
:100BB000186070473E49C8617047F0B50A46002387
:100BC00000240021002500F00046B6F1004F02D1BC
:100BD000364EF16901E0354E7168C0F3034583B2CA
:100BE00000F44016B6F5401F08D121F070612F4E79
:100BF000766826F070662D4F7E6012E000F4801655
:100C0000B6F5801F06D1032606FA05F4A14341F08C
:100C1000706106E0460D360103FA06F6B14341F075
:100C2000706122B1460D360103FA06F6314300F039
:100C30000046B6F1004F02D11C4EF16101E01B4E9F
:100C40007160F0BD30B500228B071C0F0F2303FA33
:100C500004F2164B08338C1053F824309343134C92
:100C600008348D1044F8253023468C1053F8243076
:100C70008C07240F00FA04F423430C4C08348D1025
:100C800044F8253030BD0A49DC3108607047000067
:100C900000080140000C0140001001400014014018
:100CA00000180140001C01400020014000000140EC
:100CB00000002042DF48006840F00100DD49086084
:100CC00008464068DC490840DA4948600846006840
:100CD000DA490840D74908600846006820F48020B7
:100CE00008600846406820F4FE0048604FF41F008A
:100CF00088607047CF49096821F48031CD4A11607E
:100D00001146096821F480211160B0F5803F03D0BD
:100D1000B0F5802F0ED106E0C649096841F4803154
:100D2000C44A116007E0C349096841F4A021C14ADF
:100D3000116000E000BF00BF704710B501460022FF
:100D4000002300204A11012A02D1BA4C236806E090
:100D5000022A02D1B74C236A01E0B64C636A01F063
:100D60001F02012494401C400CB1012000E000202F
:100D700010BD38B5002000900024002500BF3120B0
:100D8000FFF7DBFF05460098401C00900098B0F587
:100D9000A06F01D0002DF2D03120FFF7CEFF08B1B7
:100DA000012400E00024204638BD01460020A14A6D
:100DB000106820F0F80040EAC10010607047A049B8
:100DC00008607047024600209A4B586820F47C1057
:100DD00042EA01031843974B5860704798490866E8
:100DE000704701460020934A506820F003000843F2
:100DF000506070478F48406800F00C007047014613
:100E000000208C4A506820F0F00008435060704782
:100E100001460020874A506820F4E0600843506093
:100E2000704701460020834A506820F4605040EA31
:100E3000C1005060704729B17E4A527A02437D4B0F
:100E40005A7204E07B4A527A82437A4B5A72704754
:100E50007B49D8310860704701460020754A5068C8
:100E600020F440400843506070470021714A20320E
:100E70001170704A82F82010012802D004280AD18B
:100E800004E001216B4A2032117005E00521694A16
:100E90002032117000E000BF00BF70476949086050
:100EA00070476449096A0143624A116270476549A3
:100EB00044390860704730B5002100220024002327
:100EC0005C4D6D6805F00C0121B1042905D008299D
:100ED00023D105E05C4D056022E05B4D05601FE01D
:100EE000544D6D6805F47012524D6D6805F48034F0
:100EF000022505EB92421CB9544D554305600BE0A9
:100F00004C4D6D6805F400351DB1504D55430560DD
:100F100002E04D4D5543056002E04B4D056000BFBA
:100F200000BF444D6D6805F0F0010909484D6B5C48
:100F30000568DD4045603F4D6D6805F4E061090AD4
:100F4000434D6B5C4568DD4085603A4D6D6805F446
:100F50006051C90A3E4D6B5C4568DD40C560354D4A
:100F60006D6805F44041890B3A4D6B5CC568B5FB73
:100F7000F3F5056130BD29B12E4A526902432D4B6C
:100F80005A6104E02B4A526982432A4B5A617047E6
:100F900029B1284A92690243264B9A6104E0254A06
:100FA00092698243234B9A61704729B1214AD269E1
:100FB0000243204BDA6104E01E4AD26982431D4B92
:100FC000DA61704729B11B4AD2680243194BDA60D3
:100FD00004E0184AD2688243164BDA60704729B1A0
:100FE000144A12690243134B1A6104E0114A126950
:100FF0008243104B1A6170471249403908607047AC
:101000000F49C86470470B49C87170470948406A66
:1010100040F0807007494862704701460020054A49
:1010200092680A400AB1012000E00020704701499F
:1010300088727047001002400000FFF8FFFFF6FEC4
:10104000000042428004424200127A0000093D0042
:10105000140000202400002010B50446BE4884423D
:1010600008D101218014FFF7ADFF0021A014FFF784
:10107000A9FF16E0B948844208D101210014FFF706
:10108000AEFF00212014FFF7AAFF0AE0B448844213
:1010900007D10121C013FFF7A2FF0021E013FFF7E2
:1010A0009EFF10BD10B50022028802F441520B8849
:1010B0004C8823438C882343CC8823430C892343C7
:1010C0004C8923438C892343CC8923431A430280D0
:1010D000838B4FF2FF74234083830B8A038210BDFE
:1010E0002DE9F04F85B005460C464FF00009022768
:1010F0004FF000084FF0010B0026B246A88B4FF2CC
:1011000040010840A88302202884B5F81C90A068FC
:10111000022801D100BF38E0A08810B94FF0010BC0
:1011200001E04FF0020B8D48854200D100E000BF86
:101130006846FFF7C0FEDDF800A0E088B0F5007F4C
:101140000AD14FEA1A2000EB80004000A168B0FBF2
:10115000F1F0401D86B20BE04FEA4B10BAFBF0F005
:1011600000EB80004000A168B0FBF1F0401D86B2AA
:101170000A20B6FBF0F606F00108A6EB0800C0F363
:101180004F074FF6FF7000EA0828022F01DBFF2F00
:1011900002DD02274FF00008E08840EA08003843EB
:1011A0002884A088A18908436188084321880843CE
:1011B00040F4006040EA0909A5F81C9005B0BDE8BC
:1011C000F08F0021018041808180C18001814181B7
:1011D0008181C18107210182704700210180418006
:1011E0008180C1800221816000218181704721B10D
:1011F000028842F04002028004E002884FF6BF738A
:101200001A400280704721B1828B42F4806282834F
:1012100004E0828B4FF6FF331A408283704730B56B
:10122000002400230C110125A540ABB21AB185881A
:101230001D43858002E085889D43858030BD1AB1BD
:1012400083880B43838002E083888B4383807047CD
:10125000818170470146888970474FF6FF6291424D
:1012600004D0028842F48072028004E002884FF6C3
:10127000FF631A400280704721B1828842F0040265
:10128000828004E082884FF6FB731A4082807047A8
:1012900002884FF2FF731A40028002880A430280DC
:1012A0007047018841F480510180704721B1028864
:1012B00042F40052028004E002884DF6FF731A40A7
:1012C0000280704702460020012901D0108B00E007
:1012D000908A70470146088A7047B1F5804F04D163
:1012E000028842F48042028004E002884BF6FF73D9
:1012F0001A40028070470246002013890B400BB150
:10130000012000E000207047CA4302817047F0B519
:101310000246002000240023002501F00F070126CB
:10132000BE40B4B20B1101269E40B3B2968806EAC5
:1013300003051689264016B10DB1012000E00020FA
:10134000F0BD10B5002201F00F040123A3409AB2B2
:10135000D343038110BD000000300140003800403D
:10136000003C004010B50446FE48844208D10121EB
:10137000C014FFF727FE0021E014FFF723FEC4E0AE
:10138000B4F1804F08D101210846FFF728FE002163
:101390000120FFF724FEB8E0F348844208D1012180
:1013A0000220FFF71CFE00210220FFF718FEACE030
:1013B000EE48844208D101210420FFF710FE0021ED
:1013C0000420FFF70CFEA0E0E948844208D1012187
:1013D0000820FFF704FE00210820FFF700FE94E03C
:1013E000E448844208D101211020FFF7F8FD0021D4
:1013F0001020FFF7F4FD88E0DF48844208D1012186
:101400002020FFF7ECFD00212020FFF7E8FD7CE025
:10141000DA48844208D101214014FFF7D3FD0021AE
:101420006014FFF7CFFD70E0D548844209D1012157
:10143000C804FFF7C7FD00214FF40020FFF7C2FDED
:1014400063E0D048844209D101210805FFF7BAFDC5
:1014500000214FF48010FFF7B5FD56E0CA488442E2
:1014600009D101214805FFF7ADFD00214FF400101F
:10147000FFF7A8FD49E0C548844208D1012140207A
:10148000FFF7ADFD00214020FFF7A9FD3DE0C0487A
:10149000844208D101218020FFF7A1FD0021802096
:1014A000FFF79DFD31E0BB48844208D10121801542
:1014B000FFF795FD0021A015FFF791FD25E0B64847
:1014C000844209D101210804FFF77CFD00214FF47B
:1014D0008030FFF777FD18E0B048844209D1012140
:1014E0004804FFF76FFD00214FF40030FFF76AFD5D
:1014F0000BE0AB48844208D101218804FFF762FD6C
:1015000000214FF48020FFF75DFD10BD002202880E
:10151000944B98420ED0994B98420BD0B0F1804F2B
:1015200008D0914B984205D0904B984202D0904BF6
:10153000984204D14FF68F731A404B881A438D4B53
:10154000984207D08C4B984204D04FF6FF431A4084
:10155000CB881A4302808B8883850B880385814B57
:1015600098420BD0854B984208D08B4B984205D0BF
:101570008A4B984202D08A4B984201D10B7A03865B
:1015800001238382704770B5002400220023058C5C
:101590004FF6FE7635400584028C8388048B4FF627
:1015A0008F752C40B51E2C400D882C43751E2A408B
:1015B0000D892A434D882A436A4DA8420BD06F4DAE
:1015C000A84208D0744DA84205D0744DA84202D05C
:1015D000734DA84213D14FF6F7752A404D892A431F
:1015E0004FF6FB752A408D882A434FF6FF652B4046
:1015F0004FF6FF552B408D892B43CD892B4383809C
:101600000483CD888586028470BD70B500240022D5
:101610000023058C4FF6EF7635400584028C8388D5
:10162000048B48F6FF752C404FF6FF452C400D8883
:101630004FF6FF7606EA05252C434FF6DF752A4064
:101640000D8906EA05152A434D8806EA05152A4341
:10165000444DA84202D0494DA8421DD14FF67F7596
:101660002A404D894FF6FF7606EA05152A434FF6C4
:10167000BF752A408D8806EA05152A434FF6FF35C7
:101680002B404FF2FF752B408D8906EA85052B43D1
:10169000CD8906EA85052B4383800483CD880587A1
:1016A000028470BD70B5002400220023058C4FF623
:1016B000FF6635400584028C8388848B4FF68F75D6
:1016C0002C404FF6FC752C400D882C434FF6FF55EF
:1016D0002A400D894FF6FF7606EA05252A434D88F4
:1016E00006EA05252A431F4DA84202D0234DA842F1
:1016F0001DD14FF2FF752A404D894FF6FF7606EA5D
:1017000005252A434FF6FF352A408D8806EA052530
:101710002A434EF6FF752B404DF6FF752B408D8901
:1017200006EA05152B43CD8906EA05152B43838070
:101730008483CD888587028470BD70B50022002324
:101740000024058C4EF6FF7635400584038C848892
:10175000828B48F6FF752A404FF6FF452A400D88D8
:1017600020E00000002C0140000400400008004080
:10177000000C004000100040001400400034014004
:10178000004C01400050014000540140001800404E
:10179000001C004000200040004001400044014087
:1017A000004801404FF6FF7606EA05252A434DF62C
:1017B000FF752B400D8906EA05352B434D8806EA57
:1017C00005352B43FA4DA84202D0FA4DA84208D164
:1017D0004BF6FF752C408D894FF6FF7606EA85158E
:1017E0002C4384808283CD88A0F84050038470BD50
:1017F000828B4FF2FF331A408283828B4FF6FF7346
:1018000003EA01231A4382837047F0B50C4615465C
:10181000002200210026078C4EF6FF7C07EA0C0709
:101820000784828B018C4FF6FF7707EA043640F677
:10183000FF473A404FF6FF7707EA05273A434FF64E
:10184000FF7707EA03373A43D94FB8420ED0D94F52
:10185000B8420BD0B0F1804F08D0D74FB84205D076
:10186000D64FB84202D0D64FB84206D14DF6FF77D8
:10187000394046F48057394305E047F6FF57394071
:1018800044F48057394382830184F0BD828B4FF644
:10189000F3731A408283828B0A4382837047F0B5C8
:1018A0000C461546002200210026078C4FF6FF6CDF
:1018B00007EA0C070784828B018C4FF6FF7707EA53
:1018C00004264FF60C773A404FF6FF7707EA0317E6
:1018D0002F433A43B64FB8420ED0B64FB8420BD062
:1018E000B0F1804F08D0B44FB84205D0B34FB842E2
:1018F00002D0B34FB84206D14FF6FF57394046F4F5
:101900008077394305E04FF2FF57394044F4807740
:10191000394382830184F0BD028B4FF2FF331A40BA
:101920000283028B4FF6FF7303EA01231A430283FB
:101930007047F0B50C461546002200210026078CA2
:101940004FF6EF7C07EA0C070784028B018C4FF6F9
:10195000FF7707EA041640F6FF473A404FF6FF7755
:1019600007EA03373A434FF6FF7707EA05273A437A
:101970008F4FB8420ED08F4FB8420BD0B0F1804F8E
:1019800008D08D4FB84205D08C4FB84202D08C4F52
:10199000B84206D14FF6DF77394046F01007394399
:1019A00005E04FF65F77394044F010073943028372
:1019B0000184F0BD028B4FF6F3731A400283028B51
:1019C0000A4302837047F0B50C46154600220021F9
:1019D000068C4FF6FE773E400684028B018C4FF654
:1019E0000C7632407E1C06EA03162E433243704EBC
:1019F000B0420ED06F4EB0420BD0B0F1804F08D045
:101A00006D4EB04205D06D4EB04202D06C4EB04229
:101A100006D14FF6FD76314044F00106314305E032
:101A20004FF6F576314044F00106314302830184DC
:101A3000F0BD70B505460C465D4885420ED05D4848
:101A400085420BD0B5F1804F08D05B48854205D068
:101A50005A48854202D05A48854200D100E000BF72
:101A6000208850B92389A28861882846FFF7ABFFF8
:101A7000E1882846FFF79EFF25E0208804280AD148
:101A80002389A28861882846FFF753FFE18828460A
:101A9000FFF742FF17E0208808280AD12389A2888F
:101AA00061882846FFF7FBFEE1882846FFF7EEFE37
:101AB00009E02389A28861882846FFF7A6FEE1880D
:101AC0002846FFF795FE70BD2DE9F04105460C460E
:101AD00000260127608808B9022600E00026A088B9
:101AE000012801D1022700E001272088A0B923891D
:101AF000A28861882846FFF766FFE1882846FFF73D
:101B000059FF23893A4631462846FFF712FFE188FC
:101B10002846FFF701FF13E02389A2886188284641
:101B2000FFF707FFE1882846FFF7F6FE23893A46CC
:101B300031462846FFF747FFE1882846FFF73AFF7E
:101B4000BDE8F0810A884B881A438B881A43CB88FA
:101B50001A430B891A434B891A438B891A43A0F8FD
:101B6000442070474FF6FF71818000210180C180C1
:101B70004180017270470021018041808180C180D5
:101B8000018141818181C1817047002101804180B3
:101B9000012181800021C1800181704700210180E5
:101BA00041808180C1800181418181817047000035
:101BB000002C0140003401400004004000080040B7
:101BC000000C004021B1028842F00102028004E0D2
:101BD00002884FF6FE731A400280704731B1B0F8A8
:101BE000442042F40042A0F8442005E0B0F844202C
:101BF000C2F30E02A0F8442070471AB183890B4348
:101C0000838102E083898B4383817047818270479F
:101C100041EA0203A0F8483070471AB183890B43A8
:101C2000838102E083898B438381704701894FF66A
:101C3000F8721140018170470A46002101894FF670
:101C40008F73194011430181704730B504460D462A
:101C500029462046FFF7F0FF208940F00700208149
:101C600030BD2DE9F04104460D4616461F46602D55
:101C700006D13B46012231462046FFF75AFE05E0D9
:101C80003B46012231462046FFF79DFE294620466D
:101C9000FFF7D2FF208940F007002081BDE8F081E6
:101CA00030B50C4600210189C9B24FF6FF7505EA2F
:101CB0000325154325432943018130BD2DE9F0411A
:101CC00005460E4617469846002443463A46314696
:101CD0002846FFF7E5FF2C894FF6F870044044F0E2
:101CE00007044FF68F70044044F070042C81BDE867
:101CF000F081F0B504460D4616461F463B46324677
:101D000029462046FFF7CCFF208940F480402081FF
:101D1000F0BD0185828270470A46002101884FF696
:101D20008F731940114301807047F0B50C4615467A
:101D30001E460021002200230189028B038C4FF6EE
:101D4000F877394021434FF6FC473A4040F20117FB
:101D50003A434FF6DD773B404FF6FF7707EA061729
:101D60002F433B43018102830384F0BD0A460021D7
:101D7000018B4FF68F7319401143018370470A4658
:101D80000021018B48F6FF7319404FF6FF7303EAF9
:101D900002231943018370470A460021818B4FF6C5
:101DA0008F7319401143818370470A460021818B4C
:101DB00048F6FF7319404FF6FF7303EA02231943F5
:101DC0008183704721B1028842F08002028004E0E2
:101DD00002884FF67F731A400280704721B18288D3
:101DE00042F00402828004E082884FF6FB731A40BE
:101DF0008280704721B1828842F00802828004E02C
:101E000082884FF6F7731A408280704721B182882A
:101E100042F00102828004E082884FF6FE731A408D
:101E2000828070470A460021018B4FF6F7731940F4
:101E30001143018370470A460021018B4FF2FF7363
:101E400019404FF6FF7303EA0223194301837047D9
:101E50000A460021818B4FF6F773194011438183A5
:101E600070470A460021818B4FF2FF7319404FF6ED
:101E7000FF7303EA02231943818370470A46002156
:101E8000018B4FF6FB7319401143018370470A46DB
:101E90000021018B4FF6FF3319404FF6FF7303EA21
:101EA00002231943018370470A460021818B4FF6B4
:101EB000FB7319401143818370470A460021818BCF
:101EC0004FF6FF3319404FF6FF7303EA022319431D
:101ED000818370470A460021018B4FF67F731940BA
:101EE0001143018370470A460021018BC1F30E01A3
:101EF0004FF6FF7303EA02231943018370470A4632
:101F00000021818B4FF67F73194011438183704705
:101F10000A460021818BC1F30E014FF6FF7303EADD
:101F200002231943818370470A460021018C4FF632
:101F3000FD7319401143018470470A460021018C4A
:101F40004FF6F77319401143018470470A46002188
:101F5000018C4FF6DF7319404FF6FF7303EA02134B
:101F60001943018470470A460021018C4FF67F73A4
:101F700019404FF6FF7303EA0213194301847047B7
:101F80000A460021018C4FF6FF5319404FF6FF73AC
:101F900003EA02231943018470470A460021018C99
:101FA0004FF2FF7319404FF6FF7303EA0223194300
:101FB000018470470A460021018C4DF6FF731940D9
:101FC0004FF6FF7303EA023319430184704730B5BB
:101FD000002301248C40A3B2048C9C430484048C11
:101FE00002FA01F5ADB22C43048430BD30B50023B4
:101FF00004248C40A3B2048C9C430484048C02FA15
:1020000001F5ADB22C43048430BD70B50346002009
:1020100000241846183001258D40ACB21D8CA54314
:102020001D8409B1082909D100EB6100056825F07C
:10203000700505600568154305600EE00D1FC5F3CA
:102040004E052844056825F4E045056005684FF60F
:10205000FF7606EA02263543056070BD21B102888D
:1020600042F00202028004E002884FF6FD731A403B
:102070000280704721B1028842F00402028004E02D
:1020800002884FF6FB731A400280704721B18288A4
:1020900042F08002828004E082884FF67F731A400B
:1020A0008280704702884FF6F7731A4002800288D8
:1020B0000A430280704782884FF68F731A408280ED
:1020C00082880A438280704702894FF6F8731A406B
:1020D000028102890A430281704702894FF67F73A9
:1020E0001A40028102890A43028170478184704745
:1020F0008185704781867047018770478187704767
:10210000A0F84010704702884FF6FF431A40028043
:1021100002880A43028070470146888E7047014654
:10212000088F70470146888F70470146B1F840001C
:1021300070470146888C70470146088D70470246FB
:102140000020138A0B400BB1012000E000207047F3
:10215000CA430282704730B50246002000230024A3
:10216000158A05EA0103958905EA010413B10CB14A
:10217000012000E0002030BDCA4302827047000009
:1021800010B50446FB48844209D101218803FEF7BB
:1021900019FF00214FF48040FEF714FF32E0F648AB
:1021A000844209D101214804FEF719FF00214FF4B0
:1021B0000030FEF714FF25E0F048844209D10121E8
:1021C0008804FEF70CFF00214FF48020FEF707FF84
:1021D00018E0EB48844209D10121C804FEF7FFFE54
:1021E00000214FF40020FEF7FAFE0BE0E5488442A0
:1021F00008D101210805FEF7F2FE00214FF48010FE
:10220000FEF7EDFE10BD2DE9F04786B005460E46FF
:102210000024A24600BFA1460027B08900B100BF3C
:102220002F462C8A4CF6FF700440F08804432C8221
:10223000AC894EF6F3100440B088318908437189A7
:1022400008430443AC81AC8A4FF6FF400440B08998
:102250000443AC8201A8FEF72EFEC648874202D195
:10226000DDF810A001E0DDF80CA0A88900F4004022
:1022700040B10AEBCA0000EB0A1031684900B0FB1C
:10228000F1F807E00AEBCA0000EB0A103168890098
:10229000B0FBF1F86420B8FBF0F0040120096421E0
:1022A00001FB1089A88900F4004040B1322000EB06
:1022B000C900B0FBF1F000F00700044308E0322051
:1022C00000EB09106421B0FBF1F000F00F000443B3
:1022D0002C8106B0BDE8F0874FF416510160002153
:1022E0008180C18001810C21418100218181704761
:1022F00010B502460020108A4FF2FF0318400B88E9
:102300004C8823438C882343CC8823431843108272
:1023100010BD0021018041808180C180704721B1C2
:10232000828942F40052828104E082894DF6FF7373
:102330001A4082817047F0B503460024002600252C
:10234000002040F66A17B94200D100BF1846C1F319
:10235000421401F01F06012707FA06F5012C01D1EE
:102360000C3004E0022C01D1103000E014301AB11E
:1023700007682F43076002E00768AF430760F0BDBE
:102380001AB1838A0B43838202E0838A8B43838260
:102390007047028A4FF6F0731A400282028A0A439B
:1023A0000282704782894FF2FF731A4082818289CC
:1023B0000A438281704721B1828942F00202828100
:1023C00004E082894FF6FD731A4082817047028AC9
:1023D0004FF6DF731A400282028A0A430282704774
:1023E00021B1028A42F48042028204E0028A4BF662
:1023F000FF731A4002827047C1F30802828070475F
:1024000001468888C0F308007047818941F00101C6
:1024100081817047028BD2B20283028B42EA012291
:1024200002837047028B02F47F420283028B0A43CD
:102430000283704721B1828A42F02002828204E046
:10244000828A4FF6DF731A408282704721B1828AF6
:1024500042F01002828204E0828A4FF6EF731A4043
:102460008282704721B1828A42F00802828204E0AF
:10247000828A4FF6F7731A408282704721B18289AF
:1024800042F40042828103E08289C2F30E0282811B
:10249000704721B1828A42F40062828204E0828A1B
:1024A0004FF2FF731A4082827047828A4FF6FB73A5
:1024B0001A408282828A0A438282704721B1828ACC
:1024C00042F00202828204E0828A4FF6FD731A40D3
:1024D0008282704702460020B1F5007F00D100BF24
:1024E00013880B400BB1012000E00020704701F47D
:1024F0000072B2F5007F00D100BFCA43028070476E
:1025000070B50246002400230025002040F66A161C
:10251000B14200D100BFC1F3421501F01F030126F3
:1025200006FA03F3012D02D19689334006E0022D0D
:1025300002D1168A334001E0968A33400C120126FC
:1025400006FA04F41688344013B10CB1012000E0FF
:10255000002070BD10B50022002340F66A14A1428D
:1025600000D100BF0A1201249440A3B2DC430480CE
:1025700010BD000000380140004400400048004009
:10258000004C00400050004000F020F802F050FAEB
:1025900018E00D48007810B101280FD108E002F0D2
:1025A0005AFA01F023FC10B101200749087006E037
:1025B00001F08EFF00200449087000E000BF00BF5A
:1025C00002F055F8E5E700002800002010B500F003
:1025D00033F800F0E5F900F019FE00F097F800F08C
:1025E00075FA01F0ECF900F0E5FA01F049FB002082
:1025F00001F050FB00F0F2FB4FF4E13000F0D6F9AF
:1026000000F053FF0021084601F04CFA002001F0D1
:10261000A6FA002001F09CFA02F060F810BD7047A5
:1026200000BFFEE700BFFEE700BFFEE700BFFEE71A
:10263000704770477047704710B56FF00400FDF7A2
:1026400044FF2E4800682E49B0FBF1F02D49087078
:102650000846007800EB4001C1EBC0104FF6FF7157
:1026600001EAC0002849088010BD0146254A1278B9
:102670004A434FF0E0235A6100229A611A461269D8
:1026800042F001021A6100BF4FF0E022106900F031
:1026900001021AB100F48032002AF5D04FF0E02296
:1026A000126922F001024FF0E0231A6100229A61C0
:1026B00070470146144A12884A434FF0E0235A619A
:1026C00000229A611A46126942F001021A6100BFA3
:1026D0004FF0E022106900F001021AB100F48032DC
:1026E000002AF5D04FF0E022126922F001024FF0EB
:1026F000E0231A6100229A61704700000000002068
:1027000000127A002A0000202C00002008B50121C8
:102710002020FEF73DFC4FF44070ADF80000102083
:102720008DF8030003208DF8020069469948FEF7F2
:1027300073F94FF440719748FEF71BFA08BD10B5C6
:102740009448001D006820F0F0009249091D0860BF
:102750000846006840F03000086001208E4908609B
:102760008E49C1F8A0011420FFF77FFF00208A499D
:1027700008601420FFF779FF00208849C1F8A00104
:1027800010BD10B58348001D006820F0F00081499D
:10279000091D08600846006840F03000086000200D
:1027A0007D49091F08607D49C1F8A4011420FFF785
:1027B0005CFF01207849091F08607849C1F8A4012D
:1027C0001420FFF752FF10BD10B500247148001D02
:1027D000006820F0F0006F49091D08600846006895
:1027E00040F08000086048156A490C3108600120FB
:1027F000694908600A20FFF738FF01206749C1F8DE
:10280000A0010A20FFF731FF07E0601CC4B2FA2CD8
:1028100003DDFFF7B6FF012010BD5F488038006878
:102820000028F2D15C49091F086000BFF4E710B529
:1028300000205949091F08605648001D006820F013
:10284000F0005449091D08600846006840F0300057
:10285000086000205149C1F8A4011420FFF705FFCA
:1028600001204D49091F08601420FFF7FEFE0020DB
:102870004A49C1F8A00110BD10B500204649091F02
:1028800008604448001D006820F0F0004149091D1F
:1028900008600846006840F03000086001203F49A9
:1028A000C1F8A4010220FFF7E0FE01203A49091F08
:1028B00008600220FFF7D9FE00203849C1F8A001C6
:1028C00010BD70B504463348001D006820F0F000CC
:1028D0003049091D08600846006840F03000086073
:1028E00000202D49091F0860002517E0E0092A494A
:1028F00008606006040E0220FFF7B7FE012027499A
:10290000C1F8A0010220FFF7B0FE00202249091FF4
:1029100008600220FFF7A9FE681CC5B2082DE5DBA0
:1029200070BD70B5054600241A48001D006820F0EF
:10293000F0001849091D08600846006840F0800052
:102940000860481513490C310860002617E0002084
:102950001149091F08600220FFF787FE01200F4977
:10296000C1F8A0016006040E0B488038006808B169
:10297000601CC4B20120FFF778FE701CC6B2082E9E
:10298000E5DB15B9FFF778FF01E0FFF750FF2046C0
:1029900070BD000000140140A48122420080224248
:1029A00010B54FF44070FDF741FD10BD10B586B075
:1029B00004461E224149424800F0EFF9012110204F
:1029C000FEF7E6FA0121C804FEF7EFFA4FF4806043
:1029D000ADF8140003208DF8160018208DF81700AC
:1029E00005A93848FEF718F84FF40060ADF8140058
:1029F00004208DF8170005A93248FEF70DF83420A1
:102A00008DF8000003208DF8010000208DF80200F1
:102A100001208DF803006846FDF70DFD01940020AC
:102A2000ADF80800ADF80A00ADF80C00ADF81000E4
:102A30000C20ADF80E0001A92348FFF7E4FB0122AA
:102A400040F225512048FFF776FC01211E48FFF790
:102A500066FC40211C48FFF74AFD06B010BD10B5CA
:102A600040F225511848FFF74BFD78B140F225514F
:102A70001548FFF76FFD1448FFF7C2FCC4B21048B9
:102A8000214602699047032000F0FFF910BD70B5A0
:102A900006460C4615460BE014F8011B3046FFF7BE
:102AA000ABFC00BF40213046FFF714FD0028F9D0F1
:102AB000281EA5F101018DB2EED170BD701300206A
:102AC0004C13002000100140004C004000B587B0BE
:102AD00001214FF40470FEF75BFA4FF40040FEF75B
:102AE000BBF90F20ADF8040000208DF8070001A904
:102AF0002E48FDF791FF2E48FDF706FD00200290BD
:102B00008DF80C008DF80D004FF46020049000202B
:102B1000059001208DF8180002A92548FDF71BFD3E
:102B200001212348FDF743FD2148FDF762FD00BF69
:102B30001F48FDF763FD0028FAD11D48FDF768FD29
:102B400000BF1B48FDF769FD0028FAD107B000BDA2
:102B500010B504460723012221461548FDF793FDD1
:102B600001211348FDF763FD00BF02211048FDF766
:102B7000CFFE0028F9D00E48FDF7ECFD10BD2DE981
:102B8000F04107460C460025002608E03846FFF7CE
:102B9000DFFF05440120FFF78CFD701CC6B2A64282
:102BA000F4DBB5FBF4F080B2BDE8F0810010014029
:102BB0000024014000B585B00121C803FEF7F5F9F6
:102BC0000020ADF800004FF48270ADF80200002044
:102BD000ADF804000220ADF806000120ADF80800B1
:102BE0004002ADF80A003820ADF80C000020ADF826
:102BF0000E000720ADF8100069461848FEF752FA9B
:102C000001211648FEF7F3FA05B000BD70B5054680
:102C1000002405E0601CC4B2C82C01DD002070BD9A
:102C200002210E48FEF767FB0028F3D029460B4827
:102C3000FEF70EFB002405E0601CC4B2C82C01DDC9
:102C40000020ECE701210548FEF755FB0028F3D0F2
:102C50000248FEF7FFFAC0B2E1E70000003C004086
:102C60000A68C3689A4203D20A68521C0A6001E0EB
:102C700082680A60704770B504460D46606818B9EE
:102C8000A068606020600BE0211D2046FFF7E8FF90
:102C9000D4E90010884203D121462046FFF7E0FF27
:102CA0006068057070BD2DE9F04104460F46154679
:102CB0004FF000082046216A8847A84219DB002609
:102CC00014E0206802784046411C0FFA81F83A541B
:102CD000D4E90001884203D100202060606007E051
:102CE00021462046FFF7BCFF701C06B2AE42E8DB6F
:102CF00000BF4046BDE8F08170B504460E46204650
:102D0000216A8847B04203DA2046A16988471AE061
:102D1000A0882189401A401C85B2B54206DB616853
:102D2000491B481C294601F05AFF0BE02946A068C0
:102D300001F055FF701B85B2E168491B481C29460C
:102D400001F04DFF00BF70BD10B501460A680AB919
:102D5000002012E0D1E900329A4205D38A880B881C
:102D6000D21A521C90B208E08A890B89D21A0B88B9
:102D70008C881B1BD21A921C90B210BD70B50446F1
:102D8000A0892189401A401C85B22946A06801F01B
:102D900026FF00202060606070BD30B581608B1818
:102DA0005B1EC3600023036043600024531E8568DC
:102DB000EC54AFF23D130361044B4361044B836158
:102DC000044BC361044B036230BD0000A72C000814
:102DD0007D2D0008F92C0008492D00081FB50121A0
:102DE0000220FEF7E2F840F2F310ADF8080041F6D9
:102DF0001F40ADF804000020ADF80A00ADF8060051
:102E000001A92D48FEF782FB1D208DF80000062049
:102E10008DF8010000208DF8020001208DF80300DC
:102E20006846FDF708FB01212348FFF7A5F90122B9
:102E300011462148FEF7E1FE1FBD022807D10021FF
:102E4000420791844107098821F00101118003287C
:102E500009D10021184A243211801749098821F02C
:102E60000101154A1180704710B501211248FFF782
:102E700072F948B101211048FFF77EF90320FFF7EE
:102E8000DCFF01200D49087010BD022807D1002188
:102E9000420791844107098841F00101118003280C
:102EA00009D10021044A243211800349098841F0E4
:102EB0000101014A11807047000400402E000020EB
:102EC00070B504460026FFF73AFC2546E11704EBEF
:102ED00011610912A02202EB4101C8B2FFF7F1FC17
:102EE000FFF772FCE11704EB11610912A4EB012159
:102EF000C8B2FFF7E6FCFFF767FCFFF720FCA12054
:102F0000FFF7DFFCFFF760FC0020FFF70AFD064635
:102F1000FFF737FC304670BD70B504460E46FFF72C
:102F20000EFC2546E11704EB11610912A02202EB09
:102F30004101C8B2FFF7C5FCFFF746FCE11704EBFF
:102F400011610912A4EB0121C8B2FFF7BAFCFFF727
:102F50003BFC3046FFF7B5FCFFF736FCFFF711FCF2
:102F60000A20FFF7A6FB70BD2DE9F04106460F468B
:102F7000154601240EE0621ED20027FA02F2D1B2F9
:102F80007219121B90B2FFF7C7FF0A20FFF791FBDF
:102F9000601CC4B2AC42EEDDBDE8F0812DE9F04129
:102FA00007460C46002625460BE036023919491B18
:102FB00088B2FFF785FF06440A20FFF77AFB681EF8
:102FC000C5B2002DF1DC3046BDE8F08110B540F20D
:102FD000FF10FFF775FF0446552C01D1002010BDEE
:102FE000552140F2FF10FFF797FF40F2FF10FFF767
:102FF00067FF0446552C01D10020F0E70120EEE7E1
:1030000070B506460C46154608E03046721C96B26E
:10301000FFF756FF04F8010B681E85B2002DF4D1AE
:1030200070BD70B505460C46164606E02178284668
:10303000FFF772FF681C85B2641C301EA6F1010107
:103040008EB2F3D170BD000070B505460E466E48D5
:10305000845D002D67D184B90021012000F0CAFAF7
:103060000021032000F0C6FA0021052000F0C2FA7A
:103070000021072000F0BEFAC5E0002C12DD202C54
:1030800010DC2146012000F0B5FA0021032000F0F9
:10309000B1FA0021052000F0ADFA0021072000F070
:1030A000A9FAB0E0202C14DD402C12DC0021012014
:1030B00000F0A0FAA4F1200081B2032000F09AFAF7
:1030C0000021052000F096FA0021072000F092FA76
:1030D00099E0402C14DD602C12DC0021012000F06E
:1030E00089FA0021032000F085FAA4F1400081B2A2
:1030F000052000F07FFA0021072000F07BFA82E033
:103100000021012000F076FA0021032000F072FA7D
:103110000021052000F06EFAA4F1600081B20720C2
:1031200000F068FA6FE0012D67D184B90021022018
:1031300000F060FA0021042000F05CFA0021062073
:1031400000F058FA0021082000F054FA5BE0002C4F
:1031500012DD202C10DC2146022000F04BFA002169
:10316000042000F047FA0021062000F043FA002175
:10317000082000F03FFA46E0202C14DD402C12DC41
:103180000021022000F036FAA4F1200081B20420D0
:1031900000F030FA0021062000F02CFA002108206F
:1031A00000F028FA2FE0402C14DD602C12DC002106
:1031B000022000F01FFA0021042000F01BFAA4F105
:1031C000400081B2062000F015FA0021082000F02E
:1031D00011FA18E00021022000F00CFA002104206E
:1031E00000F008FA0021062000F004FAA4F16000C3
:1031F00081B2082000F0FEF905E0022D03D1022182
:103200000A2000F0F7F970BD2F00002008B5012159
:103210007D20FDF7BDFE01215D48FDF7CEFC48F2A3
:103220001F00ADF8000010208DF8030003208DF87A
:10323000020069465748FDF7EFFB48F21F01554869
:10324000FDF799FC4FF48070ADF8000004208DF874
:10325000030069464F48FDF7DFFB40F64470ADF8C8
:10326000000010208DF8030003208DF8020069464D
:103270004948FDF7D1FB40F644714748FDF77BFC18
:103280000320ADF8000004208DF803006946424891
:10329000FDF7C2FB8020ADF8000048208DF8030048
:1032A00069463D48FDF7B8FB80213B48FDF761FCCE
:1032B0003820ADF8000018208DF8030003208DF8A9
:1032C000020069463448FDF7A7FB38213248FDF774
:1032D00050FC4FF47040ADF8000010208DF8030052
:1032E00003208DF8020069462C48FDF795FB4FF44A
:1032F00070412A48FDF73FFC4FF47C70ADF80000A8
:1033000004208DF8030069462448FDF785FB41F64B
:103310007F40ADF8000010208DF8030003208DF8E9
:10332000020069461E48FDF777FB41F67F411C48C5
:10333000FDF721FC4FF46040ADF8000004208DF84B
:10334000030069461648FDF767FB8020ADF80000D2
:1033500048208DF8030069461148FDF75DFB802188
:103360000F48FDF706FC4FF6FF70ADF80000102087
:103370008DF8030003208DF8020069460948FDF727
:103380004BFB4FF6FF710748FDF7F5FB08BD00004A
:103390000002300000080140000C01400010014014
:1033A000001401400018014070B50446002524E0D7
:1033B00020218D48FDF7DFFB04F0800020B1402183
:1033C0008948FDF7D6FB03E040218748FDF7D3FB92
:1033D0006006040E0A20FFF748F920218248FDF715
:1033E000C8FB0A20FFF741F920217F48FDF7C3FB06
:1033F0000A20FFF73AF9681CC5B2082DD8DB70BD6A
:1034000010B5044680217848FDF7B3FB0120FFF793
:1034100050F9F820FFF7C8FF04F0F000FFF7C4FFF1
:10342000F02101EA0410FFF7BFFF80216E48FDF78D
:10343000A2FB0220FFF73DF910BD10B50446802124
:103440006948FDF796FB0120FFF733F9FA20FFF7F3
:10345000ABFF04F0F000FFF7A7FFF02101EA041032
:10346000FFF7A2FF80216048FDF785FB0220FFF7F0
:1034700020F910BD08B501210820FDF789FDE820DD
:10348000ADF8000010208DF8030003208DF8020035
:1034900069465548FDF7C0FAE8215448FDF76BFB33
:1034A00008215148FDF765FB08BD10B56420FFF702
:1034B00000F9FFF7DFFF3020FFF7A2FF0C20FFF736
:1034C0009FFF0120FFF79CFF1420FFF7F2F8062072
:1034D000FFF796FF10BD10B500243020FFF790FFD6
:1034E0008020FFF78DFF00BF04E02020FFF7A5FF3D
:1034F000601CC4B2402CF8DB10BD70B5044600253A
:1035000000263020FFF77CFF34B1012C06D0022CBE
:1035100006D0032C08D105E0802605E0902603E0C4
:10352000882601E0982600BF00BF3046FFF768FFFD
:10353000002504E02020FFF780FF681CC5B2102D95
:10354000F8DB70BD70B505460E4614463020FFF717
:1035500057FF082101FB0561254A505CFFF750FF2A
:1035600018E0082E02D10026681CC5B2042D00D137
:103570000025082101FB05611D4A505CFFF740FF53
:103580002078FFF75AFF641C2078FFF756FF641C71
:10359000701CC6B220780028E3D170BD30B5024659
:1035A0000020002300BF0A2491FBF4F504FB15134F
:1035B00091FBF4F4A1B203F1300402F8014B441C76
:1035C000E0B20029EFD130BD10B50346002000BFA6
:1035D00006E09C18241A14F8014C0C54441CE0B268
:1035E0009042F6DB10BD000000080140000C0140D5
:1035F0001E50000870B506460D46012E2CD1C5F1AF
:10360000200085B2002419E0AC4205D14FF480714E
:10361000FC48FDF7B0FA04E04FF48071F948FDF77B
:10362000A8FA8021F748FDF7A6FA2820FFF71DF831
:103630008021F448FDF79DFA601CC4B2202CE3DB26
:103640000421F148FDF797FA2820FFF70EF804212E
:10365000ED48FDF78EFAB1E1022E30D1C5F1200020
:1036600085B200241BE0AC4205D14FF40061E5486F
:10367000FDF781FA04E04FF40061E248FDF779FAC2
:103680004FF48061DF48FDF776FA2820FEF7EDFF62
:103690004FF48061DB48FDF76CFA601CC4B2202C4B
:1036A000E1DB4FF40071D748FDF765FA2820FEF7FB
:1036B000DCFF4FF40071D348FDF75BFA7EE1032E87
:1036C0002CD1C5F1200085B2002417E0AC4204D112
:1036D0000221CE48FDF74FFA03E00221CB48FDF767
:1036E00048FA0121C948FDF746FA2820FEF7BDFF38
:1036F0000121C648FDF73DFA601CC4B2202CE5DB71
:103700004FF48051C248FDF736FA2820FEF7ADFF8E
:103710004FF48051BE48FDF72CFA4FE1042E2AD118
:10372000C5F1200085B2002417E0AC4204D110217D
:10373000B648FDF720FA03E01021B448FDF719FA66
:103740000821B248FDF717FA2820FEF78EFF08215E
:10375000AE48FDF70EFA601CC4B2202CE5DB042154
:10376000AA48FDF708FA2820FEF77FFF0421A748A2
:10377000FDF7FFF922E1052E2ED1C5F1200085B21B
:1037800000241BE0AC4205D14FF400719E48FDF7C8
:10379000F2F904E04FF400719B48FDF7EAF94FF4A9
:1037A00080719948FDF7E7F92820FEF75EFF4FF496
:1037B00080719548FDF7DDF9601CC4B2202CE1DB77
:1037C00020219248FDF7D7F92820FEF74EFF20214F
:1037D0008E48FDF7CEF9F1E0062E2AD1C5F1200082
:1037E00085B2002417E0AC4204D104218548FDF7DE
:1037F000C2F903E004218348FDF7BBF902218148A7
:10380000FDF7B9F92820FEF730FF02217D48FDF7CA
:10381000B0F9601CC4B2202CE5DB01217948FDF72A
:10382000AAF92820FEF721FF01217648FDF7A1F92A
:10383000C4E0072E30D1C5F1200085B200241BE082
:10384000AC4205D14FF400417148FDF794F904E012
:103850004FF400416E48FDF78CF94FF480416C48FD
:10386000FDF789F92820FEF700FF4FF480416848F2
:10387000FDF77FF9601CC4B2202CE1DB4FF400514E
:103880006348FDF778F92820FEF7EFFE4FF400516A
:103890005F48FDF76EF991E0082E2AD1C5F12000AE
:1038A00085B2002417E0AC4204D104215948FDF749
:1038B00062F903E004215748FDF75BF902215548FE
:1038C000FDF759F92820FEF7D0FE02215148FDF7F7
:1038D00050F9601CC4B2202CE5DB01214D48FDF7F6
:1038E0004AF92820FEF7C1FE01214A48FDF741F9B7
:1038F00064E0092E30D100241EE005FA04F000F047
:10390000800028B14FF400413E48FDF732F904E051
:103910004FF400413B48FDF72EF94FF400613A485F
:10392000FDF729F92820FEF7A0FE4FF40061364884
:10393000FDF71FF9601CC4B2082CDEDB4FF4806178
:103940003148FDF718F92820FEF78FFE4FF480610B
:103950002D48FDF70EF931E00A2E2FD100241EE08C
:1039600005FA04F000F0800028B14FF48061274888
:10397000FDF701F904E04FF480612448FDF7F9F800
:103980004FF480512148FDF7F6F82820FEF76DFE30
:103990004FF480511D48FDF7ECF8601CC4B2082CB0
:1039A000DEDB4FF400611948FDF7E5F82820FEF74B
:1039B0005CFE4FF400611548FDF7DBF870BD10B5F3
:1039C00000210120FFF716FE00210220FFF712FE62
:1039D00000210320FFF70EFE00210420FFF70AFE5E
:1039E00000210520FFF706FE00210620FFF702FE5A
:1039F00000210720FFF7FEFD00210820FFF7FAFD58
:103A000010BD000000180140000C014000140140EE
:103A1000001001400008014010B504462CB94FF4D5
:103A200000511D48FDF78BF810BD012C04D1A103F6
:103A30001948FDF784F8F7E7022C04D1A1031648D2
:103A4000FDF77DF8F0E7032C04D140211348FDF782
:103A500076F8E9E7042C04D180211048FDF76FF8CF
:103A6000E2E7052C05D14FF480710C48FDF767F8AB
:103A7000DAE7062C05D14FF400710848FDF75FF82E
:103A8000D2E7072C05D14FF480710548FDF757F8B0
:103A9000CAE700BFC8E70000001401400010014061
:103AA0000008014070B504460D46012D05D171484E
:103AB000007820436F49087004E06E480078204089
:103AC0006C4908706B4801780920FFF793FD70BDC1
:103AD00010B50446012C04D101036748FDF749F8ED
:103AE00035E0042C04D1A1026348FDF744F82EE030
:103AF000022C04D121036048FDF73BF827E0052C98
:103B000005D14FF400515C48FDF735F81FE0032C58
:103B100005D14FF480415848FDF72BF817E0062CEB
:103B200005D14FF480415448FDF725F80FE074B9F2
:103B30004FF480515048FDF71EF84FF400514E48A5
:103B4000FDF719F84FF480414B48FDF714F810BD0C
:103B500010B5044621460A20FFF74CFD10BD10B5F4
:103B60000446012C14D108214348FDF702F8102126
:103B70004148FDF700F820213F48FCF7FCFF4021B9
:103B80003D48FCF7F8FF10213C48FCF7F4FF70E0DB
:103B9000022C14D110213848FCF7EBFF08213648DD
:103BA000FCF7E9FF20213448FCF7E5FF40213248CB
:103BB000FCF7E1FF10213148FCF7DDFF59E0032C51
:103BC00014D120212C48FCF7D4FF08212A48FCF707
:103BD000D2FF10212848FCF7CEFF40212648FCF7F1
:103BE000CAFF10212548FCF7C6FF42E0042C14D17F
:103BF00040212148FCF7BDFF08211F48FCF7BBFF0F
:103C000010211D48FCF7B7FF20211B48FCF7B3FF2C
:103C100010211A48FCF7AFFF2BE0052C14D110211E
:103C20001648FCF7A6FF08211348FCF7A4FF102153
:103C30001148FCF7A0FF20210F48FCF79CFF402112
:103C40000D48FCF798FF14E09CB908210A48FCF7DE
:103C500092FF10210848FCF78EFF20210648FCF750
:103C60008AFF40210448FCF786FF10210348FCF737
:103C700082FF10BD900000200018014000080140A4
:103C800010B540215748FCF774FF40215648FCF717
:103C900070FF10BD70B50446002524B9402151487D
:103CA000FCF769FF03E040214F48FCF764FF012067
:103CB000FEF7FFFC002507E0FF20FEF7A7FF6420CA
:103CC000FEF7D3FC681CC5B2642DF5DB0120FEF7BE
:103CD000F0FC2020FEF79AFF4FF4FA70FEF7C5FCC7
:103CE0000C20FEF793FF4FF4FA70FEF7BEFC102095
:103CF000FEF78CFF4FF4FA70FEF7B7FC4020FEF79A
:103D000085FF4FF4FA70FEF7B0FC4FF4FA70FEF73F
:103D1000D0FC2120FEF77AFF4FF4FA70FEF7A5FCE5
:103D20000C20FEF773FF4FF4FA70FEF79EFC112093
:103D3000FEF76CFF4FF4FA70FEF797FC4020FEF799
:103D400065FF4FF4FA70FEF790FC4FF4FA70FEF73F
:103D5000B0FC24B940212348FCF70BFF03E04021CD
:103D60002148FCF706FF70BD70B505460E460024DD
:103D700000BF80211B48FCF7E2FE0028F9D101209A
:103D8000FEF797FC25B940211648FCF7F4FE03E046
:103D900040211548FCF7EFFE0120FEF78AFC1EB912
:103DA0003820FEF733FF02E03920FEF72FFF6420B2
:103DB000FEF77FFCFF20FEF729FF04434FF6FF705C
:103DC00000EA0424FF20FEF721FF044325B9402127
:103DD0000448FCF7CEFE03E040210348FCF7C9FE8F
:103DE000204670BD00140140000C014010B50020B9
:103DF000FFF712FE40B10A20FEF75BFC0020FFF740
:103E00000BFE08B1102010BD0020FCE72DE9F84F93
:103E10000025002600270024A046A246A146002037
:103E200000900320FFF79BFEFA48467887783146DA
:103E30000020FFF709F939460120FFF705F90220B4
:103E4000FEF737FC0B2000F081FE834601F054F8AA
:103E50000090F149009801F063F87AD20520FFF74D
:103E60007EFE0320FFF774FE00BF76E000210846C7
:103E7000FFF77AFF044647F6FF7084420CDB201AF6
:103E800041F2883148434FF6FF7190FBF1FB5846F1
:103E900001F01AF880460DE047F6FF70001B41F272
:103EA000883148434FF6FF7190FBF1FB584601F013
:103EB0000BF8804601210020FFF756FF0446A4F5C9
:103EC000FE40FF38322148434FF6FF7190FBF1FB73
:103ED000584600F0F9FF82465146404600F012FF76
:103EE0008146CE49B1F90010481D00F0EDFF834630
:103EF000494601F015F82DD2484600F0C5FFC849E3
:103F0000498801EB8101C74A02EB4101C880C449DD
:103F1000498801EB810102EB4101CE70C04949881B
:103F200001EB810102EB41010F710120BC4949887D
:103F300001EB810102EB41018870B9490871022D42
:103F400003D108464088401C48800A20FEF7B1FB98
:103F500001E005E003E0681CC5B2032D86DB25E027
:103F600040F2E730AE49498801EB8101AD4A02EBEE
:103F70004101C880AA49498801EB810102EB410156
:103F8000CE70A749498801EB810102EB41010F7115
:103F90000120A349498801EB810102EB41018870AE
:103FA0009F49087108464088401C48800320FFF75D
:103FB000D6FD984890F8586090F859703146002026
:103FC000FFF742F839460120FFF73EF80820FEF7D8
:103FD00070FB0B2000F0BAFD834600F08DFF0090CF
:103FE0008D49009800F09CFF7ED20520FFF7B7FDB9
:103FF0000C20FFF7ADFD002573E000210846FFF718
:10400000B3FE044647F6FF7084420CDB201A41F2EF
:10401000883148434FF6FF7190FBF1FB584600F0A2
:1040200053FF80460DE047F6FF70001B41F28831D8
:1040300048434FF6FF7190FBF1FB584600F044FFF8
:10404000804601210020FFF78FFE0446A4F5FE40C4
:10405000FF38322148434FF6FF7190FBF1FB584681
:1040600000F032FF82465146404600F04BFE81464A
:104070006A49B1F90010481D00F026FF8346494601
:1040800000F04EFF2AD2484600F0FEFE64494988FF
:1040900001EB8101634A02EB4101C8806049498814
:1040A00001EB810102EB4101CE705D49498801EBD2
:1040B000810102EB41010F7101205949498801EB4F
:1040C000810102EB4101887055490871022D06D12A
:1040D00008464088401C488001E005E003E0681C79
:1040E000C5B2032D89DB28E040F2E7304C4949880E
:1040F00001EB81014B4A02EB4101C88048494988E4
:1041000001EB810102EB4101CE704549498801EB89
:10411000810102EB41010F7101204149498801EB06
:10412000810102EB410188703D49087108464088D1
:10413000401C48800A20FEF7BCFA0020FFF708FD6B
:104140000020FFF70CFDBDE8F88F2DE9F0410024B9
:1041500000250027A04600260320FFF700FD00BF32
:104160006CE057206043304908444778572060434B
:10417000084490F8028039460020FEF765FF41466A
:104180000120FEF761FF0820FEF793FA002550E0BA
:104190000B2000F0DBFC0646214840881F4931F91E
:1041A00010000A30B04241DA1D48408800EB800020
:1041B0001C4901EB4000C6801949498801EB810187
:1041C000184A02EB4101CF701549498801EB810182
:1041D00002EB410181F8048001201149498801EB7B
:1041E000810102EB4101887000200D49498801EBF3
:1041F000810102EB41010872012009490871022D79
:1042000003D108464088401C48800A20FEF751FA36
:104210000DE00000980000200000A041461F002093
:10422000920000208E1300204601002003E0681C4D
:10423000C5B2032DACDB00BF601CC4B2322C90DBD6
:104240000220FFF78CFC002457E0D348075D611C77
:1042500010F8018039460020FEF7F6FE41460120A5
:10426000FEF7F2FE0820FEF724FA002540E00C20BD
:1042700000F06CFC0646C948B0F9540000F57A70AD
:10428000B04232DDC648408800EB8000C54901EBF2
:104290004000C680C249498801EB8101C14A02EB56
:1042A0004101CF70BE49498801EB810102EB410118
:1042B00081F804800120BA49498801EB810102EBB1
:1042C00041018870B649498801EB810102EB410147
:1042D0000872B3490871022D03D108464088401C7A
:1042E00048800A20FEF7E5F900E003E0681CC5B24B
:1042F000032DBCDB00BFA01CC4B20A2CA5DB02202E
:10430000FFF72DFC002457E0A748075D611C10F85B
:10431000018039460020FEF797FE41460120FEF756
:1043200093FE0820FEF7C5F9002540E00C2000F0C0
:104330000DFC06469948B0F9540000F57A70B04279
:1043400032DD9748408800EB8000964901EB400041
:10435000C6809349498801EB8101924A02EB4101F1
:10436000CF708F49498801EB810102EB410181F84F
:10437000048001208A49498801EB810102EB410157
:1043800088708749498801EB810102EB410108727D
:1043900083490871022D03D108464088401C48809B
:1043A0000A20FEF786F900E003E0681CC5B2032D81
:1043B000BCDB00BFA01CC4B21E2CA5DB0220FFF793
:1043C000CEFB002454E07948075D611C10F80180A1
:1043D00039460020FEF738FE41460120FEF734FE44
:1043E000002540E00C2000F0B1FB06466B48B0F918
:1043F000540000F57A70B04232DD6948408800EB25
:104400008000684901EB4000C6806549498801EB9E
:104410008101644A02EB4101CF706149498801EB97
:10442000810102EB410181F8048001205C49498847
:1044300001EB810102EB410188705949498801EB88
:10444000810102EB4101087255490871022D03D127
:1044500008464088401C48800A20FEF72AF900E000
:1044600003E0681CC5B2032DBCDB00BFA01CC4B2B6
:104470001E2CA8DB0020FFF772FBBDE8F0812DE9C0
:10448000F04105460024002600270320FFF767FBC4
:10449000012415E021460020FEF7D6FD0B20FEF793
:1044A00057FB0746B7F5FA7F05D24148005D05F88E
:1044B000010B701CC6B26420FEF7D7F8601CC4B2B2
:1044C000612CE7DB0020FFF74AFB3046BDE8F081B6
:1044D00010B5002400F0E6FA01210820FFF7E2FA07
:1044E000C820FEF7E6F801212020FFF7DBFA27E0DD
:1044F0000220FFF791FA00B123E00320FFF78CFAC6
:10450000A0B100F095FA0021F720FFF7CBFA642064
:10451000FEF7CFF80021EF20FFF7C4FA6420FEF782
:10452000C8F80021DF20FFF7BDFA10BD2046611C4E
:104530008CB2B0F5FA6F00DD03E00120FEF7B9F8A8
:10454000D6E700BF01211020FFF7ACFA6420FEF788
:10455000B0F800201249487148800871FFF756FCF6
:10456000FFF7F3FD0021EF20FFF79CFA6420FEF730
:10457000A0F80021DF20FFF795FA6420FEF799F8F4
:104580000021F720FFF78EFA01200549487100F05D
:104590009AF900BFC9E7000045120020461F00201D
:1045A000920000208E1300209C120020F3120020A5
:1045B0002F00002010B502460C460021002300BF4A
:1045C00004E0505C1844C3B2481CC1B2A01C814234
:1045D000F7DB505C1844C0B210BDA52051490870EB
:1045E0004870022050490870704796204D49087065
:1045F000487002204C490870704770B500240025AF
:104600004948007802280CDD00BF05E04548005D00
:10461000281AC5B2601CC4B243480078401EA042AC
:10462000F4DC414802783F494048FEF730FA70BD5B
:1046300070B50446A578012D04D0022D10D0032DAD
:1046400012D10EE03A48407948B1862035490870C9
:10465000012048708870C87005203349087004E054
:1046600003E0FFF7BAFF00E000BF00BF70BD30B548
:104670008BB000240025282101A800F0D2FA2D4893
:104680000078002828D02C48016A8847C5B205B3B5
:1046900029482A4601A94369984706E001A8005D18
:1046A000862800D103E0601CC4B2AC42F6DB00BF38
:1046B00001AB621C995C01AA1019FFF77BFF20B1C6
:1046C00001A90819FFF7B4FF01E0FFF78EFFFFF71C
:1046D00094FF0020174908700BB030BD70B5002062
:1046E000FEF7EEFB0546AA2D0FD0AA210020FEF70B
:1046F00013FC002406E0611C88B20021FEF70CFCCC
:10470000601C84B2562CF6DB0AE054220B490120CF
:10471000FEF776FC0222094954315520FEF770FC61
:1047200070BD00009C1F002049130020004C004079
:10473000920000202E0000204C130020461F002075
:1047400010B500240120FFF767F9012815D10A20D0
:10475000FDF7AFFF04E0601C84B20120FDF7A9FF64
:104760000120FFF759F90128F5D040F2DC508442CE
:1047700001DD312010BD3020FCE70020FAE730B524
:1047800087B0044600200490059006900025019013
:1047900002900390FEF7B1FE0120FEF7AEFE02206C
:1047A000FEF7ABFE0320FEF7A8FECCA200210846D0
:1047B000FEF7C8FE04EB8400CA4A02EB4000C17851
:1047C00004A8FEF7EBFE05462A4601A904A8FEF759
:1047D000FBFE01AA03210020FEF7B4FE0020049096
:1047E000ADF81400C0A200210120FEF7ABFE04EBDF
:1047F0008400BC4A02EB4000017904A8FEF7CEFE1B
:1048000005462A4601A904A8FEF7DEFE01AA0321F7
:104810000120FEF797FE00200490ADF81400B4A22A
:1048200000210220FEF78EFE04EB8400AD4A02EB6D
:104830004000C18804A8FEF7B1FE05462A4601A93A
:1048400004A8FEF7C1FE01AA03210220FEF77AFEAA
:1048500004EB8400A34901EB4000007A28B9A6A22A
:1048600000210320FEF76EFE04E0A6A20021032033
:10487000FEF768FE07B030BD704710B50020FEF7A8
:104880003CFE0120FEF739FE0220FEF736FE032033
:10489000FEF733FE9EA203210120FEF753FE10BD5A
:1048A00010B50020FEF729FE0120FEF726FE0220AB
:1048B000FEF723FE0320FEF720FE97A2032101202E
:1048C000FEF740FE10BD10B59548007950B9FFF7CE
:1048D000E7FF0021BF20FFF7E5F801218020FFF767
:1048E000E1F809E0FFF7C9FF00217F20FFF7DAF8C0
:1048F00001214020FFF7D6F800208A49087010BD3A
:104900002DE9F043A3B04FF0000800260024A14693
:104910000027002558210DA800F083F900200C90F5
:104920002C2101A800F07DF97F4800680090FEF777
:10493000D2FD7EA200210846FEF704FE01210820D8
:10494000FFF7B0F8C820FDF7B4FE01212020FFF7E3
:10495000A9F8C820FDF7ADFE01211020FFF7A2F84D
:104960000021F720FFF79EF84BE00DA8FFF787FD29
:1049700081469DF83400002833D000261FE00DA8A2
:10498000815D0CA8FEF70AFE0746002409E02819FD
:10499000C5B2381B401E0CA9085C0DF80500601C50
:1049A000C4B2BC42F3DB2021681CC0B205460DF83E
:1049B0000010681CC5B200200C90701CC6B24E4599
:1049C000DDDB6A4600210120FEF7BCFD0025202228
:1049D0003021684600F0FBF858210DA800F021F9BD
:1049E00008E00120FEF789FD0220FEF786FD032086
:1049F000FEF783FDFFF7A4FE8046B8F1300F00D12B
:104A000000E0B2E700BF0021EF20FFF74BF8642081
:104A1000FDF74FFE0021DF20FFF744F86420FDF78B
:104A200048FE0021F720FFF73DF823B0BDE8F083F2
:104A300010B50020FEF761FD0120FEF75EFD0220AB
:104A4000FEF75BFD0320FEF758FD3AA2022101208C
:104A5000FEF778FD10BD10B50024FFF771FE044687
:104A6000302C02D0312C1AD114E02D48407980B17D
:104A70002C480078FFF783FE2A480078401CC0B21B
:104A80002849087026494988884202DB00202549C8
:104A9000087005E0FFF734FFFFF7CAFF00E000BF32
:104AA00000BF10BD10B50020FEF727FD0120FEF766
:104AB00024FD0220FEF721FD0320FEF71EFD20A2AB
:104AC00002210120FEF73EFD00217F20FEF7EAFFD4
:104AD0000021BF20FEF7E6FF10BD00005450313A20
:104AE000000000008E1300205450323A00000000F5
:104AF000446174613A00000055696E743A20C5B78C
:104B00000000000055696E743A20C7A7C5B70000C1
:104B10004661696C00000000506173730000000082
:104B2000920000204A13002040500008D5D2B5E37F
:104B3000A3BA0000D7BCB1B8B2E2CAD400000000EA
:104B4000B2E2CAD4D6D02E2E000000002DE9F041EA
:104B500007460024002600250A2F33D00B2F18D03B
:104B60000C2F02D00D2F2ED12DE03846FDF7F0FF8F
:104B700004464FF47A7104FB01F0C4F5805190FBB8
:104B8000F1F544F62060854201D9064600E0AEB258
:104B900019E03846FDF7DCFF0446642104FB01F010
:104BA000C4F5805190FBF1F0A0F16405B5F57A7F72
:104BB00002D340F2E73600E0AEB2062E01DB701FF2
:104BC00086B200E000BF00BF3046BDE8F08102F0D1
:104BD000FF0343EA032242EA024200F002B84FF028
:104BE00000020429C0F0128010F0030C00F01B80BA
:104BF000CCF1040CBCF1020F18BF00F8012BA8BFC8
:104C000020F8022BA1EB0C0100F00DB85FEAC17C8B
:104C100024BF00F8012B00F8012B48BF00F8012B3E
:104C200070474FF0000200B513469446964620396F
:104C300022BFA0E80C50A0E80C50B1F12001BFF455
:104C4000F7AF090728BFA0E80C5048BF0CC05DF8BB
:104C500004EB890028BF40F8042B08BF704748BF09
:104C600020F8022B11F0804F18BF00F8012B70477D
:104C7000704770477047754600F02CF8AE46050047
:104C80006946534620F00700854618B020B5FBF76B
:104C9000CBFABDE820404FF000064FF000074FF080
:104CA00000084FF0000B21F00701AC46ACE8C0094A
:104CB000ACE8C009ACE8C009ACE8C0098D46704753
:104CC00010B50446AFF300802046BDE81040FBF766
:104CD00096BA0000004870479C2000200149182027
:104CE000ABBEFEE7260002007047401058BFC0F17F
:104CF0004040491058BFC1F140418142EFF300806C
:104D0000704700004FF47F0C1CEAD0121EBF1CEA53
:104D1000D11392EA0C0F93EA0C0F00F0858090EA11
:104D2000010F48BF42F4807240F4000C41F40000CF
:104D30002CF07F4120F07F4000B58142A2EB0302BE
:104D40000FF2081CACEB504EC0F100009EF800E0E2
:104D50004FEA4E0E00FB0EFC38BF49004FEA2C1CF8
:104D600002F5FA020CFB0EF34FEACE1E4FEA112CAD
:104D70004FEAC1210EEB635E42EB22420EFB0CFCBC
:104D80004FEA1C5300FB03114FEA112C4FEA01318B
:104D90000EFB0CFC4FEADC4C00FB0C11C14228BF9F
:104DA00009184CEB03335DF804EB10EB410143EBC6
:104DB000C250B2F57C0F38BF704729D512F0F00F02
:104DC0001CBF00F1C04000F00040704700818283AA
:104DD0008485868788898B8C8D8E8F91929395960A
:104DE00097999A9C9D9FA0A2A3A5A7A8AAACAEB094
:104DF000B2B3B5B7B9BCBEC0C2C5C7C9CCCED1D499
:104E0000D7D9DCDFE2E6E9ECF0F3F7FAFE000000C8
:104E10004FEA400C0CF1807CBCF17E4F28BF7047FC
:104E2000B0F1C04000F0F6B890EA010F0CEAD113DF
:104E300048BF42F48072624538BF634507D213F41D
:104E40007F0F16D080EA010000F00040704710B5D7
:104E500000F09AF8097EFC3E00F005B880EA0100F7
:104E600000F00040704780EA010000F0004000F0D0
:104E7000D1B812F47F0F04BF0248704780EA0100E6
:104E800000F0C8B80000C07FC10DD1F19E0206DB62
:104E90004FEA002343F0004323FA02F07047004238
:104EA00007D54FEA4001B1F1FE4F02D24FF00000AA
:104EB000704710B500F068F84992248000207047D0
:104EC0006FEA20007047000010F0004148BF4042E8
:104ED000B0FA80F310FA03F2C3F19D030BD051EA4C
:104EE000C35101EB1220530638BF704700F1010097
:104EF00008BF20F001007047B0FA80F310FA03F207
:104F0000C3F19D030AD0D90501EB1220530638BF27
:104F1000704700F1010008BF20F001007047000059
:104F200050EA010C00F113801CF5000F58BFBCF5CE
:104F3000000F01D48842704707D710F5000F58BF03
:104F400011F5000F15D488427047894270471CF54F
:104F5000000F04D5BCF5000FF7D5814270474FF024
:104F6000807C1CEB400F38BF1CEB410F01D281420B
:104F7000704710B500F008F8922449004FF0005037
:104F80004FF08051FFF7B1BE0EF1020E2EF0030E6E
:104F90005EF8044B244204D44FEA4102B2F17F4F41
:104FA00011D84FEA4003B3F17F4F0CD80ED14FEA2E
:104FB000D07CB2F17F4F0CEB4C0C0CF1020C08BF13
:104FC0004CEBD17C04E04FF0080C01E04FEAD17CBF
:104FD0000CEB4C0324FA03F404F00704B4F1040CC2
:104FE00006D20EEB840CBDE810404CF0010C60477B
:104FF000DFE80CF0070802024FF00040A0F5800047
:1050000010BD0846420018BFD2F1807288BF00F080
:10501000004010BDFF2141EAD050C005704780819B
:1050200082838485868790919293949596978889B8
:105030008A8B8C8D8E8F98999A9B9C9D9E9F000049
:105040002000000064500008000000204C13000005
:105050006C010008385200084C130020B413000003
:10506000C80100081184A24A046809010203040669
:105070000708090C691015020406088A37242A0556
:1050800015004E120A0B0C0D0E0F101112131415F1
:10509000161718191A1B1C1D1E1F204C4142434491
:1050A00045464748494A4B223D233C243B253A2666
:1050B000392738283729362A352B342C332D322EF0
:1050C00031213E2F305F585E595D5A60575C5B5509
:1050D0005604540155340B530156570C53020141E9
:1050E000570B53020C570B530C47570B534748575A
:1050F0000B530338570B530437570B53052E570BDD
:10510000530608570B530813570B531320570B53D1
:105110002042570B534234570B533423570B53231E
:1051200028570B53282B570B532B2C570B532C4C16
:10513000570B534C4B570B53072F570B53094F57D4
:105140000B530A50570B530B43570B530D3F570B41
:10515000530E3B570B530F39570B531036570B5306
:105160001133570B53122D570B53144D570B531527
:105170004E570B531644570B531749570B53494A75
:10518000570B534A24570B531840570B53193C578E
:105190000B531A3A570B531B32570B531D31570BF6
:1051A000531E29570B532952570B535251570B5328
:1051B0001F2A570B532A54570B535453570B533D25
:1051C00026570B534522570B534621570B533E2569
:1051D00057035430270020381E472D2F31333537E1
:1051E000393B3D3F41434549482E30323436383A09
:1051F0003C3E404244464A000C4C0A524C4E5054ED
:10520000514B4D4F53002E2D2C0102030405060770
:1052100008090A0B0C0D0E0F101112131415161796
:1052200018191A1B1C1D1E1F202122232425262786
:0852300028292A2B2C000000A4
:0400000508000131BD
:00000001FF
